{
  "contractName": "FREN",
  "abi": [
    {
      "inputs": [
        {
          "internalType": "uint256",
          "name": "initialAmount",
          "type": "uint256"
        },
        {
          "internalType": "address",
          "name": "daiAddress",
          "type": "address"
        },
        {
          "internalType": "address",
          "name": "uniswapV2FactoryAddress",
          "type": "address"
        },
        {
          "internalType": "address",
          "name": "uniswapV2Router02Address",
          "type": "address"
        },
        {
          "internalType": "address",
          "name": "slidingWindowOracleAddress",
          "type": "address"
        }
      ],
      "stateMutability": "nonpayable",
      "type": "constructor"
    },
    {
      "anonymous": false,
      "inputs": [
        {
          "indexed": true,
          "internalType": "address",
          "name": "owner",
          "type": "address"
        },
        {
          "indexed": true,
          "internalType": "address",
          "name": "spender",
          "type": "address"
        },
        {
          "indexed": false,
          "internalType": "uint256",
          "name": "value",
          "type": "uint256"
        }
      ],
      "name": "Approval",
      "type": "event"
    },
    {
      "anonymous": false,
      "inputs": [
        {
          "indexed": true,
          "internalType": "address",
          "name": "from",
          "type": "address"
        },
        {
          "indexed": true,
          "internalType": "address",
          "name": "to",
          "type": "address"
        },
        {
          "indexed": false,
          "internalType": "uint256",
          "name": "value",
          "type": "uint256"
        }
      ],
      "name": "Transfer",
      "type": "event"
    },
    {
      "anonymous": false,
      "inputs": [
        {
          "indexed": true,
          "internalType": "address",
          "name": "lendor",
          "type": "address"
        },
        {
          "indexed": true,
          "internalType": "uint256",
          "name": "index",
          "type": "uint256"
        },
        {
          "indexed": true,
          "internalType": "address",
          "name": "debtor",
          "type": "address"
        }
      ],
      "name": "loanOffer",
      "type": "event"
    },
    {
      "anonymous": false,
      "inputs": [
        {
          "indexed": true,
          "internalType": "address",
          "name": "lendor",
          "type": "address"
        },
        {
          "indexed": true,
          "internalType": "uint256",
          "name": "index",
          "type": "uint256"
        },
        {
          "indexed": true,
          "internalType": "address",
          "name": "debtor",
          "type": "address"
        }
      ],
      "name": "loanRepaid",
      "type": "event"
    },
    {
      "anonymous": false,
      "inputs": [
        {
          "indexed": true,
          "internalType": "address",
          "name": "lendor",
          "type": "address"
        },
        {
          "indexed": true,
          "internalType": "uint256",
          "name": "index",
          "type": "uint256"
        },
        {
          "indexed": true,
          "internalType": "address",
          "name": "debtor",
          "type": "address"
        }
      ],
      "name": "loanSign",
      "type": "event"
    },
    {
      "inputs": [
        {
          "internalType": "address",
          "name": "owner",
          "type": "address"
        },
        {
          "internalType": "address",
          "name": "spender",
          "type": "address"
        }
      ],
      "name": "allowance",
      "outputs": [
        {
          "internalType": "uint256",
          "name": "",
          "type": "uint256"
        }
      ],
      "stateMutability": "view",
      "type": "function"
    },
    {
      "inputs": [
        {
          "internalType": "address",
          "name": "spender",
          "type": "address"
        },
        {
          "internalType": "uint256",
          "name": "amount",
          "type": "uint256"
        }
      ],
      "name": "approve",
      "outputs": [
        {
          "internalType": "bool",
          "name": "",
          "type": "bool"
        }
      ],
      "stateMutability": "nonpayable",
      "type": "function"
    },
    {
      "inputs": [
        {
          "internalType": "address",
          "name": "account",
          "type": "address"
        }
      ],
      "name": "balanceOf",
      "outputs": [
        {
          "internalType": "uint256",
          "name": "",
          "type": "uint256"
        }
      ],
      "stateMutability": "view",
      "type": "function"
    },
    {
      "inputs": [],
      "name": "decimals",
      "outputs": [
        {
          "internalType": "uint8",
          "name": "",
          "type": "uint8"
        }
      ],
      "stateMutability": "view",
      "type": "function"
    },
    {
      "inputs": [
        {
          "internalType": "address",
          "name": "spender",
          "type": "address"
        },
        {
          "internalType": "uint256",
          "name": "subtractedValue",
          "type": "uint256"
        }
      ],
      "name": "decreaseAllowance",
      "outputs": [
        {
          "internalType": "bool",
          "name": "",
          "type": "bool"
        }
      ],
      "stateMutability": "nonpayable",
      "type": "function"
    },
    {
      "inputs": [
        {
          "internalType": "address",
          "name": "spender",
          "type": "address"
        },
        {
          "internalType": "uint256",
          "name": "addedValue",
          "type": "uint256"
        }
      ],
      "name": "increaseAllowance",
      "outputs": [
        {
          "internalType": "bool",
          "name": "",
          "type": "bool"
        }
      ],
      "stateMutability": "nonpayable",
      "type": "function"
    },
    {
      "inputs": [],
      "name": "name",
      "outputs": [
        {
          "internalType": "string",
          "name": "",
          "type": "string"
        }
      ],
      "stateMutability": "view",
      "type": "function"
    },
    {
      "inputs": [],
      "name": "reserveLimit",
      "outputs": [
        {
          "internalType": "uint256",
          "name": "",
          "type": "uint256"
        }
      ],
      "stateMutability": "view",
      "type": "function"
    },
    {
      "inputs": [],
      "name": "symbol",
      "outputs": [
        {
          "internalType": "string",
          "name": "",
          "type": "string"
        }
      ],
      "stateMutability": "view",
      "type": "function"
    },
    {
      "inputs": [],
      "name": "totalCredibilityPoints",
      "outputs": [
        {
          "internalType": "uint256",
          "name": "",
          "type": "uint256"
        }
      ],
      "stateMutability": "view",
      "type": "function"
    },
    {
      "inputs": [],
      "name": "totalSupply",
      "outputs": [
        {
          "internalType": "uint256",
          "name": "",
          "type": "uint256"
        }
      ],
      "stateMutability": "view",
      "type": "function"
    },
    {
      "inputs": [
        {
          "internalType": "address",
          "name": "recipient",
          "type": "address"
        },
        {
          "internalType": "uint256",
          "name": "amount",
          "type": "uint256"
        }
      ],
      "name": "transfer",
      "outputs": [
        {
          "internalType": "bool",
          "name": "",
          "type": "bool"
        }
      ],
      "stateMutability": "nonpayable",
      "type": "function"
    },
    {
      "inputs": [
        {
          "internalType": "address",
          "name": "sender",
          "type": "address"
        },
        {
          "internalType": "address",
          "name": "recipient",
          "type": "address"
        },
        {
          "internalType": "uint256",
          "name": "amount",
          "type": "uint256"
        }
      ],
      "name": "transferFrom",
      "outputs": [
        {
          "internalType": "bool",
          "name": "",
          "type": "bool"
        }
      ],
      "stateMutability": "nonpayable",
      "type": "function"
    },
    {
      "inputs": [],
      "name": "uniswapPairAddress",
      "outputs": [
        {
          "internalType": "address",
          "name": "",
          "type": "address"
        }
      ],
      "stateMutability": "view",
      "type": "function"
    },
    {
      "inputs": [],
      "name": "daiReserve",
      "outputs": [
        {
          "internalType": "uint256",
          "name": "",
          "type": "uint256"
        }
      ],
      "stateMutability": "view",
      "type": "function"
    },
    {
      "inputs": [],
      "name": "pairObservations",
      "outputs": [
        {
          "internalType": "uint256",
          "name": "timestamp",
          "type": "uint256"
        },
        {
          "internalType": "uint256",
          "name": "price0Cumulative",
          "type": "uint256"
        },
        {
          "internalType": "uint256",
          "name": "price1Cumulative",
          "type": "uint256"
        }
      ],
      "stateMutability": "view",
      "type": "function"
    },
    {
      "inputs": [],
      "name": "getReserves",
      "outputs": [
        {
          "internalType": "uint256",
          "name": "fren",
          "type": "uint256"
        },
        {
          "internalType": "uint256",
          "name": "dai",
          "type": "uint256"
        },
        {
          "internalType": "uint256",
          "name": "last_timestamp",
          "type": "uint256"
        }
      ],
      "stateMutability": "view",
      "type": "function"
    },
    {
      "inputs": [
        {
          "internalType": "address",
          "name": "account",
          "type": "address"
        },
        {
          "internalType": "uint256",
          "name": "expiryDate",
          "type": "uint256"
        }
      ],
      "name": "timeAdjustedRR",
      "outputs": [
        {
          "internalType": "uint256",
          "name": "",
          "type": "uint256"
        }
      ],
      "stateMutability": "view",
      "type": "function"
    },
    {
      "inputs": [
        {
          "internalType": "address",
          "name": "debtor",
          "type": "address"
        },
        {
          "internalType": "uint256",
          "name": "amount",
          "type": "uint256"
        },
        {
          "internalType": "uint256",
          "name": "expiry",
          "type": "uint256"
        },
        {
          "internalType": "uint256",
          "name": "interest",
          "type": "uint256"
        }
      ],
      "name": "offerLoan",
      "outputs": [],
      "stateMutability": "nonpayable",
      "type": "function"
    },
    {
      "inputs": [
        {
          "internalType": "address",
          "name": "lendor",
          "type": "address"
        },
        {
          "internalType": "uint256",
          "name": "index",
          "type": "uint256"
        }
      ],
      "name": "signLoan",
      "outputs": [],
      "stateMutability": "nonpayable",
      "type": "function"
    },
    {
      "inputs": [
        {
          "internalType": "address",
          "name": "lendor",
          "type": "address"
        },
        {
          "internalType": "uint256",
          "name": "index",
          "type": "uint256"
        }
      ],
      "name": "repayLoan",
      "outputs": [],
      "stateMutability": "nonpayable",
      "type": "function"
    },
    {
      "inputs": [
        {
          "internalType": "address",
          "name": "holder",
          "type": "address"
        }
      ],
      "name": "assetsOf",
      "outputs": [
        {
          "internalType": "uint256",
          "name": "",
          "type": "uint256"
        }
      ],
      "stateMutability": "view",
      "type": "function"
    },
    {
      "inputs": [
        {
          "internalType": "address",
          "name": "holder",
          "type": "address"
        }
      ],
      "name": "liabilitiesOf",
      "outputs": [
        {
          "internalType": "uint256",
          "name": "",
          "type": "uint256"
        }
      ],
      "stateMutability": "view",
      "type": "function"
    }
  ],
  "bytecode": "0x60806040523480156200001157600080fd5b5060405162003edb38038062003edb833981810160405260a08110156200003757600080fd5b8101908080519060200190929190805190602001909291908051906020019092919080519060200190929190805190602001909291905050506040518060400160405280602081526020017f4665646572616c20526573657276652045766572796f6e65204e6574776f726b8152506040518060400160405280600481526020017f4652454e000000000000000000000000000000000000000000000000000000008152508160039080519060200190620000f492919062000b67565b5080600490805190602001906200010d92919062000b67565b506012600560006101000a81548160ff021916908360ff1602179055505050600160068190555083600760006101000a81548173ffffffffffffffffffffffffffffffffffffffff021916908373ffffffffffffffffffffffffffffffffffffffff16021790555082600860006101000a81548173ffffffffffffffffffffffffffffffffffffffff021916908373ffffffffffffffffffffffffffffffffffffffff160217905550600860009054906101000a900473ffffffffffffffffffffffffffffffffffffffff1673ffffffffffffffffffffffffffffffffffffffff1663c9c6539685306040518363ffffffff1660e01b8152600401808373ffffffffffffffffffffffffffffffffffffffff1681526020018273ffffffffffffffffffffffffffffffffffffffff16815260200192505050602060405180830381600087803b1580156200026057600080fd5b505af115801562000275573d6000803e3d6000fd5b505050506040513d60208110156200028c57600080fd5b8101908080519060200190929190505050600b60006101000a81548173ffffffffffffffffffffffffffffffffffffffff021916908373ffffffffffffffffffffffffffffffffffffffff16021790555080600a60006101000a81548173ffffffffffffffffffffffffffffffffffffffff021916908373ffffffffffffffffffffffffffffffffffffffff1602179055506200033033866200039660201b60201c565b6200035a620003496200057460201b62000bce1760201c565b6200058b60201b62001fbb1760201c565b62000384620003736200057460201b62000bce1760201c565b6200058b60201b62001fbb1760201c565b03600c81905550505050505062000c0d565b600073ffffffffffffffffffffffffffffffffffffffff168273ffffffffffffffffffffffffffffffffffffffff1614156200043a576040517f08c379a000000000000000000000000000000000000000000000000000000000815260040180806020018281038252601f8152602001807f45524332303a206d696e7420746f20746865207a65726f20616464726573730081525060200191505060405180910390fd5b6200044e600083836200061660201b60201c565b6200046a816002546200066160201b620020451790919060201c565b600281905550620004c8816000808573ffffffffffffffffffffffffffffffffffffffff1673ffffffffffffffffffffffffffffffffffffffff168152602001908152602001600020546200066160201b620020451790919060201c565b6000808473ffffffffffffffffffffffffffffffffffffffff1673ffffffffffffffffffffffffffffffffffffffff168152602001908152602001600020819055508173ffffffffffffffffffffffffffffffffffffffff16600073ffffffffffffffffffffffffffffffffffffffff167fddf252ad1be2c89b69c2b068fc378daa952ba7f163c4a11628f55a4df523b3ef836040518082815260200191505060405180910390a35050565b6000600560009054906101000a900460ff16905090565b6000604d8260ff16111562000608576040517f08c379a00000000000000000000000000000000000000000000000000000000081526004018080602001828103825260118152602001807f546f6f206d616e7920646563696d616c7300000000000000000000000000000081525060200191505060405180910390fd5b8160ff16600a0a9050919050565b600073ffffffffffffffffffffffffffffffffffffffff168373ffffffffffffffffffffffffffffffffffffffff16146200065c576200065b620006ea60201b60201c565b5b505050565b600080828401905083811015620006e0576040517f08c379a000000000000000000000000000000000000000000000000000000000815260040180806020018281038252601b8152602001807f536166654d6174683a206164646974696f6e206f766572666c6f77000000000081525060200191505060405180910390fd5b8091505092915050565b6000600a60009054906101000a900473ffffffffffffffffffffffffffffffffffffffff1673ffffffffffffffffffffffffffffffffffffffff1663dbaad32f426040518263ffffffff1660e01b81526004018082815260200191505060206040518083038186803b1580156200076057600080fd5b505afa15801562000775573d6000803e3d6000fd5b505050506040513d60208110156200078c57600080fd5b8101908080519060200190929190505050905060018160ff1611620007b2575062000817565b6000620007de620007cd6200057460201b62000bce1760201c565b6200058b60201b62001fbb1760201c565b9050600062000811826200080084600c546200081960201b620020cd1760201c565b6200083d60201b620020ea1760201c565b90505050505b565b60006200083582846200085b60201b620021001790919060201c565b905092915050565b60006200085383836012620008ad60201b60201c565b905092915050565b6000620008a583836040518060400160405280601e81526020017f536166654d6174683a207375627472616374696f6e206f766572666c6f770000815250620008fb60201b60201c565b905092915050565b6000620008f283620008de620008c9856200058b60201b60201c565b87620009bf60201b620021671790919060201c565b62000a4a60201b620021ed1790919060201c565b90509392505050565b6000838311158290620009ac576040517f08c379a00000000000000000000000000000000000000000000000000000000081526004018080602001828103825283818151815260200191508051906020019080838360005b838110156200097057808201518184015260208101905062000953565b50505050905090810190601f1680156200099e5780820380516001836020036101000a031916815260200191505b509250505060405180910390fd5b5060008385039050809150509392505050565b600080831415620009d4576000905062000a44565b6000828402905082848281620009e657fe5b041462000a3f576040517f08c379a000000000000000000000000000000000000000000000000000000000815260040180806020018281038252602181526020018062003eba6021913960400191505060405180910390fd5b809150505b92915050565b600062000a9483836040518060400160405280601a81526020017f536166654d6174683a206469766973696f6e206279207a65726f00000000000081525062000a9c60201b60201c565b905092915050565b6000808311829062000b4c576040517f08c379a00000000000000000000000000000000000000000000000000000000081526004018080602001828103825283818151815260200191508051906020019080838360005b8381101562000b1057808201518184015260208101905062000af3565b50505050905090810190601f16801562000b3e5780820380516001836020036101000a031916815260200191505b509250505060405180910390fd5b50600083858162000b5957fe5b049050809150509392505050565b828054600181600116156101000203166002900490600052602060002090601f016020900481019282601f1062000baa57805160ff191683800117855562000bdb565b8280016001018555821562000bdb579182015b8281111562000bda57825182559160200191906001019062000bbd565b5b50905062000bea919062000bee565b5090565b5b8082111562000c0957600081600090555060010162000bef565b5090565b61329d8062000c1d6000396000f3fe608060405234801561001057600080fd5b506004361061014d5760003560e01c806370a08231116100c3578063a9059cbb1161007c578063a9059cbb146106c9578063bca48c081461072d578063bd3733fe1461077b578063dd62ed3e146107af578063dde8afaf14610827578063e2771ec8146108535761014d565b806370a082311461048257806381d5660c146104da5780638638110e1461053c57806393a595f51461059457806395d89b41146105e2578063a457c2d7146106655761014d565b806323b872dd1161011557806323b872dd146102a15780632c62fa1014610325578063313ce5671461037d578063395093511461039e57806339cdcd0f1461040257806353f6d07d146104205761014d565b806306fdde03146101525780630902f1ac146101d5578063095ea7b31461020157806318160ddd1461026557806321e7345e14610283575b600080fd5b61015a610871565b6040518080602001828103825283818151815260200191508051906020019080838360005b8381101561019a57808201518184015260208101905061017f565b50505050905090810190601f1680156101c75780820380516001836020036101000a031916815260200191505b509250505060405180910390f35b6101dd610913565b60405180848152602001838152602001828152602001935050505060405180910390f35b61024d6004803603604081101561021757600080fd5b81019080803573ffffffffffffffffffffffffffffffffffffffff16906020019092919080359060200190929190505050610a3c565b60405180821515815260200191505060405180910390f35b61026d610a5a565b6040518082815260200191505060405180910390f35b61028b610a64565b6040518082815260200191505060405180910390f35b61030d600480360360608110156102b757600080fd5b81019080803573ffffffffffffffffffffffffffffffffffffffff169060200190929190803573ffffffffffffffffffffffffffffffffffffffff16906020019092919080359060200190929190505050610a6a565b60405180821515815260200191505060405180910390f35b6103676004803603602081101561033b57600080fd5b81019080803573ffffffffffffffffffffffffffffffffffffffff169060200190929190505050610b43565b6040518082815260200191505060405180910390f35b610385610bce565b604051808260ff16815260200191505060405180910390f35b6103ea600480360360408110156103b457600080fd5b81019080803573ffffffffffffffffffffffffffffffffffffffff16906020019092919080359060200190929190505050610be5565b60405180821515815260200191505060405180910390f35b61040a610c98565b6040518082815260200191505060405180910390f35b61046c6004803603604081101561043657600080fd5b81019080803573ffffffffffffffffffffffffffffffffffffffff16906020019092919080359060200190929190505050610c9e565b6040518082815260200191505060405180910390f35b6104c46004803603602081101561049857600080fd5b81019080803573ffffffffffffffffffffffffffffffffffffffff169060200190929190505050610d74565b6040518082815260200191505060405180910390f35b61053a600480360360808110156104f057600080fd5b81019080803573ffffffffffffffffffffffffffffffffffffffff169060200190929190803590602001909291908035906020019092919080359060200190929190505050610dbc565b005b61057e6004803603602081101561055257600080fd5b81019080803573ffffffffffffffffffffffffffffffffffffffff16906020019092919050505061128d565b6040518082815260200191505060405180910390f35b6105e0600480360360408110156105aa57600080fd5b81019080803573ffffffffffffffffffffffffffffffffffffffff16906020019092919080359060200190929190505050611318565b005b6105ea61162b565b6040518080602001828103825283818151815260200191508051906020019080838360005b8381101561062a57808201518184015260208101905061060f565b50505050905090810190601f1680156106575780820380516001836020036101000a031916815260200191505b509250505060405180910390f35b6106b16004803603604081101561067b57600080fd5b81019080803573ffffffffffffffffffffffffffffffffffffffff169060200190929190803590602001909291905050506116cd565b60405180821515815260200191505060405180910390f35b610715600480360360408110156106df57600080fd5b81019080803573ffffffffffffffffffffffffffffffffffffffff1690602001909291908035906020019092919050505061179a565b60405180821515815260200191505060405180910390f35b6107796004803603604081101561074357600080fd5b81019080803573ffffffffffffffffffffffffffffffffffffffff169060200190929190803590602001909291905050506117b8565b005b610783611c6b565b604051808273ffffffffffffffffffffffffffffffffffffffff16815260200191505060405180910390f35b610811600480360360408110156107c557600080fd5b81019080803573ffffffffffffffffffffffffffffffffffffffff169060200190929190803573ffffffffffffffffffffffffffffffffffffffff169060200190929190505050611c91565b6040518082815260200191505060405180910390f35b61082f611d18565b60405180848152602001838152602001828152602001935050505060405180910390f35b61085b611ef0565b6040518082815260200191505060405180910390f35b606060038054600181600116156101000203166002900480601f0160208091040260200160405190810160405280929190818152602001828054600181600116156101000203166002900480156109095780601f106108de57610100808354040283529160200191610909565b820191906000526020600020905b8154815290600101906020018083116108ec57829003601f168201915b5050505050905090565b60008060008060008061096b600860009054906101000a900473ffffffffffffffffffffffffffffffffffffffff16600760009054906101000a900473ffffffffffffffffffffffffffffffffffffffff1630612237565b73ffffffffffffffffffffffffffffffffffffffff16630902f1ac6040518163ffffffff1660e01b815260040160606040518083038186803b1580156109b057600080fd5b505afa1580156109c4573d6000803e3d6000fd5b505050506040513d60608110156109da57600080fd5b8101908080519060200190929190805190602001909291908051906020019092919050505063ffffffff1692506dffffffffffffffffffffffffffff1692506dffffffffffffffffffffffffffff169250828282955095509550505050909192565b6000610a50610a49612350565b8484612358565b6001905092915050565b6000600254905090565b600c5481565b6000610a7784848461254f565b610b3884610a83612350565b610b338560405180606001604052806028815260200161318a60289139600160008b73ffffffffffffffffffffffffffffffffffffffff1673ffffffffffffffffffffffffffffffffffffffff1681526020019081526020016000206000610ae9612350565b73ffffffffffffffffffffffffffffffffffffffff1673ffffffffffffffffffffffffffffffffffffffff168152602001908152602001600020546128109092919063ffffffff16565b612358565b600190509392505050565b6000610b4d613056565b600e60008473ffffffffffffffffffffffffffffffffffffffff1673ffffffffffffffffffffffffffffffffffffffff16815260200190815260200160002060405180608001604052908160008201548152602001600182015481526020016002820154815260200160038201548152505090508060200151915050919050565b6000600560009054906101000a900460ff16905090565b6000610c8e610bf2612350565b84610c898560016000610c03612350565b73ffffffffffffffffffffffffffffffffffffffff1673ffffffffffffffffffffffffffffffffffffffff16815260200190815260200160002060008973ffffffffffffffffffffffffffffffffffffffff1673ffffffffffffffffffffffffffffffffffffffff1681526020019081526020016000205461204590919063ffffffff16565b612358565b6001905092915050565b600d5481565b6000610ca8613056565b600e60008573ffffffffffffffffffffffffffffffffffffffff1673ffffffffffffffffffffffffffffffffffffffff16815260200190815260200160002060405180608001604052908160008201548152602001600182015481526020016002820154815260200160038201548152505090506000428403905060006201518090506000818381610d3657fe5b04905061016d811015610d6457600061016d600c5481610d5257fe5b04905080820295505050505050610d6e565b600c549450505050505b92915050565b60008060008373ffffffffffffffffffffffffffffffffffffffff1673ffffffffffffffffffffffffffffffffffffffff168152602001908152602001600020549050919050565b338383610dc7613056565b600e60008573ffffffffffffffffffffffffffffffffffffffff1673ffffffffffffffffffffffffffffffffffffffff16815260200190815260200160002060405180608001604052908160008201548152602001600182015481526020016002820154815260200160038201548152505090506000610e4685610d74565b9050600073__Helpers_______________________________622c1a9e868560400151018460126040518463ffffffff1660e01b815260040180848152602001838152602001828152602001935050505060206040518083038186803b158015610eaf57600080fd5b505af4158015610ec3573d6000803e3d6000fd5b505050506040513d6020811015610ed957600080fd5b81019080805190602001909291905050509050610ef68685610c9e565b811115610f4e576040517f08c379a00000000000000000000000000000000000000000000000000000000081526004018080602001828103825260278152602001806131b26027913960400191505060405180910390fd5b6201518042890311610fc8576040517f08c379a000000000000000000000000000000000000000000000000000000000815260040180806020018281038252601c8152602001807f6c6f616e73206d757374206265206174206c656173742061203234680000000081525060200191505060405180910390fd5b610fd061307e565b6040518060c001604052808b81526020018a815260200160001515815260200142815260200160008152602001898152509050600f60003373ffffffffffffffffffffffffffffffffffffffff1673ffffffffffffffffffffffffffffffffffffffff16815260200190815260200160002060008c73ffffffffffffffffffffffffffffffffffffffff1673ffffffffffffffffffffffffffffffffffffffff168152602001908152602001600020819080600181540180825580915050600190039060005260206000209060060201600090919091909150600082015181600001556020820151816001015560408201518160020160006101000a81548160ff021916908315150217905550606082015181600301556080820151816004015560a0820151816005015550506000600f60003373ffffffffffffffffffffffffffffffffffffffff1673ffffffffffffffffffffffffffffffffffffffff16815260200190815260200160002060008d73ffffffffffffffffffffffffffffffffffffffff1673ffffffffffffffffffffffffffffffffffffffff168152602001908152602001600020805490509050601060003373ffffffffffffffffffffffffffffffffffffffff1673ffffffffffffffffffffffffffffffffffffffff16815260200190815260200160002060008d73ffffffffffffffffffffffffffffffffffffffff1673ffffffffffffffffffffffffffffffffffffffff1681526020019081526020016000208190806001815401808255809150506001900390600052602060002001600090919091909150558b73ffffffffffffffffffffffffffffffffffffffff16813373ffffffffffffffffffffffffffffffffffffffff167f70c9e256e5590a7520512b88293528b2c0c7ecf3c36695181926988987156b6760405160405180910390a4505050505050505050505050565b6000611297613056565b600e60008473ffffffffffffffffffffffffffffffffffffffff1673ffffffffffffffffffffffffffffffffffffffff16815260200190815260200160002060405180608001604052908160008201548152602001600182015481526020016002820154815260200160038201548152505090508060400151915050919050565b6000600f60008473ffffffffffffffffffffffffffffffffffffffff1673ffffffffffffffffffffffffffffffffffffffff16815260200190815260200160002060003373ffffffffffffffffffffffffffffffffffffffff1673ffffffffffffffffffffffffffffffffffffffff16815260200190815260200160002060018303815481106113a457fe5b906000526020600020906006020190506000600e60003373ffffffffffffffffffffffffffffffffffffffff1673ffffffffffffffffffffffffffffffffffffffff1681526020019081526020016000209050600061140233610d74565b90506000600e60008773ffffffffffffffffffffffffffffffffffffffff1673ffffffffffffffffffffffffffffffffffffffff168152602001908152602001600020905083600501548460000154018210156114c7576040517f08c379a00000000000000000000000000000000000000000000000000000000081526004018080602001828103825260118152602001807f696e737566666963656e742066756e647300000000000000000000000000000081525060200191505060405180910390fd5b6114d63387866005015461254f565b6114e43385600001546128d0565b6115058460050154856000015401846002015461210090919063ffffffff16565b506115278460050154856000015401846000015461204590919063ffffffff16565b506115478460050154856000015401600d5461204590919063ffffffff16565b506115698460050154856000015401826001015461210090919063ffffffff16565b506115858460000154826002015461210090919063ffffffff16565b506115a78460050154856000015401826000015461204590919063ffffffff16565b506115c78460050154856000015401600d5461204590919063ffffffff16565b503373ffffffffffffffffffffffffffffffffffffffff16858773ffffffffffffffffffffffffffffffffffffffff167ff57cc7f3bb20dfe97a6041fbb06abb7613a11ca4a5f4a3a5466d43356e6b631760405160405180910390a4505050505050565b606060048054600181600116156101000203166002900480601f0160208091040260200160405190810160405280929190818152602001828054600181600116156101000203166002900480156116c35780601f10611698576101008083540402835291602001916116c3565b820191906000526020600020905b8154815290600101906020018083116116a657829003601f168201915b5050505050905090565b60006117906116da612350565b8461178b856040518060600160405280602581526020016132436025913960016000611704612350565b73ffffffffffffffffffffffffffffffffffffffff1673ffffffffffffffffffffffffffffffffffffffff16815260200190815260200160002060008a73ffffffffffffffffffffffffffffffffffffffff1673ffffffffffffffffffffffffffffffffffffffff168152602001908152602001600020546128109092919063ffffffff16565b612358565b6001905092915050565b60006117ae6117a7612350565b848461254f565b6001905092915050565b81600f60008473ffffffffffffffffffffffffffffffffffffffff1673ffffffffffffffffffffffffffffffffffffffff16815260200190815260200160002060003373ffffffffffffffffffffffffffffffffffffffff1673ffffffffffffffffffffffffffffffffffffffff168152602001908152602001600020600183038154811061184357fe5b90600052602060002090600602016000015461185d613056565b600e60008473ffffffffffffffffffffffffffffffffffffffff1673ffffffffffffffffffffffffffffffffffffffff168152602001908152602001600020604051806080016040529081600082015481526020016001820154815260200160028201548152602001600382015481525050905060006118e38260000151600d546120ea565b905060006118f085610d74565b9050600061190485856040015101836120ea565b9050600061191484600c54612a94565b90508082111561196f576040517f08c379a00000000000000000000000000000000000000000000000000000000081526004018080602001828103825260278152602001806131b26027913960400191505060405180910390fd5b6000600f60008b73ffffffffffffffffffffffffffffffffffffffff1673ffffffffffffffffffffffffffffffffffffffff16815260200190815260200160002060003373ffffffffffffffffffffffffffffffffffffffff1673ffffffffffffffffffffffffffffffffffffffff16815260200190815260200160002060018a03815481106119fb57fe5b906000526020600020906006020190506000600e60008c73ffffffffffffffffffffffffffffffffffffffff1673ffffffffffffffffffffffffffffffffffffffff16815260200190815260200160002090506000600e60003373ffffffffffffffffffffffffffffffffffffffff1673ffffffffffffffffffffffffffffffffffffffff1681526020019081526020016000209050611ab28360050154846000015401826002015461204590919063ffffffff16565b50611ad48360050154846000015401836001015461204590919063ffffffff16565b508260000154826002016000828254019250508190555060018360020160006101000a81548160ff021916908315150217905550428360030181905550611b1f338460000154612aaa565b600a60009054906101000a900473ffffffffffffffffffffffffffffffffffffffff1673ffffffffffffffffffffffffffffffffffffffff1663c640752d600760009054906101000a900473ffffffffffffffffffffffffffffffffffffffff16306040518363ffffffff1660e01b8152600401808373ffffffffffffffffffffffffffffffffffffffff1681526020018273ffffffffffffffffffffffffffffffffffffffff16815260200192505050600060405180830381600087803b158015611bea57600080fd5b505af1158015611bfe573d6000803e3d6000fd5b505050503373ffffffffffffffffffffffffffffffffffffffff168b8d73ffffffffffffffffffffffffffffffffffffffff167fe3b3cffda5a20d9b3256be3959f9e5a53f9fb69d3bb028f5239a0e034c7a5ae360405160405180910390a4505050505050505050505050565b600b60009054906101000a900473ffffffffffffffffffffffffffffffffffffffff1681565b6000600160008473ffffffffffffffffffffffffffffffffffffffff1673ffffffffffffffffffffffffffffffffffffffff16815260200190815260200160002060008373ffffffffffffffffffffffffffffffffffffffff1673ffffffffffffffffffffffffffffffffffffffff16815260200190815260200160002054905092915050565b600080600080600a60009054906101000a900473ffffffffffffffffffffffffffffffffffffffff1673ffffffffffffffffffffffffffffffffffffffff1663dbaad32f426040518263ffffffff1660e01b81526004018082815260200191505060206040518083038186803b158015611d9157600080fd5b505afa158015611da5573d6000803e3d6000fd5b505050506040513d6020811015611dbb57600080fd5b810190808051906020019092919050505090506000806000600a60009054906101000a900473ffffffffffffffffffffffffffffffffffffffff1673ffffffffffffffffffffffffffffffffffffffff16634fbf73d9600b60009054906101000a900473ffffffffffffffffffffffffffffffffffffffff16866040518363ffffffff1660e01b8152600401808373ffffffffffffffffffffffffffffffffffffffff1681526020018260ff1681526020019250505060606040518083038186803b158015611e8957600080fd5b505afa158015611e9d573d6000803e3d6000fd5b505050506040513d6060811015611eb357600080fd5b8101908080519060200190929190805190602001909291908051906020019092919050505092509250925082828296509650965050505050909192565b6000600760009054906101000a900473ffffffffffffffffffffffffffffffffffffffff1673ffffffffffffffffffffffffffffffffffffffff166370a08231306040518263ffffffff1660e01b8152600401808273ffffffffffffffffffffffffffffffffffffffff16815260200191505060206040518083038186803b158015611f7b57600080fd5b505afa158015611f8f573d6000803e3d6000fd5b505050506040513d6020811015611fa557600080fd5b8101908080519060200190929190505050905090565b6000604d8260ff161115612037576040517f08c379a00000000000000000000000000000000000000000000000000000000081526004018080602001828103825260118152602001807f546f6f206d616e7920646563696d616c7300000000000000000000000000000081525060200191505060405180910390fd5b8160ff16600a0a9050919050565b6000808284019050838110156120c3576040517f08c379a000000000000000000000000000000000000000000000000000000000815260040180806020018281038252601b8152602001807f536166654d6174683a206164646974696f6e206f766572666c6f77000000000081525060200191505060405180910390fd5b8091505092915050565b60006120e2828461210090919063ffffffff16565b905092915050565b60006120f883836012612c71565b905092915050565b600061214283836040518060400160405280601e81526020017f536166654d6174683a207375627472616374696f6e206f766572666c6f770000815250612810565b905092915050565b600061215f828461204590919063ffffffff16565b905092915050565b60008083141561217a57600090506121e7565b600082840290508284828161218b57fe5b04146121e2576040517f08c379a00000000000000000000000000000000000000000000000000000000081526004018080602001828103825260218152602001806131696021913960400191505060405180910390fd5b809150505b92915050565b600061222f83836040518060400160405280601a81526020017f536166654d6174683a206469766973696f6e206279207a65726f000000000000815250612ca9565b905092915050565b60008060006122468585612d6f565b91509150858282604051602001808373ffffffffffffffffffffffffffffffffffffffff1660601b81526014018273ffffffffffffffffffffffffffffffffffffffff1660601b8152601401925050506040516020818303038152906040528051906020012060405160200180807fff000000000000000000000000000000000000000000000000000000000000008152506001018373ffffffffffffffffffffffffffffffffffffffff1660601b8152601401828152602001807f96e8ac4277198ff8b6f785478aa9a39f403cb768dd02cbee326c3e7da348845f815250602001925050506040516020818303038152906040528051906020012060001c925050509392505050565b600033905090565b600073ffffffffffffffffffffffffffffffffffffffff168373ffffffffffffffffffffffffffffffffffffffff1614156123de576040517f08c379a000000000000000000000000000000000000000000000000000000000815260040180806020018281038252602481526020018061321f6024913960400191505060405180910390fd5b600073ffffffffffffffffffffffffffffffffffffffff168273ffffffffffffffffffffffffffffffffffffffff161415612464576040517f08c379a00000000000000000000000000000000000000000000000000000000081526004018080602001828103825260228152602001806130fc6022913960400191505060405180910390fd5b80600160008573ffffffffffffffffffffffffffffffffffffffff1673ffffffffffffffffffffffffffffffffffffffff16815260200190815260200160002060008473ffffffffffffffffffffffffffffffffffffffff1673ffffffffffffffffffffffffffffffffffffffff168152602001908152602001600020819055508173ffffffffffffffffffffffffffffffffffffffff168373ffffffffffffffffffffffffffffffffffffffff167f8c5be1e5ebec7d5bd14f71427d1e84f3dd0314c0f7b2291e5b200ac8c7c3b925836040518082815260200191505060405180910390a3505050565b600073ffffffffffffffffffffffffffffffffffffffff168373ffffffffffffffffffffffffffffffffffffffff1614156125d5576040517f08c379a00000000000000000000000000000000000000000000000000000000081526004018080602001828103825260258152602001806131fa6025913960400191505060405180910390fd5b600073ffffffffffffffffffffffffffffffffffffffff168273ffffffffffffffffffffffffffffffffffffffff16141561265b576040517f08c379a00000000000000000000000000000000000000000000000000000000081526004018080602001828103825260238152602001806130b76023913960400191505060405180910390fd5b612666838383612ee6565b6126d18160405180606001604052806026815260200161311e602691396000808773ffffffffffffffffffffffffffffffffffffffff1673ffffffffffffffffffffffffffffffffffffffff168152602001908152602001600020546128109092919063ffffffff16565b6000808573ffffffffffffffffffffffffffffffffffffffff1673ffffffffffffffffffffffffffffffffffffffff16815260200190815260200160002081905550612764816000808573ffffffffffffffffffffffffffffffffffffffff1673ffffffffffffffffffffffffffffffffffffffff1681526020019081526020016000205461204590919063ffffffff16565b6000808473ffffffffffffffffffffffffffffffffffffffff1673ffffffffffffffffffffffffffffffffffffffff168152602001908152602001600020819055508173ffffffffffffffffffffffffffffffffffffffff168373ffffffffffffffffffffffffffffffffffffffff167fddf252ad1be2c89b69c2b068fc378daa952ba7f163c4a11628f55a4df523b3ef836040518082815260200191505060405180910390a3505050565b60008383111582906128bd576040517f08c379a00000000000000000000000000000000000000000000000000000000081526004018080602001828103825283818151815260200191508051906020019080838360005b83811015612882578082015181840152602081019050612867565b50505050905090810190601f1680156128af5780820380516001836020036101000a031916815260200191505b509250505060405180910390fd5b5060008385039050809150509392505050565b600073ffffffffffffffffffffffffffffffffffffffff168273ffffffffffffffffffffffffffffffffffffffff161415612956576040517f08c379a00000000000000000000000000000000000000000000000000000000081526004018080602001828103825260218152602001806131d96021913960400191505060405180910390fd5b61296282600083612ee6565b6129cd816040518060600160405280602281526020016130da602291396000808673ffffffffffffffffffffffffffffffffffffffff1673ffffffffffffffffffffffffffffffffffffffff168152602001908152602001600020546128109092919063ffffffff16565b6000808473ffffffffffffffffffffffffffffffffffffffff1673ffffffffffffffffffffffffffffffffffffffff16815260200190815260200160002081905550612a248160025461210090919063ffffffff16565b600281905550600073ffffffffffffffffffffffffffffffffffffffff168273ffffffffffffffffffffffffffffffffffffffff167fddf252ad1be2c89b69c2b068fc378daa952ba7f163c4a11628f55a4df523b3ef836040518082815260200191505060405180910390a35050565b6000612aa283836012612f28565b905092915050565b600073ffffffffffffffffffffffffffffffffffffffff168273ffffffffffffffffffffffffffffffffffffffff161415612b4d576040517f08c379a000000000000000000000000000000000000000000000000000000000815260040180806020018281038252601f8152602001807f45524332303a206d696e7420746f20746865207a65726f20616464726573730081525060200191505060405180910390fd5b612b5960008383612ee6565b612b6e8160025461204590919063ffffffff16565b600281905550612bc5816000808573ffffffffffffffffffffffffffffffffffffffff1673ffffffffffffffffffffffffffffffffffffffff1681526020019081526020016000205461204590919063ffffffff16565b6000808473ffffffffffffffffffffffffffffffffffffffff1673ffffffffffffffffffffffffffffffffffffffff168152602001908152602001600020819055508173ffffffffffffffffffffffffffffffffffffffff16600073ffffffffffffffffffffffffffffffffffffffff167fddf252ad1be2c89b69c2b068fc378daa952ba7f163c4a11628f55a4df523b3ef836040518082815260200191505060405180910390a35050565b6000612ca083612c92612c8385611fbb565b8761216790919063ffffffff16565b6121ed90919063ffffffff16565b90509392505050565b60008083118290612d55576040517f08c379a00000000000000000000000000000000000000000000000000000000081526004018080602001828103825283818151815260200191508051906020019080838360005b83811015612d1a578082015181840152602081019050612cff565b50505050905090810190601f168015612d475780820380516001836020036101000a031916815260200191505b509250505060405180910390fd5b506000838581612d6157fe5b049050809150509392505050565b6000808273ffffffffffffffffffffffffffffffffffffffff168473ffffffffffffffffffffffffffffffffffffffff161415612df7576040517f08c379a00000000000000000000000000000000000000000000000000000000081526004018080602001828103825260258152602001806131446025913960400191505060405180910390fd5b8273ffffffffffffffffffffffffffffffffffffffff168473ffffffffffffffffffffffffffffffffffffffff1610612e31578284612e34565b83835b8092508193505050600073ffffffffffffffffffffffffffffffffffffffff168273ffffffffffffffffffffffffffffffffffffffff161415612edf576040517f08c379a000000000000000000000000000000000000000000000000000000000815260040180806020018281038252601e8152602001807f556e697377617056324c6962726172793a205a45524f5f41444452455353000081525060200191505060405180910390fd5b9250929050565b600073ffffffffffffffffffffffffffffffffffffffff168373ffffffffffffffffffffffffffffffffffffffff1614612f2357612f22612f60565b5b505050565b6000612f57612f3683611fbb565b612f49858761216790919063ffffffff16565b6121ed90919063ffffffff16565b90509392505050565b6000600a60009054906101000a900473ffffffffffffffffffffffffffffffffffffffff1673ffffffffffffffffffffffffffffffffffffffff1663dbaad32f426040518263ffffffff1660e01b81526004018082815260200191505060206040518083038186803b158015612fd557600080fd5b505afa158015612fe9573d6000803e3d6000fd5b505050506040513d6020811015612fff57600080fd5b8101908080519060200190929190505050905060018160ff16116130235750613054565b6000613035613030610bce565b611fbb565b9050600061304e8261304984600c546120cd565b6120ea565b90505050505b565b6040518060800160405280600081526020016000815260200160008152602001600081525090565b6040518060c001604052806000815260200160008152602001600015158152602001600081526020016000815260200160008152509056fe45524332303a207472616e7366657220746f20746865207a65726f206164647265737345524332303a206275726e20616d6f756e7420657863656564732062616c616e636545524332303a20617070726f766520746f20746865207a65726f206164647265737345524332303a207472616e7366657220616d6f756e7420657863656564732062616c616e6365556e697377617056324c6962726172793a204944454e544943414c5f414444524553534553536166654d6174683a206d756c7469706c69636174696f6e206f766572666c6f7745524332303a207472616e7366657220616d6f756e74206578636565647320616c6c6f77616e636561706f6c6f676965732c207265736572766520726571756972656d656e7420657863656564656445524332303a206275726e2066726f6d20746865207a65726f206164647265737345524332303a207472616e736665722066726f6d20746865207a65726f206164647265737345524332303a20617070726f76652066726f6d20746865207a65726f206164647265737345524332303a2064656372656173656420616c6c6f77616e63652062656c6f77207a65726fa26469706673582212208b54034478b1db13104feecf9b7e3cdaac3dcfd282e566d44d2ced2d2242075c64736f6c63430007010033536166654d6174683a206d756c7469706c69636174696f6e206f766572666c6f77",
  "immutableReferences": {},
  "source": "pragma solidity ^0.7.1;\n\nimport '@openzeppelin/contracts/token/ERC20/ERC20.sol';\nimport '@openzeppelin/contracts/math/SafeMath.sol';\nimport '@openzeppelin/contracts/utils/ReentrancyGuard.sol';\n\nimport './Helpers.sol';\nimport './DecimalMath.sol';\nimport * as Stub from './Stub.sol';\n\ncontract FREN is ERC20, ReentrancyGuard {\n  using SafeMath for uint256;\n  \n  /* Integrations\n  *\n  *\n  */\n  Stub.sDaiToken daiToken;\n  Stub.sUniswapV2Factory uniswapV2Factory;\n  Stub.sUniswapV2Router02 uniswapV2Router02;\n  Stub.sSlidingWindowOracle slidingWindowOracle;\n  address public uniswapPairAddress;\n  \n  /* State\n  *\n  *\n  */\n\n  // an account may not loan past (Assets / Liabilities)*(credibilityPoints/TotalCredibilityPoints)\n  // this is their share of money printing, a proportion of the global reserve requirement whose size is based on being atop the leaderboard\n  // is fixed point with 18 decimals\n  uint public reserveLimit;\n  uint public totalCredibilityPoints;\n\n  struct Account {\n    uint256 credibilityPoints;\n    //uint256 newAccountOutflowRestrictor;\n    uint256 assets;\n    uint256 liabilities;\n    uint256 outstandingInterest;\n  }\n  mapping (address => Account) _accounts;\n\n  struct Loan {\n    uint256 principle;\n    uint256 expiry;\n    bool isApproved;\n    uint256 signedAt;\n    uint256 createdAt;\n    uint256 interest;\n  }\n  // _loans[lendor][debtor]\n  mapping (address => mapping (address => Loan[])) _loans;\n  mapping (address => mapping (address => uint256[])) _loanIndicies;\n\n  /* Events\n  *\n  *\n  */\n  event loanOffer(\n    address indexed lendor,\n    uint256 indexed index,\n    address indexed debtor\n  );\n\n  event loanSign(\n    address indexed lendor,\n    uint256 indexed index,\n    address indexed debtor\n  );\n\n  event loanRepaid(\n    address indexed lendor,\n    uint256 indexed index,\n    address indexed debtor\n  );\n\n  /* Constructor\n  *\n  */\n  constructor(\n    uint256 initialAmount,\n    address daiAddress,\n    address uniswapV2FactoryAddress,\n    address uniswapV2Router02Address,\n    address slidingWindowOracleAddress\n  )\n  ERC20(\n    'Federal Reserve Everyone Network',\n    'FREN'\n  )\n  {\n    daiToken = Stub.sDaiToken(daiAddress);\n    uniswapV2Factory = Stub.sUniswapV2Factory(uniswapV2FactoryAddress);\n    uniswapPairAddress = uniswapV2Factory.createPair(daiAddress, address(this));\n    slidingWindowOracle = Stub.sSlidingWindowOracle(slidingWindowOracleAddress);\n    _mint(msg.sender, initialAmount);\n    reserveLimit = DecimalMath.unit(ERC20.decimals()) - DecimalMath.unit(ERC20.decimals());\n\n  }\n\n  /*\n  * Overrides\n  */\n\n function _beforeTokenTransfer(\n   address from,\n   address to,\n   uint256 amount\n ) internal virtual override {\n   if (from != address(0))  {\n      update();\n   }\n }\n\n  function daiReserve() public view returns (uint256){\n    return daiToken.balanceOf(address(this));\n  }\n\n  function pairObservations() external view returns (uint256 timestamp, uint256 price0Cumulative, uint256 price1Cumulative) {\n    // the pairIndexs are populated with data that doesn't exist, empty push, i should make a push to uniswap :)\n    uint8 pairIndex = slidingWindowOracle.observationIndexOf(block.timestamp);\n    (\n      uint256 timestamp_t_1,\n      uint256 fren_t_1,\n      uint256 dai_t_1\n    ) = slidingWindowOracle.pairObservations(uniswapPairAddress, pairIndex);\n    return (timestamp_t_1, fren_t_1, dai_t_1);\n  }\n\n  /* Reserve req Mod\n  *\n  */\n\n  function update() internal {\n    uint8 pairIndex = slidingWindowOracle.observationIndexOf(block.timestamp);\n    if (pairIndex <= 1) {\n      //slidingWindowOracle.update(address(this), address(daiToken));\n      return;\n    }\n    uint unity = DecimalMath.unit(ERC20.decimals());\n    /* M = 1 / RR \n       M = 1 / ( 1 - RL)\n    */\n \n    uint reserveMultiplier_t_0 = DecimalMath.divd(\n      unity,\n      DecimalMath.subd(\n        unity,\n        reserveLimit\n      )\n    );\n    \n    return;\n    (\n      uint256 timestamp_t_1,\n      uint256 fren_t_1,\n      uint256 dai_t_1\n    ) = slidingWindowOracle.pairObservations(uniswapPairAddress, pairIndex);\n\n    (\n      uint timestamp_t_0,\n      uint fren_t_0,\n      uint dai_t_0\n    ) = slidingWindowOracle.pairObservations(uniswapPairAddress, pairIndex--);\n  \n    if (fren_t_0 <= fren_t_1) {\n      // price pressure, release by letting people print\n      uint delta_fren = DecimalMath.divd(\n        (fren_t_1.sub(fren_t_0)),\n         fren_t_0\n      );\n\n      // increase money multipler by delta\n      uint reserveMultiplier_t_1 = DecimalMath.addd(\n          delta_fren,\n          reserveMultiplier_t_0\n      );\n      /*\n\n       (1 - RL)*M = 1\n       (1 - RL) = 1 / M\n       - RL = 1 / M - 1\n        RL = 1 - (1 /M)\n      */\n\n\n     reserveLimit = DecimalMath.subd(\n       unity,\n       DecimalMath.divd(\n        unity,\n        reserveMultiplier_t_1\n       )\n     );\n    } else {\n      // negative price pressure, restrict lending\n      uint delta_fren = DecimalMath.divd(\n        (fren_t_0.sub(fren_t_1)),\n         fren_t_1\n      );\n\n      // decrease money multipler by delta\n      uint reserveMultiplier_t_1 = DecimalMath.subd(\n          delta_fren,\n          reserveMultiplier_t_0\n      );\n\n      /*\n       (1 - RL)*M = 1\n       (1 - RL) = 1 / M\n       - RL = 1 / M - 1\n        RL = 1 - (1 /M)\n      */\n\n\n     reserveLimit = DecimalMath.subd(\n       unity,\n       DecimalMath.divd(\n        unity,\n        reserveMultiplier_t_1\n       )\n     );\n    }\n    \n    slidingWindowOracle.update(address(this), address(daiToken));\n  }\n \n    function getReserves() public view returns (uint fren, uint dai, uint last_timestamp) {\n    (\n      uint fren,\n      uint dai,\n      uint last_block_timestamp\n    ) = Stub.sUniswapV2Pair(\n      Helpers.pairFor(\n        address(uniswapV2Factory),\n        address(daiToken),\n        address(this)\n      )\n    ).getReserves();\n    return (fren, dai, last_block_timestamp);\n  }\n\n  function timeAdjustedRR(\n    address account,\n    uint256 expiryDate\n  ) public view returns(uint256) {\n    Account memory relevantAccount = _accounts[account];\n    // higher numbers further in time\n    uint256 lengthOfTimeInS = expiryDate - block.timestamp;\n    uint256 dayInS = 3600*24;\n    // i believe this floors, is this satisfactory on the edge?\n    uint256 daysTillExpiry = lengthOfTimeInS / dayInS;\n    \n    if (daysTillExpiry < 365) {\n      uint256 increment = reserveLimit / 365;\n      return daysTillExpiry*increment;\n    }\n    return reserveLimit;\n  }\n\n  modifier isWithinReserveRatio(\n    address lendor,\n    uint256 amount\n  ) {\n    Account memory account = _accounts[lendor];\n    uint proportion = DecimalMath.divd(\n      account.credibilityPoints,\n      totalCredibilityPoints\n    );\n    uint256 balance = balanceOf(lendor);\n    uint currentRatio = DecimalMath.divd(\n      account.liabilities + amount,\n      balance\n    );\n    uint activeRequirement = DecimalMath.muld(\n      proportion,\n      reserveLimit\n    );\n    require(currentRatio <= activeRequirement, \"apologies, reserve requirement exceeded\");\n    _;\n  }\n\n  modifier isLoanOfferWithinReserveRatio(\n    address lendor,\n    uint256 amount,\n    uint256 expiry\n  ) {\n    Account memory account = _accounts[lendor];\n    uint256 balance = balanceOf(lendor);\n    uint256 currentRatio = Helpers.percent(account.liabilities + amount, balance, 18);\n    require(currentRatio <= timeAdjustedRR(lendor, expiry), \"apologies, reserve requirement exceeded\");\n    _;\n  }\n\n  /* Overrides\n  *\n  */\n \n\n  /* Loans\n  *\n  */\n \n  function offerLoan(\n    address debtor,\n    uint256 amount,\n    uint256 expiry,\n    uint256 interest\n  ) isLoanOfferWithinReserveRatio(\n      msg.sender,\n      amount,\n      expiry\n    )\n  external {\n    // minimum day\n    require((expiry - block.timestamp) > 3600*24, 'loans must be at least a 24h');\n    Loan memory newLoan = Loan(amount, expiry, false, block.timestamp, 0, interest);\n    // _loans[lendor][debtor]\n    _loans[msg.sender][debtor].push(newLoan);\n    uint256 index = _loans[msg.sender][debtor].length;\n    _loanIndicies[msg.sender][debtor].push(index);\n\n    emit loanOffer(msg.sender, index, debtor);\n  }\n  \n  function signLoan(\n    address lendor,\n    uint256 index\n  ) isWithinReserveRatio(\n      lendor,\n      _loans[lendor][msg.sender][index - 1].principle\n  ) external {\n    // state\n    Loan storage loan = _loans[lendor][msg.sender][index - 1];\n    Account storage lendorAccount = _accounts[lendor];\n    Account storage debtorAccount = _accounts[msg.sender];\n    \n    // change balances\n    debtorAccount.liabilities.add(loan.principle + loan.interest);\n    lendorAccount.assets.add(loan.principle + loan.interest);\n    lendorAccount.liabilities += loan.principle;\n \n    loan.isApproved = true;\n    loan.signedAt = block.timestamp; \n    \n    _mint(msg.sender, loan.principle);\n    // change globals\n    //_outstandingInterest += loan.interest;\n\n    slidingWindowOracle.update(address(daiToken), address(this));\n    emit loanSign(lendor, index, msg.sender);\n  }\n  \n  function repayLoan(\n    address lendor,\n    uint256 index\n  ) \n  external {\n    Loan storage loan = _loans[lendor][msg.sender][index - 1];\n    //uncommented for testing purpose\n    //require(block.timestamp >= loan.expiry, 'loans must be expired before they are repaid');\n    Account storage debtorAccount = _accounts[msg.sender];\n    uint256  debtorBalance = balanceOf(msg.sender);\n    Account storage lendorAccount = _accounts[lendor];\n    require(\n      debtorBalance >= loan.principle + loan.interest, 'insufficent funds'\n    );\n\n    _transfer(msg.sender, lendor, loan.interest);\n    _burn(msg.sender, loan.principle);\n    \n    debtorAccount.liabilities.sub(loan.principle + loan.interest);\n    debtorAccount.credibilityPoints.add(loan.principle + loan.interest);\n    totalCredibilityPoints.add(loan.principle + loan.interest);\n    \n    lendorAccount.assets.sub(loan.principle + loan.interest);\n    lendorAccount.liabilities.sub(loan.principle);\n    lendorAccount.credibilityPoints.add(loan.principle + loan.interest);\n    totalCredibilityPoints.add(loan.principle + loan.interest);\n    \n    //_outstandingInterest -= loan.interest;\n    emit loanRepaid(lendor, index, msg.sender);\n  }\n\n  function assetsOf(address holder) external view returns (uint256) {\n    Account memory account = _accounts[holder];\n    return account.assets;  \n  }\n\n  function liabilitiesOf(address holder) external view returns (uint256) {\n    Account memory account = _accounts[holder];\n    return account.liabilities;  \n  }\n\n\n\n}\n",
  "sourcePath": "/home/taylor/ff2/contracts/ff2/FREN.sol",
  "compiler": {
    "name": "solc",
    "version": "0.7.1+commit.f4a555be.Emscripten.clang"
  },
  "schemaVersion": "3.3.0",
  "updatedAt": "2020-10-23T04:56:11.084Z",
  "devdoc": {
    "kind": "dev",
    "methods": {
      "allowance(address,address)": {
        "details": "See {IERC20-allowance}."
      },
      "approve(address,uint256)": {
        "details": "See {IERC20-approve}. Requirements: - `spender` cannot be the zero address."
      },
      "balanceOf(address)": {
        "details": "See {IERC20-balanceOf}."
      },
      "decimals()": {
        "details": "Returns the number of decimals used to get its user representation. For example, if `decimals` equals `2`, a balance of `505` tokens should be displayed to a user as `5,05` (`505 / 10 ** 2`). Tokens usually opt for a value of 18, imitating the relationship between Ether and Wei. This is the value {ERC20} uses, unless {_setupDecimals} is called. NOTE: This information is only used for _display_ purposes: it in no way affects any of the arithmetic of the contract, including {IERC20-balanceOf} and {IERC20-transfer}."
      },
      "decreaseAllowance(address,uint256)": {
        "details": "Atomically decreases the allowance granted to `spender` by the caller. This is an alternative to {approve} that can be used as a mitigation for problems described in {IERC20-approve}. Emits an {Approval} event indicating the updated allowance. Requirements: - `spender` cannot be the zero address. - `spender` must have allowance for the caller of at least `subtractedValue`."
      },
      "increaseAllowance(address,uint256)": {
        "details": "Atomically increases the allowance granted to `spender` by the caller. This is an alternative to {approve} that can be used as a mitigation for problems described in {IERC20-approve}. Emits an {Approval} event indicating the updated allowance. Requirements: - `spender` cannot be the zero address."
      },
      "name()": {
        "details": "Returns the name of the token."
      },
      "symbol()": {
        "details": "Returns the symbol of the token, usually a shorter version of the name."
      },
      "totalSupply()": {
        "details": "See {IERC20-totalSupply}."
      },
      "transfer(address,uint256)": {
        "details": "See {IERC20-transfer}. Requirements: - `recipient` cannot be the zero address. - the caller must have a balance of at least `amount`."
      },
      "transferFrom(address,address,uint256)": {
        "details": "See {IERC20-transferFrom}. Emits an {Approval} event indicating the updated allowance. This is not required by the EIP. See the note at the beginning of {ERC20}; Requirements: - `sender` and `recipient` cannot be the zero address. - `sender` must have a balance of at least `amount`. - the caller must have allowance for ``sender``'s tokens of at least `amount`."
      }
    },
    "version": 1
  },
  "userdoc": {
    "kind": "user",
    "methods": {},
    "version": 1
  }
}