{
  "contractName": "FREN",
  "abi": [
    {
      "inputs": [
        {
          "internalType": "uint256",
          "name": "initialAmount",
          "type": "uint256"
        },
        {
          "internalType": "address",
          "name": "daiAddress",
          "type": "address"
        },
        {
          "internalType": "address",
          "name": "uniswapV2FactoryAddress",
          "type": "address"
        },
        {
          "internalType": "address",
          "name": "uniswapV2Router02Address",
          "type": "address"
        },
        {
          "internalType": "address",
          "name": "slidingWindowOracleAddress",
          "type": "address"
        }
      ],
      "stateMutability": "nonpayable",
      "type": "constructor"
    },
    {
      "anonymous": false,
      "inputs": [
        {
          "indexed": true,
          "internalType": "address",
          "name": "owner",
          "type": "address"
        },
        {
          "indexed": true,
          "internalType": "address",
          "name": "spender",
          "type": "address"
        },
        {
          "indexed": false,
          "internalType": "uint256",
          "name": "value",
          "type": "uint256"
        }
      ],
      "name": "Approval",
      "type": "event"
    },
    {
      "anonymous": false,
      "inputs": [
        {
          "indexed": true,
          "internalType": "address",
          "name": "from",
          "type": "address"
        },
        {
          "indexed": true,
          "internalType": "address",
          "name": "to",
          "type": "address"
        },
        {
          "indexed": false,
          "internalType": "uint256",
          "name": "value",
          "type": "uint256"
        }
      ],
      "name": "Transfer",
      "type": "event"
    },
    {
      "anonymous": false,
      "inputs": [
        {
          "indexed": true,
          "internalType": "address",
          "name": "lendor",
          "type": "address"
        },
        {
          "indexed": true,
          "internalType": "uint256",
          "name": "index",
          "type": "uint256"
        },
        {
          "indexed": true,
          "internalType": "address",
          "name": "debtor",
          "type": "address"
        }
      ],
      "name": "loanOffer",
      "type": "event"
    },
    {
      "anonymous": false,
      "inputs": [
        {
          "indexed": true,
          "internalType": "address",
          "name": "lendor",
          "type": "address"
        },
        {
          "indexed": true,
          "internalType": "uint256",
          "name": "index",
          "type": "uint256"
        },
        {
          "indexed": true,
          "internalType": "address",
          "name": "debtor",
          "type": "address"
        }
      ],
      "name": "loanRepaid",
      "type": "event"
    },
    {
      "anonymous": false,
      "inputs": [
        {
          "indexed": true,
          "internalType": "address",
          "name": "lendor",
          "type": "address"
        },
        {
          "indexed": true,
          "internalType": "uint256",
          "name": "index",
          "type": "uint256"
        },
        {
          "indexed": true,
          "internalType": "address",
          "name": "debtor",
          "type": "address"
        }
      ],
      "name": "loanSign",
      "type": "event"
    },
    {
      "inputs": [
        {
          "internalType": "address",
          "name": "owner",
          "type": "address"
        },
        {
          "internalType": "address",
          "name": "spender",
          "type": "address"
        }
      ],
      "name": "allowance",
      "outputs": [
        {
          "internalType": "uint256",
          "name": "",
          "type": "uint256"
        }
      ],
      "stateMutability": "view",
      "type": "function",
      "constant": true
    },
    {
      "inputs": [
        {
          "internalType": "address",
          "name": "spender",
          "type": "address"
        },
        {
          "internalType": "uint256",
          "name": "amount",
          "type": "uint256"
        }
      ],
      "name": "approve",
      "outputs": [
        {
          "internalType": "bool",
          "name": "",
          "type": "bool"
        }
      ],
      "stateMutability": "nonpayable",
      "type": "function"
    },
    {
      "inputs": [
        {
          "internalType": "address",
          "name": "account",
          "type": "address"
        }
      ],
      "name": "balanceOf",
      "outputs": [
        {
          "internalType": "uint256",
          "name": "",
          "type": "uint256"
        }
      ],
      "stateMutability": "view",
      "type": "function",
      "constant": true
    },
    {
      "inputs": [],
      "name": "decimals",
      "outputs": [
        {
          "internalType": "uint8",
          "name": "",
          "type": "uint8"
        }
      ],
      "stateMutability": "view",
      "type": "function",
      "constant": true
    },
    {
      "inputs": [
        {
          "internalType": "address",
          "name": "spender",
          "type": "address"
        },
        {
          "internalType": "uint256",
          "name": "subtractedValue",
          "type": "uint256"
        }
      ],
      "name": "decreaseAllowance",
      "outputs": [
        {
          "internalType": "bool",
          "name": "",
          "type": "bool"
        }
      ],
      "stateMutability": "nonpayable",
      "type": "function"
    },
    {
      "inputs": [
        {
          "internalType": "address",
          "name": "spender",
          "type": "address"
        },
        {
          "internalType": "uint256",
          "name": "addedValue",
          "type": "uint256"
        }
      ],
      "name": "increaseAllowance",
      "outputs": [
        {
          "internalType": "bool",
          "name": "",
          "type": "bool"
        }
      ],
      "stateMutability": "nonpayable",
      "type": "function"
    },
    {
      "inputs": [],
      "name": "name",
      "outputs": [
        {
          "internalType": "string",
          "name": "",
          "type": "string"
        }
      ],
      "stateMutability": "view",
      "type": "function",
      "constant": true
    },
    {
      "inputs": [],
      "name": "reserveRequirement",
      "outputs": [
        {
          "internalType": "uint256",
          "name": "",
          "type": "uint256"
        }
      ],
      "stateMutability": "view",
      "type": "function",
      "constant": true
    },
    {
      "inputs": [],
      "name": "symbol",
      "outputs": [
        {
          "internalType": "string",
          "name": "",
          "type": "string"
        }
      ],
      "stateMutability": "view",
      "type": "function",
      "constant": true
    },
    {
      "inputs": [],
      "name": "totalCredibilityPoints",
      "outputs": [
        {
          "internalType": "uint256",
          "name": "",
          "type": "uint256"
        }
      ],
      "stateMutability": "view",
      "type": "function",
      "constant": true
    },
    {
      "inputs": [],
      "name": "totalSupply",
      "outputs": [
        {
          "internalType": "uint256",
          "name": "",
          "type": "uint256"
        }
      ],
      "stateMutability": "view",
      "type": "function",
      "constant": true
    },
    {
      "inputs": [
        {
          "internalType": "address",
          "name": "recipient",
          "type": "address"
        },
        {
          "internalType": "uint256",
          "name": "amount",
          "type": "uint256"
        }
      ],
      "name": "transfer",
      "outputs": [
        {
          "internalType": "bool",
          "name": "",
          "type": "bool"
        }
      ],
      "stateMutability": "nonpayable",
      "type": "function"
    },
    {
      "inputs": [
        {
          "internalType": "address",
          "name": "sender",
          "type": "address"
        },
        {
          "internalType": "address",
          "name": "recipient",
          "type": "address"
        },
        {
          "internalType": "uint256",
          "name": "amount",
          "type": "uint256"
        }
      ],
      "name": "transferFrom",
      "outputs": [
        {
          "internalType": "bool",
          "name": "",
          "type": "bool"
        }
      ],
      "stateMutability": "nonpayable",
      "type": "function"
    },
    {
      "inputs": [],
      "name": "uniswapPairAddress",
      "outputs": [
        {
          "internalType": "address",
          "name": "",
          "type": "address"
        }
      ],
      "stateMutability": "view",
      "type": "function",
      "constant": true
    },
    {
      "inputs": [],
      "name": "daiReserve",
      "outputs": [
        {
          "internalType": "uint256",
          "name": "",
          "type": "uint256"
        }
      ],
      "stateMutability": "view",
      "type": "function",
      "constant": true
    },
    {
      "inputs": [],
      "name": "getReserves",
      "outputs": [
        {
          "internalType": "uint256",
          "name": "fren",
          "type": "uint256"
        },
        {
          "internalType": "uint256",
          "name": "dai",
          "type": "uint256"
        },
        {
          "internalType": "uint256",
          "name": "last_timestamp",
          "type": "uint256"
        }
      ],
      "stateMutability": "view",
      "type": "function",
      "constant": true
    },
    {
      "inputs": [
        {
          "internalType": "address",
          "name": "account",
          "type": "address"
        },
        {
          "internalType": "uint256",
          "name": "expiryDate",
          "type": "uint256"
        }
      ],
      "name": "timeAdjustedRR",
      "outputs": [
        {
          "internalType": "uint256",
          "name": "",
          "type": "uint256"
        }
      ],
      "stateMutability": "view",
      "type": "function",
      "constant": true
    },
    {
      "inputs": [
        {
          "internalType": "address",
          "name": "debtor",
          "type": "address"
        },
        {
          "internalType": "uint256",
          "name": "amount",
          "type": "uint256"
        },
        {
          "internalType": "uint256",
          "name": "expiry",
          "type": "uint256"
        },
        {
          "internalType": "uint256",
          "name": "interest",
          "type": "uint256"
        }
      ],
      "name": "offerLoan",
      "outputs": [],
      "stateMutability": "nonpayable",
      "type": "function"
    },
    {
      "inputs": [
        {
          "internalType": "address",
          "name": "lendor",
          "type": "address"
        },
        {
          "internalType": "uint256",
          "name": "index",
          "type": "uint256"
        }
      ],
      "name": "signLoan",
      "outputs": [],
      "stateMutability": "nonpayable",
      "type": "function"
    },
    {
      "inputs": [
        {
          "internalType": "address",
          "name": "lendor",
          "type": "address"
        },
        {
          "internalType": "uint256",
          "name": "index",
          "type": "uint256"
        }
      ],
      "name": "repayLoan",
      "outputs": [],
      "stateMutability": "nonpayable",
      "type": "function"
    },
    {
      "inputs": [
        {
          "internalType": "address",
          "name": "holder",
          "type": "address"
        }
      ],
      "name": "assetsOf",
      "outputs": [
        {
          "internalType": "uint256",
          "name": "",
          "type": "uint256"
        }
      ],
      "stateMutability": "view",
      "type": "function",
      "constant": true
    },
    {
      "inputs": [
        {
          "internalType": "address",
          "name": "holder",
          "type": "address"
        }
      ],
      "name": "liabilitiesOf",
      "outputs": [
        {
          "internalType": "uint256",
          "name": "",
          "type": "uint256"
        }
      ],
      "stateMutability": "view",
      "type": "function",
      "constant": true
    }
  ],
  "bytecode": "0x60806040523480156200001157600080fd5b506040516200365038038062003650833981810160405260a08110156200003757600080fd5b8101908080519060200190929190805190602001909291908051906020019092919080519060200190929190805190602001909291905050506040518060400160405280602081526020017f4665646572616c20526573657276652045766572796f6e65204e6574776f726b8152506040518060400160405280600481526020017f4652454e000000000000000000000000000000000000000000000000000000008152508160039080519060200190620000f492919062000679565b5080600490805190602001906200010d92919062000679565b506012600560006101000a81548160ff021916908360ff1602179055505050600160068190555083600760006101000a81548173ffffffffffffffffffffffffffffffffffffffff021916908373ffffffffffffffffffffffffffffffffffffffff16021790555082600860006101000a81548173ffffffffffffffffffffffffffffffffffffffff021916908373ffffffffffffffffffffffffffffffffffffffff160217905550600860009054906101000a900473ffffffffffffffffffffffffffffffffffffffff1673ffffffffffffffffffffffffffffffffffffffff1663c9c6539685306040518363ffffffff1660e01b8152600401808373ffffffffffffffffffffffffffffffffffffffff1681526020018273ffffffffffffffffffffffffffffffffffffffff16815260200192505050602060405180830381600087803b1580156200026057600080fd5b505af115801562000275573d6000803e3d6000fd5b505050506040513d60208110156200028c57600080fd5b8101908080519060200190929190505050600b60006101000a81548173ffffffffffffffffffffffffffffffffffffffff021916908373ffffffffffffffffffffffffffffffffffffffff16021790555080600a60006101000a81548173ffffffffffffffffffffffffffffffffffffffff021916908373ffffffffffffffffffffffffffffffffffffffff1602179055506200033033866200036b60201b60201c565b6200035a620003496200054960201b62000b911760201c565b6200056060201b62001dac1760201c565b600c8190555050505050506200071f565b600073ffffffffffffffffffffffffffffffffffffffff168273ffffffffffffffffffffffffffffffffffffffff1614156200040f576040517f08c379a000000000000000000000000000000000000000000000000000000000815260040180806020018281038252601f8152602001807f45524332303a206d696e7420746f20746865207a65726f20616464726573730081525060200191505060405180910390fd5b6200042360008383620005eb60201b60201c565b6200043f81600254620005f060201b62001e361790919060201c565b6002819055506200049d816000808573ffffffffffffffffffffffffffffffffffffffff1673ffffffffffffffffffffffffffffffffffffffff16815260200190815260200160002054620005f060201b62001e361790919060201c565b6000808473ffffffffffffffffffffffffffffffffffffffff1673ffffffffffffffffffffffffffffffffffffffff168152602001908152602001600020819055508173ffffffffffffffffffffffffffffffffffffffff16600073ffffffffffffffffffffffffffffffffffffffff167fddf252ad1be2c89b69c2b068fc378daa952ba7f163c4a11628f55a4df523b3ef836040518082815260200191505060405180910390a35050565b6000600560009054906101000a900460ff16905090565b6000604d8260ff161115620005dd576040517f08c379a00000000000000000000000000000000000000000000000000000000081526004018080602001828103825260118152602001807f546f6f206d616e7920646563696d616c7300000000000000000000000000000081525060200191505060405180910390fd5b8160ff16600a0a9050919050565b505050565b6000808284019050838110156200066f576040517f08c379a000000000000000000000000000000000000000000000000000000000815260040180806020018281038252601b8152602001807f536166654d6174683a206164646974696f6e206f766572666c6f77000000000081525060200191505060405180910390fd5b8091505092915050565b828054600181600116156101000203166002900490600052602060002090601f016020900481019282601f10620006bc57805160ff1916838001178555620006ed565b82800160010185558215620006ed579182015b82811115620006ec578251825591602001919060010190620006cf565b5b509050620006fc919062000700565b5090565b5b808211156200071b57600081600090555060010162000701565b5090565b612f21806200072f6000396000f3fe608060405234801561001057600080fd5b50600436106101425760003560e01c80637f3c587e116100b8578063a457c2d71161007c578063a457c2d71461065a578063a9059cbb146106be578063bca48c0814610722578063bd3733fe14610770578063dd62ed3e146107a4578063e2771ec81461081c57610142565b80637f3c587e146104b157806381d5660c146104cf5780638638110e1461053157806393a595f51461058957806395d89b41146105d757610142565b80632c62fa101161010a5780632c62fa10146102fc578063313ce56714610354578063395093511461037557806339cdcd0f146103d957806353f6d07d146103f757806370a082311461045957610142565b806306fdde03146101475780630902f1ac146101ca578063095ea7b3146101f657806318160ddd1461025a57806323b872dd14610278575b600080fd5b61014f61083a565b6040518080602001828103825283818151815260200191508051906020019080838360005b8381101561018f578082015181840152602081019050610174565b50505050905090810190601f1680156101bc5780820380516001836020036101000a031916815260200191505b509250505060405180910390f35b6101d26108dc565b60405180848152602001838152602001828152602001935050505060405180910390f35b6102426004803603604081101561020c57600080fd5b81019080803573ffffffffffffffffffffffffffffffffffffffff16906020019092919080359060200190929190505050610a05565b60405180821515815260200191505060405180910390f35b610262610a23565b6040518082815260200191505060405180910390f35b6102e46004803603606081101561028e57600080fd5b81019080803573ffffffffffffffffffffffffffffffffffffffff169060200190929190803573ffffffffffffffffffffffffffffffffffffffff16906020019092919080359060200190929190505050610a2d565b60405180821515815260200191505060405180910390f35b61033e6004803603602081101561031257600080fd5b81019080803573ffffffffffffffffffffffffffffffffffffffff169060200190929190505050610b06565b6040518082815260200191505060405180910390f35b61035c610b91565b604051808260ff16815260200191505060405180910390f35b6103c16004803603604081101561038b57600080fd5b81019080803573ffffffffffffffffffffffffffffffffffffffff16906020019092919080359060200190929190505050610ba8565b60405180821515815260200191505060405180910390f35b6103e1610c5b565b6040518082815260200191505060405180910390f35b6104436004803603604081101561040d57600080fd5b81019080803573ffffffffffffffffffffffffffffffffffffffff16906020019092919080359060200190929190505050610c61565b6040518082815260200191505060405180910390f35b61049b6004803603602081101561046f57600080fd5b81019080803573ffffffffffffffffffffffffffffffffffffffff169060200190929190505050610d37565b6040518082815260200191505060405180910390f35b6104b9610d7f565b6040518082815260200191505060405180910390f35b61052f600480360360808110156104e557600080fd5b81019080803573ffffffffffffffffffffffffffffffffffffffff169060200190929190803590602001909291908035906020019092919080359060200190929190505050610d85565b005b6105736004803603602081101561054757600080fd5b81019080803573ffffffffffffffffffffffffffffffffffffffff169060200190929190505050611256565b6040518082815260200191505060405180910390f35b6105d56004803603604081101561059f57600080fd5b81019080803573ffffffffffffffffffffffffffffffffffffffff169060200190929190803590602001909291905050506112e1565b005b6105df6115f4565b6040518080602001828103825283818151815260200191508051906020019080838360005b8381101561061f578082015181840152602081019050610604565b50505050905090810190601f16801561064c5780820380516001836020036101000a031916815260200191505b509250505060405180910390f35b6106a66004803603604081101561067057600080fd5b81019080803573ffffffffffffffffffffffffffffffffffffffff16906020019092919080359060200190929190505050611696565b60405180821515815260200191505060405180910390f35b61070a600480360360408110156106d457600080fd5b81019080803573ffffffffffffffffffffffffffffffffffffffff16906020019092919080359060200190929190505050611763565b60405180821515815260200191505060405180910390f35b61076e6004803603604081101561073857600080fd5b81019080803573ffffffffffffffffffffffffffffffffffffffff16906020019092919080359060200190929190505050611781565b005b610778611c34565b604051808273ffffffffffffffffffffffffffffffffffffffff16815260200191505060405180910390f35b610806600480360360408110156107ba57600080fd5b81019080803573ffffffffffffffffffffffffffffffffffffffff169060200190929190803573ffffffffffffffffffffffffffffffffffffffff169060200190929190505050611c5a565b6040518082815260200191505060405180910390f35b610824611ce1565b6040518082815260200191505060405180910390f35b606060038054600181600116156101000203166002900480601f0160208091040260200160405190810160405280929190818152602001828054600181600116156101000203166002900480156108d25780601f106108a7576101008083540402835291602001916108d2565b820191906000526020600020905b8154815290600101906020018083116108b557829003601f168201915b5050505050905090565b600080600080600080610934600860009054906101000a900473ffffffffffffffffffffffffffffffffffffffff16600760009054906101000a900473ffffffffffffffffffffffffffffffffffffffff1630611ebe565b73ffffffffffffffffffffffffffffffffffffffff16630902f1ac6040518163ffffffff1660e01b815260040160606040518083038186803b15801561097957600080fd5b505afa15801561098d573d6000803e3d6000fd5b505050506040513d60608110156109a357600080fd5b8101908080519060200190929190805190602001909291908051906020019092919050505063ffffffff1692506dffffffffffffffffffffffffffff1692506dffffffffffffffffffffffffffff169250828282955095509550505050909192565b6000610a19610a12611fd7565b8484611fdf565b6001905092915050565b6000600254905090565b6000610a3a8484846121d6565b610afb84610a46611fd7565b610af685604051806060016040528060288152602001612e0e60289139600160008b73ffffffffffffffffffffffffffffffffffffffff1673ffffffffffffffffffffffffffffffffffffffff1681526020019081526020016000206000610aac611fd7565b73ffffffffffffffffffffffffffffffffffffffff1673ffffffffffffffffffffffffffffffffffffffff168152602001908152602001600020546124979092919063ffffffff16565b611fdf565b600190509392505050565b6000610b10612cda565b600e60008473ffffffffffffffffffffffffffffffffffffffff1673ffffffffffffffffffffffffffffffffffffffff16815260200190815260200160002060405180608001604052908160008201548152602001600182015481526020016002820154815260200160038201548152505090508060200151915050919050565b6000600560009054906101000a900460ff16905090565b6000610c51610bb5611fd7565b84610c4c8560016000610bc6611fd7565b73ffffffffffffffffffffffffffffffffffffffff1673ffffffffffffffffffffffffffffffffffffffff16815260200190815260200160002060008973ffffffffffffffffffffffffffffffffffffffff1673ffffffffffffffffffffffffffffffffffffffff16815260200190815260200160002054611e3690919063ffffffff16565b611fdf565b6001905092915050565b600d5481565b6000610c6b612cda565b600e60008573ffffffffffffffffffffffffffffffffffffffff1673ffffffffffffffffffffffffffffffffffffffff16815260200190815260200160002060405180608001604052908160008201548152602001600182015481526020016002820154815260200160038201548152505090506000428403905060006201518090506000818381610cf957fe5b04905061016d811015610d2757600061016d600c5481610d1557fe5b04905080820295505050505050610d31565b600c549450505050505b92915050565b60008060008373ffffffffffffffffffffffffffffffffffffffff1673ffffffffffffffffffffffffffffffffffffffff168152602001908152602001600020549050919050565b600c5481565b338383610d90612cda565b600e60008573ffffffffffffffffffffffffffffffffffffffff1673ffffffffffffffffffffffffffffffffffffffff16815260200190815260200160002060405180608001604052908160008201548152602001600182015481526020016002820154815260200160038201548152505090506000610e0f85610d37565b9050600073__Helpers_______________________________622c1a9e868560400151018460126040518463ffffffff1660e01b815260040180848152602001838152602001828152602001935050505060206040518083038186803b158015610e7857600080fd5b505af4158015610e8c573d6000803e3d6000fd5b505050506040513d6020811015610ea257600080fd5b81019080805190602001909291905050509050610ebf8685610c61565b811115610f17576040517f08c379a0000000000000000000000000000000000000000000000000000000008152600401808060200182810382526027815260200180612e366027913960400191505060405180910390fd5b6201518042890311610f91576040517f08c379a000000000000000000000000000000000000000000000000000000000815260040180806020018281038252601c8152602001807f6c6f616e73206d757374206265206174206c656173742061203234680000000081525060200191505060405180910390fd5b610f99612d02565b6040518060c001604052808b81526020018a815260200160001515815260200142815260200160008152602001898152509050600f60003373ffffffffffffffffffffffffffffffffffffffff1673ffffffffffffffffffffffffffffffffffffffff16815260200190815260200160002060008c73ffffffffffffffffffffffffffffffffffffffff1673ffffffffffffffffffffffffffffffffffffffff168152602001908152602001600020819080600181540180825580915050600190039060005260206000209060060201600090919091909150600082015181600001556020820151816001015560408201518160020160006101000a81548160ff021916908315150217905550606082015181600301556080820151816004015560a0820151816005015550506000600f60003373ffffffffffffffffffffffffffffffffffffffff1673ffffffffffffffffffffffffffffffffffffffff16815260200190815260200160002060008d73ffffffffffffffffffffffffffffffffffffffff1673ffffffffffffffffffffffffffffffffffffffff168152602001908152602001600020805490509050601060003373ffffffffffffffffffffffffffffffffffffffff1673ffffffffffffffffffffffffffffffffffffffff16815260200190815260200160002060008d73ffffffffffffffffffffffffffffffffffffffff1673ffffffffffffffffffffffffffffffffffffffff1681526020019081526020016000208190806001815401808255809150506001900390600052602060002001600090919091909150558b73ffffffffffffffffffffffffffffffffffffffff16813373ffffffffffffffffffffffffffffffffffffffff167f70c9e256e5590a7520512b88293528b2c0c7ecf3c36695181926988987156b6760405160405180910390a4505050505050505050505050565b6000611260612cda565b600e60008473ffffffffffffffffffffffffffffffffffffffff1673ffffffffffffffffffffffffffffffffffffffff16815260200190815260200160002060405180608001604052908160008201548152602001600182015481526020016002820154815260200160038201548152505090508060400151915050919050565b6000600f60008473ffffffffffffffffffffffffffffffffffffffff1673ffffffffffffffffffffffffffffffffffffffff16815260200190815260200160002060003373ffffffffffffffffffffffffffffffffffffffff1673ffffffffffffffffffffffffffffffffffffffff168152602001908152602001600020600183038154811061136d57fe5b906000526020600020906006020190506000600e60003373ffffffffffffffffffffffffffffffffffffffff1673ffffffffffffffffffffffffffffffffffffffff168152602001908152602001600020905060006113cb33610d37565b90506000600e60008773ffffffffffffffffffffffffffffffffffffffff1673ffffffffffffffffffffffffffffffffffffffff16815260200190815260200160002090508360050154846000015401821015611490576040517f08c379a00000000000000000000000000000000000000000000000000000000081526004018080602001828103825260118152602001807f696e737566666963656e742066756e647300000000000000000000000000000081525060200191505060405180910390fd5b61149f338786600501546121d6565b6114ad338560000154612557565b6114ce8460050154856000015401846002015461271b90919063ffffffff16565b506114f084600501548560000154018460000154611e3690919063ffffffff16565b506115108460050154856000015401600d54611e3690919063ffffffff16565b506115328460050154856000015401826001015461271b90919063ffffffff16565b5061154e8460000154826002015461271b90919063ffffffff16565b5061157084600501548560000154018260000154611e3690919063ffffffff16565b506115908460050154856000015401600d54611e3690919063ffffffff16565b503373ffffffffffffffffffffffffffffffffffffffff16858773ffffffffffffffffffffffffffffffffffffffff167ff57cc7f3bb20dfe97a6041fbb06abb7613a11ca4a5f4a3a5466d43356e6b631760405160405180910390a4505050505050565b606060048054600181600116156101000203166002900480601f01602080910402602001604051908101604052809291908181526020018280546001816001161561010002031660029004801561168c5780601f106116615761010080835404028352916020019161168c565b820191906000526020600020905b81548152906001019060200180831161166f57829003601f168201915b5050505050905090565b60006117596116a3611fd7565b8461175485604051806060016040528060258152602001612ec760259139600160006116cd611fd7565b73ffffffffffffffffffffffffffffffffffffffff1673ffffffffffffffffffffffffffffffffffffffff16815260200190815260200160002060008a73ffffffffffffffffffffffffffffffffffffffff1673ffffffffffffffffffffffffffffffffffffffff168152602001908152602001600020546124979092919063ffffffff16565b611fdf565b6001905092915050565b6000611777611770611fd7565b84846121d6565b6001905092915050565b81600f60008473ffffffffffffffffffffffffffffffffffffffff1673ffffffffffffffffffffffffffffffffffffffff16815260200190815260200160002060003373ffffffffffffffffffffffffffffffffffffffff1673ffffffffffffffffffffffffffffffffffffffff168152602001908152602001600020600183038154811061180c57fe5b906000526020600020906006020160000154611826612cda565b600e60008473ffffffffffffffffffffffffffffffffffffffff1673ffffffffffffffffffffffffffffffffffffffff168152602001908152602001600020604051806080016040529081600082015481526020016001820154815260200160028201548152602001600382015481525050905060006118ac8260000151600d54612765565b905060006118b985610d37565b905060006118cd8585604001510183612765565b905060006118dd84600c5461277b565b905080821115611938576040517f08c379a0000000000000000000000000000000000000000000000000000000008152600401808060200182810382526027815260200180612e366027913960400191505060405180910390fd5b6000600f60008b73ffffffffffffffffffffffffffffffffffffffff1673ffffffffffffffffffffffffffffffffffffffff16815260200190815260200160002060003373ffffffffffffffffffffffffffffffffffffffff1673ffffffffffffffffffffffffffffffffffffffff16815260200190815260200160002060018a03815481106119c457fe5b906000526020600020906006020190506000600e60008c73ffffffffffffffffffffffffffffffffffffffff1673ffffffffffffffffffffffffffffffffffffffff16815260200190815260200160002090506000600e60003373ffffffffffffffffffffffffffffffffffffffff1673ffffffffffffffffffffffffffffffffffffffff1681526020019081526020016000209050611a7b83600501548460000154018260020154611e3690919063ffffffff16565b50611a9d83600501548460000154018360010154611e3690919063ffffffff16565b508260000154826002016000828254019250508190555060018360020160006101000a81548160ff021916908315150217905550428360030181905550611ae8338460000154612791565b600a60009054906101000a900473ffffffffffffffffffffffffffffffffffffffff1673ffffffffffffffffffffffffffffffffffffffff1663c640752d600760009054906101000a900473ffffffffffffffffffffffffffffffffffffffff16306040518363ffffffff1660e01b8152600401808373ffffffffffffffffffffffffffffffffffffffff1681526020018273ffffffffffffffffffffffffffffffffffffffff16815260200192505050600060405180830381600087803b158015611bb357600080fd5b505af1158015611bc7573d6000803e3d6000fd5b505050503373ffffffffffffffffffffffffffffffffffffffff168b8d73ffffffffffffffffffffffffffffffffffffffff167fe3b3cffda5a20d9b3256be3959f9e5a53f9fb69d3bb028f5239a0e034c7a5ae360405160405180910390a4505050505050505050505050565b600b60009054906101000a900473ffffffffffffffffffffffffffffffffffffffff1681565b6000600160008473ffffffffffffffffffffffffffffffffffffffff1673ffffffffffffffffffffffffffffffffffffffff16815260200190815260200160002060008373ffffffffffffffffffffffffffffffffffffffff1673ffffffffffffffffffffffffffffffffffffffff16815260200190815260200160002054905092915050565b6000600760009054906101000a900473ffffffffffffffffffffffffffffffffffffffff1673ffffffffffffffffffffffffffffffffffffffff166370a08231306040518263ffffffff1660e01b8152600401808273ffffffffffffffffffffffffffffffffffffffff16815260200191505060206040518083038186803b158015611d6c57600080fd5b505afa158015611d80573d6000803e3d6000fd5b505050506040513d6020811015611d9657600080fd5b8101908080519060200190929190505050905090565b6000604d8260ff161115611e28576040517f08c379a00000000000000000000000000000000000000000000000000000000081526004018080602001828103825260118152602001807f546f6f206d616e7920646563696d616c7300000000000000000000000000000081525060200191505060405180910390fd5b8160ff16600a0a9050919050565b600080828401905083811015611eb4576040517f08c379a000000000000000000000000000000000000000000000000000000000815260040180806020018281038252601b8152602001807f536166654d6174683a206164646974696f6e206f766572666c6f77000000000081525060200191505060405180910390fd5b8091505092915050565b6000806000611ecd8585612958565b91509150858282604051602001808373ffffffffffffffffffffffffffffffffffffffff1660601b81526014018273ffffffffffffffffffffffffffffffffffffffff1660601b8152601401925050506040516020818303038152906040528051906020012060405160200180807fff000000000000000000000000000000000000000000000000000000000000008152506001018373ffffffffffffffffffffffffffffffffffffffff1660601b8152601401828152602001807f96e8ac4277198ff8b6f785478aa9a39f403cb768dd02cbee326c3e7da348845f815250602001925050506040516020818303038152906040528051906020012060001c925050509392505050565b600033905090565b600073ffffffffffffffffffffffffffffffffffffffff168373ffffffffffffffffffffffffffffffffffffffff161415612065576040517f08c379a0000000000000000000000000000000000000000000000000000000008152600401808060200182810382526024815260200180612ea36024913960400191505060405180910390fd5b600073ffffffffffffffffffffffffffffffffffffffff168273ffffffffffffffffffffffffffffffffffffffff1614156120eb576040517f08c379a0000000000000000000000000000000000000000000000000000000008152600401808060200182810382526022815260200180612d806022913960400191505060405180910390fd5b80600160008573ffffffffffffffffffffffffffffffffffffffff1673ffffffffffffffffffffffffffffffffffffffff16815260200190815260200160002060008473ffffffffffffffffffffffffffffffffffffffff1673ffffffffffffffffffffffffffffffffffffffff168152602001908152602001600020819055508173ffffffffffffffffffffffffffffffffffffffff168373ffffffffffffffffffffffffffffffffffffffff167f8c5be1e5ebec7d5bd14f71427d1e84f3dd0314c0f7b2291e5b200ac8c7c3b925836040518082815260200191505060405180910390a3505050565b600073ffffffffffffffffffffffffffffffffffffffff168373ffffffffffffffffffffffffffffffffffffffff16141561225c576040517f08c379a0000000000000000000000000000000000000000000000000000000008152600401808060200182810382526025815260200180612e7e6025913960400191505060405180910390fd5b600073ffffffffffffffffffffffffffffffffffffffff168273ffffffffffffffffffffffffffffffffffffffff1614156122e2576040517f08c379a0000000000000000000000000000000000000000000000000000000008152600401808060200182810382526023815260200180612d3b6023913960400191505060405180910390fd5b6122ed838383612acf565b61235881604051806060016040528060268152602001612da2602691396000808773ffffffffffffffffffffffffffffffffffffffff1673ffffffffffffffffffffffffffffffffffffffff168152602001908152602001600020546124979092919063ffffffff16565b6000808573ffffffffffffffffffffffffffffffffffffffff1673ffffffffffffffffffffffffffffffffffffffff168152602001908152602001600020819055506123eb816000808573ffffffffffffffffffffffffffffffffffffffff1673ffffffffffffffffffffffffffffffffffffffff16815260200190815260200160002054611e3690919063ffffffff16565b6000808473ffffffffffffffffffffffffffffffffffffffff1673ffffffffffffffffffffffffffffffffffffffff168152602001908152602001600020819055508173ffffffffffffffffffffffffffffffffffffffff168373ffffffffffffffffffffffffffffffffffffffff167fddf252ad1be2c89b69c2b068fc378daa952ba7f163c4a11628f55a4df523b3ef836040518082815260200191505060405180910390a3505050565b6000838311158290612544576040517f08c379a00000000000000000000000000000000000000000000000000000000081526004018080602001828103825283818151815260200191508051906020019080838360005b838110156125095780820151818401526020810190506124ee565b50505050905090810190601f1680156125365780820380516001836020036101000a031916815260200191505b509250505060405180910390fd5b5060008385039050809150509392505050565b600073ffffffffffffffffffffffffffffffffffffffff168273ffffffffffffffffffffffffffffffffffffffff1614156125dd576040517f08c379a0000000000000000000000000000000000000000000000000000000008152600401808060200182810382526021815260200180612e5d6021913960400191505060405180910390fd5b6125e982600083612acf565b61265481604051806060016040528060228152602001612d5e602291396000808673ffffffffffffffffffffffffffffffffffffffff1673ffffffffffffffffffffffffffffffffffffffff168152602001908152602001600020546124979092919063ffffffff16565b6000808473ffffffffffffffffffffffffffffffffffffffff1673ffffffffffffffffffffffffffffffffffffffff168152602001908152602001600020819055506126ab8160025461271b90919063ffffffff16565b600281905550600073ffffffffffffffffffffffffffffffffffffffff168273ffffffffffffffffffffffffffffffffffffffff167fddf252ad1be2c89b69c2b068fc378daa952ba7f163c4a11628f55a4df523b3ef836040518082815260200191505060405180910390a35050565b600061275d83836040518060400160405280601e81526020017f536166654d6174683a207375627472616374696f6e206f766572666c6f770000815250612497565b905092915050565b600061277383836012612ad4565b905092915050565b600061278983836012612b0c565b905092915050565b600073ffffffffffffffffffffffffffffffffffffffff168273ffffffffffffffffffffffffffffffffffffffff161415612834576040517f08c379a000000000000000000000000000000000000000000000000000000000815260040180806020018281038252601f8152602001807f45524332303a206d696e7420746f20746865207a65726f20616464726573730081525060200191505060405180910390fd5b61284060008383612acf565b61285581600254611e3690919063ffffffff16565b6002819055506128ac816000808573ffffffffffffffffffffffffffffffffffffffff1673ffffffffffffffffffffffffffffffffffffffff16815260200190815260200160002054611e3690919063ffffffff16565b6000808473ffffffffffffffffffffffffffffffffffffffff1673ffffffffffffffffffffffffffffffffffffffff168152602001908152602001600020819055508173ffffffffffffffffffffffffffffffffffffffff16600073ffffffffffffffffffffffffffffffffffffffff167fddf252ad1be2c89b69c2b068fc378daa952ba7f163c4a11628f55a4df523b3ef836040518082815260200191505060405180910390a35050565b6000808273ffffffffffffffffffffffffffffffffffffffff168473ffffffffffffffffffffffffffffffffffffffff1614156129e0576040517f08c379a0000000000000000000000000000000000000000000000000000000008152600401808060200182810382526025815260200180612dc86025913960400191505060405180910390fd5b8273ffffffffffffffffffffffffffffffffffffffff168473ffffffffffffffffffffffffffffffffffffffff1610612a1a578284612a1d565b83835b8092508193505050600073ffffffffffffffffffffffffffffffffffffffff168273ffffffffffffffffffffffffffffffffffffffff161415612ac8576040517f08c379a000000000000000000000000000000000000000000000000000000000815260040180806020018281038252601e8152602001807f556e697377617056324c6962726172793a205a45524f5f41444452455353000081525060200191505060405180910390fd5b9250929050565b505050565b6000612b0383612af5612ae685611dac565b87612b4490919063ffffffff16565b612bca90919063ffffffff16565b90509392505050565b6000612b3b612b1a83611dac565b612b2d8587612b4490919063ffffffff16565b612bca90919063ffffffff16565b90509392505050565b600080831415612b575760009050612bc4565b6000828402905082848281612b6857fe5b0414612bbf576040517f08c379a0000000000000000000000000000000000000000000000000000000008152600401808060200182810382526021815260200180612ded6021913960400191505060405180910390fd5b809150505b92915050565b6000612c0c83836040518060400160405280601a81526020017f536166654d6174683a206469766973696f6e206279207a65726f000000000000815250612c14565b905092915050565b60008083118290612cc0576040517f08c379a00000000000000000000000000000000000000000000000000000000081526004018080602001828103825283818151815260200191508051906020019080838360005b83811015612c85578082015181840152602081019050612c6a565b50505050905090810190601f168015612cb25780820380516001836020036101000a031916815260200191505b509250505060405180910390fd5b506000838581612ccc57fe5b049050809150509392505050565b6040518060800160405280600081526020016000815260200160008152602001600081525090565b6040518060c001604052806000815260200160008152602001600015158152602001600081526020016000815260200160008152509056fe45524332303a207472616e7366657220746f20746865207a65726f206164647265737345524332303a206275726e20616d6f756e7420657863656564732062616c616e636545524332303a20617070726f766520746f20746865207a65726f206164647265737345524332303a207472616e7366657220616d6f756e7420657863656564732062616c616e6365556e697377617056324c6962726172793a204944454e544943414c5f414444524553534553536166654d6174683a206d756c7469706c69636174696f6e206f766572666c6f7745524332303a207472616e7366657220616d6f756e74206578636565647320616c6c6f77616e636561706f6c6f676965732c207265736572766520726571756972656d656e7420657863656564656445524332303a206275726e2066726f6d20746865207a65726f206164647265737345524332303a207472616e736665722066726f6d20746865207a65726f206164647265737345524332303a20617070726f76652066726f6d20746865207a65726f206164647265737345524332303a2064656372656173656420616c6c6f77616e63652062656c6f77207a65726fa2646970667358221220dd52f178776e4bf0002c146fcb3f3f89ad1a14f835d9ed243ebb6d87b16e50a464736f6c63430007010033",
  "immutableReferences": {},
  "source": "pragma solidity ^0.7.1;\n\nimport '@openzeppelin/contracts/token/ERC20/ERC20.sol';\nimport '@openzeppelin/contracts/math/SafeMath.sol';\nimport '@openzeppelin/contracts/utils/ReentrancyGuard.sol';\n\nimport './Helpers.sol';\nimport './DecimalMath.sol';\nimport * as Stub from './Stub.sol';\n\ncontract FREN is ERC20, ReentrancyGuard {\n  using SafeMath for uint256;\n  \n  /* Integrations\n  *\n  *\n  */\n  Stub.sDaiToken daiToken;\n  Stub.sUniswapV2Factory uniswapV2Factory;\n  Stub.sUniswapV2Router02 uniswapV2Router02;\n  Stub.sSlidingWindowOracle slidingWindowOracle;\n  address public uniswapPairAddress;\n  \n  /* State\n  *\n  *\n  */\n\n  // an account may not loan past (Assets / Liabilities)*(credibilityPoints/TotalCredibilityPoints)\n  // this is their share of money printing, a proportion of the global reserve requirement whose size is based on being atop the leaderboard\n  // is fixed point with 18 decimals\n  uint public reserveRequirement;\n  uint public totalCredibilityPoints;\n\n  struct Account {\n    uint256 credibilityPoints;\n    //uint256 newAccountOutflowRestrictor;\n    uint256 assets;\n    uint256 liabilities;\n    uint256 outstandingInterest;\n  }\n  mapping (address => Account) _accounts;\n\n  struct Loan {\n    uint256 principle;\n    uint256 expiry;\n    bool isApproved;\n    uint256 signedAt;\n    uint256 createdAt;\n    uint256 interest;\n  }\n  // _loans[lendor][debtor]\n  mapping (address => mapping (address => Loan[])) _loans;\n  mapping (address => mapping (address => uint256[])) _loanIndicies;\n\n  /* Events\n  *\n  *\n  */\n  event loanOffer(\n    address indexed lendor,\n    uint256 indexed index,\n    address indexed debtor\n  );\n\n  event loanSign(\n    address indexed lendor,\n    uint256 indexed index,\n    address indexed debtor\n  );\n\n  event loanRepaid(\n    address indexed lendor,\n    uint256 indexed index,\n    address indexed debtor\n  );\n\n  /* Constructor\n  *\n  */\n  constructor(\n    uint256 initialAmount,\n    address daiAddress,\n    address uniswapV2FactoryAddress,\n    address uniswapV2Router02Address,\n    address slidingWindowOracleAddress\n  )\n  ERC20(\n    'Federal Reserve Everyone Network',\n    'FREN'\n  )\n  {\n    daiToken = Stub.sDaiToken(daiAddress);\n    uniswapV2Factory = Stub.sUniswapV2Factory(uniswapV2FactoryAddress);\n    uniswapPairAddress = uniswapV2Factory.createPair(daiAddress, address(this));\n    slidingWindowOracle = Stub.sSlidingWindowOracle(slidingWindowOracleAddress);\n    _mint(msg.sender, initialAmount);\n    reserveRequirement = DecimalMath.unit(ERC20.decimals());\n\n  }\n\n  function daiReserve() public view returns (uint256){\n    return daiToken.balanceOf(address(this));\n  }\n\n  /* Reserve req Mod\n  *\n  */\n\n  function update() internal {\n    /* (1 / rr)*total_supply = total_supply + diff\n    * internal system tracts 1 - rr for easier comparison in modifiers\n    * system not 100% sensitive, moves at 1 / 24 th \n    */\n\n    // the reserve Multiplier approximates the anticipated growth in Fren supply given a reserve ratio\n    // FREN adjusts this reserve ratio to generate positive or negative divergence in the money field\n    // to maintain orbit around the 1:1 peg\n    uint unity = DecimalMath.unit(ERC20.decimals());\n    // M = 1 - ( 1 / rr)\n    uint reserveMultiplier_t_0 = DecimalMath.subd(\n      unity,\n      DecimalMath.divd(\n        unity,\n        reserveRequirement\n      )\n    );\n    \n    (\n      uint fren_reserve,\n      uint dai_reserve,\n      uint last_block_timestap\n    ) = Stub.sUniswapV2Pair(\n      Helpers.pairFor(\n        address(uniswapV2Factory),\n        address(daiToken),\n        address(this)\n      )\n    ).getReserves();\n    if (fren_reserve <= dai_reserve) {\n     uint difference = dai_reserve.sub(fren_reserve);\n     uint reserveMultiplier_t_1 = DecimalMath.divd(\n       difference,\n       ERC20.totalSupply()\n     ) + unity;\n     uint reserveMulDiff = DecimalMath.subd(\n       reserveMultiplier_t_1,\n       reserveMultiplier_t_0\n     );\n     uint delta = DecimalMath.divd(\n       reserveMulDiff,\n       DecimalMath.muld(24, unity)\n     );\n     reserveMultiplier_t_1 = DecimalMath.subd(\n      reserveMultiplier_t_1,\n      delta\n     );\n     reserveRequirement = DecimalMath.subd(\n       unity,\n       DecimalMath.divd(\n        unity,\n        reserveMultiplier_t_1\n       )\n     );\n    } else {\n\n     uint difference = fren_reserve.sub(dai_reserve);\n     uint reserveMultiplier_t_1 = DecimalMath.divd(\n       difference,\n       ERC20.totalSupply()\n     ) + unity;\n     uint reserveMulDiff = DecimalMath.subd(\n       reserveMultiplier_t_0,\n       reserveMultiplier_t_1\n     );\n     uint delta = DecimalMath.divd(\n       reserveMulDiff,\n       DecimalMath.muld(24, unity)\n     );\n     reserveMultiplier_t_1 = DecimalMath.addd(\n      reserveMultiplier_t_1,\n      delta\n     );\n     reserveRequirement = DecimalMath.addd(\n       unity,\n       DecimalMath.divd(\n        unity,\n        reserveMultiplier_t_1\n       )\n     );\n    }\n    \n\n     /* using oracle weighted prices is probably alot smarter than the state of the pool at whatever position the miner wants it in a block\n    (uint timestamp_t_1, uint fren_t_1, uint dai_t_1 ) = slidingWindowOracle.pairObservations(uniswapPairAddress, pairIndex);\n    int pair_t_1 = Fixidity.divide(int(fren_t_1), int(dai_t_1));\n    \n    (uint timestamp_t_0, uint fren_t_0, uint dai_t_0 ) = slidingWindowOracle.pairObservations(uniswapPairAddress, pairIndex--);\n    int pair_t_0 = Fixidity.divide(int(fren_t_0), int(dai_t_0));\n    if (pair_t_1 >= pair_t_0) { // (+)\n      uint256 frenShortage = \n      // changeReserveRatio to send back to 1\n\n\n      uint multiplier = Helpers.percent(1 * ERC20.decimals(), reserveRequirement, ERC20.decimals());\n    } else { // (-) \n      \n    }\n\n    */\n    // why use oracle prices when i can query reserve of liquidity pool?\n    //uint8 pairIndex = slidingWindowOracle.observationIndexOf(block.timestamp);\n    //slidingWindowOracle.update(address(this), address(daiToken));\n    \n    //if (pairIndex == 0) { return; } // pass first delta\n    \n    // determine price vector t_0 and t_1\n    // if (+)\n    // reduce reserve requirement so the money multiplier re balances to 1:1\n    // if (-)\n    // tighten reserve requirement to the mony multiple re balances to 1:1\n\n  }\n \n    function getReserves() public view returns (uint fren, uint dai, uint last_timestamp) {\n    (\n      uint fren,\n      uint dai,\n      uint last_block_timestamp\n    ) = Stub.sUniswapV2Pair(\n      Helpers.pairFor(\n        address(uniswapV2Factory),\n        address(daiToken),\n        address(this)\n      )\n    ).getReserves();\n    return (fren, dai, last_block_timestamp);\n  }\n\n  function timeAdjustedRR(\n    address account,\n    uint256 expiryDate\n  ) public view returns(uint256) {\n    Account memory relevantAccount = _accounts[account];\n    // higher numbers further in time\n    uint256 lengthOfTimeInS = expiryDate - block.timestamp;\n    uint256 dayInS = 3600*24;\n    // i believe this floors, is this satisfactory on the edge?\n    uint256 daysTillExpiry = lengthOfTimeInS / dayInS;\n    \n    if (daysTillExpiry < 365) {\n      uint256 increment = reserveRequirement / 365;\n      return daysTillExpiry*increment;\n    }\n    return reserveRequirement;\n  }\n\n  modifier isWithinReserveRatio(\n    address lendor,\n    uint256 amount\n  ) {\n    Account memory account = _accounts[lendor];\n    uint proportion = DecimalMath.divd(\n      account.credibilityPoints,\n      totalCredibilityPoints\n    );\n    uint256 balance = balanceOf(lendor);\n    uint currentRatio = DecimalMath.divd(\n      account.liabilities + amount,\n      balance\n    );\n    uint activeRequirement = DecimalMath.muld(\n      proportion,\n      reserveRequirement\n    );\n    require(currentRatio <= activeRequirement, \"apologies, reserve requirement exceeded\");\n    _;\n  }\n\n  modifier isLoanOfferWithinReserveRatio(\n    address lendor,\n    uint256 amount,\n    uint256 expiry\n  ) {\n    Account memory account = _accounts[lendor];\n    uint256 balance = balanceOf(lendor);\n    uint256 currentRatio = Helpers.percent(account.liabilities + amount, balance, 18);\n    require(currentRatio <= timeAdjustedRR(lendor, expiry), \"apologies, reserve requirement exceeded\");\n    _;\n  }\n\n  /* Overrides\n  *\n  */\n \n\n  /* Loans\n  *\n  */\n \n  function offerLoan(\n    address debtor,\n    uint256 amount,\n    uint256 expiry,\n    uint256 interest\n  ) isLoanOfferWithinReserveRatio(\n      msg.sender,\n      amount,\n      expiry\n    )\n  external {\n    // minimum day\n    require((expiry - block.timestamp) > 3600*24, 'loans must be at least a 24h');\n    Loan memory newLoan = Loan(amount, expiry, false, block.timestamp, 0, interest);\n    // _loans[lendor][debtor]\n    _loans[msg.sender][debtor].push(newLoan);\n    uint256 index = _loans[msg.sender][debtor].length;\n    _loanIndicies[msg.sender][debtor].push(index);\n\n    emit loanOffer(msg.sender, index, debtor);\n  }\n  \n  function signLoan(\n    address lendor,\n    uint256 index\n  ) isWithinReserveRatio(\n      lendor,\n      _loans[lendor][msg.sender][index - 1].principle\n  ) external {\n    // state\n    Loan storage loan = _loans[lendor][msg.sender][index - 1];\n    Account storage lendorAccount = _accounts[lendor];\n    Account storage debtorAccount = _accounts[msg.sender];\n    \n    // change balances\n    debtorAccount.liabilities.add(loan.principle + loan.interest);\n    lendorAccount.assets.add(loan.principle + loan.interest);\n    lendorAccount.liabilities += loan.principle;\n \n    loan.isApproved = true;\n    loan.signedAt = block.timestamp; \n    \n    _mint(msg.sender, loan.principle);\n    // change globals\n    //_outstandingInterest += loan.interest;\n\n    slidingWindowOracle.update(address(daiToken), address(this));\n    emit loanSign(lendor, index, msg.sender);\n  }\n  \n  function repayLoan(\n    address lendor,\n    uint256 index\n  ) \n  external {\n    Loan storage loan = _loans[lendor][msg.sender][index - 1];\n    //uncommented for testing purpose\n    //require(block.timestamp >= loan.expiry, 'loans must be expired before they are repaid');\n    Account storage debtorAccount = _accounts[msg.sender];\n    uint256  debtorBalance = balanceOf(msg.sender);\n    Account storage lendorAccount = _accounts[lendor];\n    require(\n      debtorBalance >= loan.principle + loan.interest, 'insufficent funds'\n    );\n\n    _transfer(msg.sender, lendor, loan.interest);\n    _burn(msg.sender, loan.principle);\n    \n    debtorAccount.liabilities.sub(loan.principle + loan.interest);\n    debtorAccount.credibilityPoints.add(loan.principle + loan.interest);\n    totalCredibilityPoints.add(loan.principle + loan.interest);\n    \n    lendorAccount.assets.sub(loan.principle + loan.interest);\n    lendorAccount.liabilities.sub(loan.principle);\n    lendorAccount.credibilityPoints.add(loan.principle + loan.interest);\n    totalCredibilityPoints.add(loan.principle + loan.interest);\n    \n    //_outstandingInterest -= loan.interest;\n    emit loanRepaid(lendor, index, msg.sender);\n  }\n\n  function assetsOf(address holder) external view returns (uint256) {\n    Account memory account = _accounts[holder];\n    return account.assets;  \n  }\n\n  function liabilitiesOf(address holder) external view returns (uint256) {\n    Account memory account = _accounts[holder];\n    return account.liabilities;  \n  }\n\n\n\n}\n",
  "sourcePath": "/home/taylor/ff2/contracts/ff2/FREN.sol",
  "compiler": {
    "name": "solc",
    "version": "0.7.1+commit.f4a555be.Emscripten.clang"
  },
  "schemaVersion": "3.3.0",
  "updatedAt": "2020-10-21T22:06:08.159Z",
  "networkType": "ethereum",
  "devdoc": {
    "kind": "dev",
    "methods": {
      "allowance(address,address)": {
        "details": "See {IERC20-allowance}."
      },
      "approve(address,uint256)": {
        "details": "See {IERC20-approve}. Requirements: - `spender` cannot be the zero address."
      },
      "balanceOf(address)": {
        "details": "See {IERC20-balanceOf}."
      },
      "decimals()": {
        "details": "Returns the number of decimals used to get its user representation. For example, if `decimals` equals `2`, a balance of `505` tokens should be displayed to a user as `5,05` (`505 / 10 ** 2`). Tokens usually opt for a value of 18, imitating the relationship between Ether and Wei. This is the value {ERC20} uses, unless {_setupDecimals} is called. NOTE: This information is only used for _display_ purposes: it in no way affects any of the arithmetic of the contract, including {IERC20-balanceOf} and {IERC20-transfer}."
      },
      "decreaseAllowance(address,uint256)": {
        "details": "Atomically decreases the allowance granted to `spender` by the caller. This is an alternative to {approve} that can be used as a mitigation for problems described in {IERC20-approve}. Emits an {Approval} event indicating the updated allowance. Requirements: - `spender` cannot be the zero address. - `spender` must have allowance for the caller of at least `subtractedValue`."
      },
      "increaseAllowance(address,uint256)": {
        "details": "Atomically increases the allowance granted to `spender` by the caller. This is an alternative to {approve} that can be used as a mitigation for problems described in {IERC20-approve}. Emits an {Approval} event indicating the updated allowance. Requirements: - `spender` cannot be the zero address."
      },
      "name()": {
        "details": "Returns the name of the token."
      },
      "symbol()": {
        "details": "Returns the symbol of the token, usually a shorter version of the name."
      },
      "totalSupply()": {
        "details": "See {IERC20-totalSupply}."
      },
      "transfer(address,uint256)": {
        "details": "See {IERC20-transfer}. Requirements: - `recipient` cannot be the zero address. - the caller must have a balance of at least `amount`."
      },
      "transferFrom(address,address,uint256)": {
        "details": "See {IERC20-transferFrom}. Emits an {Approval} event indicating the updated allowance. This is not required by the EIP. See the note at the beginning of {ERC20}; Requirements: - `sender` and `recipient` cannot be the zero address. - `sender` must have a balance of at least `amount`. - the caller must have allowance for ``sender``'s tokens of at least `amount`."
      }
    },
    "version": 1
  },
  "userdoc": {
    "kind": "user",
    "methods": {},
    "version": 1
  }
}