{
  "contractName": "FiatFrenzy",
  "abi": [
    {
      "inputs": [
        {
          "name": "defaultOperators",
          "type": "address[]"
        }
      ],
      "payable": false,
      "stateMutability": "nonpayable",
      "type": "constructor"
    },
    {
      "anonymous": false,
      "inputs": [
        {
          "indexed": true,
          "name": "from",
          "type": "address"
        },
        {
          "indexed": true,
          "name": "to",
          "type": "address"
        },
        {
          "indexed": false,
          "name": "amount",
          "type": "uint256"
        },
        {
          "indexed": false,
          "name": "data",
          "type": "bytes"
        }
      ],
      "name": "Sent",
      "type": "event"
    },
    {
      "anonymous": false,
      "inputs": [
        {
          "indexed": true,
          "name": "operator",
          "type": "address"
        },
        {
          "indexed": true,
          "name": "holder",
          "type": "address"
        }
      ],
      "name": "AuthorizedOperator",
      "type": "event"
    },
    {
      "anonymous": false,
      "inputs": [
        {
          "indexed": true,
          "name": "operator",
          "type": "address"
        },
        {
          "indexed": true,
          "name": "holder",
          "type": "address"
        }
      ],
      "name": "RevokedOperator",
      "type": "event"
    },
    {
      "anonymous": false,
      "inputs": [
        {
          "indexed": true,
          "name": "_operator",
          "type": "address"
        },
        {
          "indexed": true,
          "name": "_to",
          "type": "address"
        },
        {
          "indexed": false,
          "name": "_amount",
          "type": "uint256"
        }
      ],
      "name": "Minted",
      "type": "event"
    },
    {
      "anonymous": false,
      "inputs": [
        {
          "indexed": true,
          "name": "_lendor",
          "type": "address"
        },
        {
          "indexed": true,
          "name": "_index",
          "type": "uint256"
        },
        {
          "indexed": true,
          "name": "_debtor",
          "type": "address"
        }
      ],
      "name": "loanOffer",
      "type": "event"
    },
    {
      "anonymous": false,
      "inputs": [
        {
          "indexed": true,
          "name": "_lendor",
          "type": "address"
        },
        {
          "indexed": true,
          "name": "_index",
          "type": "uint256"
        },
        {
          "indexed": true,
          "name": "_debtor",
          "type": "address"
        }
      ],
      "name": "loanSign",
      "type": "event"
    },
    {
      "anonymous": false,
      "inputs": [
        {
          "indexed": true,
          "name": "_lendor",
          "type": "address"
        },
        {
          "indexed": true,
          "name": "_index",
          "type": "uint256"
        },
        {
          "indexed": true,
          "name": "_debtor",
          "type": "address"
        }
      ],
      "name": "loanRepaid",
      "type": "event"
    },
    {
      "constant": true,
      "inputs": [
        {
          "name": "expiryDate",
          "type": "uint256"
        }
      ],
      "name": "timeAdjustedRR",
      "outputs": [
        {
          "name": "",
          "type": "uint256"
        }
      ],
      "payable": false,
      "stateMutability": "view",
      "type": "function"
    },
    {
      "constant": true,
      "inputs": [],
      "name": "name",
      "outputs": [
        {
          "name": "",
          "type": "string"
        }
      ],
      "payable": false,
      "stateMutability": "view",
      "type": "function"
    },
    {
      "constant": true,
      "inputs": [],
      "name": "symbol",
      "outputs": [
        {
          "name": "",
          "type": "string"
        }
      ],
      "payable": false,
      "stateMutability": "view",
      "type": "function"
    },
    {
      "constant": true,
      "inputs": [],
      "name": "reserveRequirement",
      "outputs": [
        {
          "name": "",
          "type": "uint256"
        }
      ],
      "payable": false,
      "stateMutability": "view",
      "type": "function"
    },
    {
      "constant": true,
      "inputs": [],
      "name": "totalSupply",
      "outputs": [
        {
          "name": "",
          "type": "uint256"
        }
      ],
      "payable": false,
      "stateMutability": "view",
      "type": "function"
    },
    {
      "constant": true,
      "inputs": [
        {
          "name": "holder",
          "type": "address"
        }
      ],
      "name": "balanceOf",
      "outputs": [
        {
          "name": "",
          "type": "uint256"
        }
      ],
      "payable": false,
      "stateMutability": "view",
      "type": "function"
    },
    {
      "constant": true,
      "inputs": [
        {
          "name": "holder",
          "type": "address"
        }
      ],
      "name": "assetsOf",
      "outputs": [
        {
          "name": "",
          "type": "uint256"
        }
      ],
      "payable": false,
      "stateMutability": "view",
      "type": "function"
    },
    {
      "constant": true,
      "inputs": [
        {
          "name": "holder",
          "type": "address"
        }
      ],
      "name": "liabilitiesOf",
      "outputs": [
        {
          "name": "",
          "type": "uint256"
        }
      ],
      "payable": false,
      "stateMutability": "view",
      "type": "function"
    },
    {
      "constant": true,
      "inputs": [],
      "name": "granularity",
      "outputs": [
        {
          "name": "",
          "type": "uint256"
        }
      ],
      "payable": false,
      "stateMutability": "view",
      "type": "function"
    },
    {
      "constant": true,
      "inputs": [],
      "name": "defaultOperators",
      "outputs": [
        {
          "name": "",
          "type": "address[]"
        }
      ],
      "payable": false,
      "stateMutability": "view",
      "type": "function"
    },
    {
      "constant": true,
      "inputs": [
        {
          "name": "operator",
          "type": "address"
        },
        {
          "name": "tokenHolder",
          "type": "address"
        }
      ],
      "name": "isOperatorFor",
      "outputs": [
        {
          "name": "",
          "type": "bool"
        }
      ],
      "payable": false,
      "stateMutability": "view",
      "type": "function"
    },
    {
      "constant": false,
      "inputs": [
        {
          "name": "operator",
          "type": "address"
        }
      ],
      "name": "authorizeOperator",
      "outputs": [],
      "payable": false,
      "stateMutability": "nonpayable",
      "type": "function"
    },
    {
      "constant": false,
      "inputs": [
        {
          "name": "operator",
          "type": "address"
        }
      ],
      "name": "revokeOperator",
      "outputs": [],
      "payable": false,
      "stateMutability": "nonpayable",
      "type": "function"
    },
    {
      "constant": false,
      "inputs": [
        {
          "name": "to",
          "type": "address"
        },
        {
          "name": "amount",
          "type": "uint256"
        }
      ],
      "name": "operatorMint",
      "outputs": [],
      "payable": true,
      "stateMutability": "payable",
      "type": "function"
    },
    {
      "constant": false,
      "inputs": [
        {
          "name": "to",
          "type": "address"
        },
        {
          "name": "amount",
          "type": "uint256"
        },
        {
          "name": "data",
          "type": "bytes"
        }
      ],
      "name": "send",
      "outputs": [],
      "payable": false,
      "stateMutability": "nonpayable",
      "type": "function"
    },
    {
      "constant": false,
      "inputs": [
        {
          "name": "debtor",
          "type": "address"
        },
        {
          "name": "amount",
          "type": "uint256"
        },
        {
          "name": "expiry",
          "type": "uint256"
        }
      ],
      "name": "offerLoan",
      "outputs": [],
      "payable": false,
      "stateMutability": "nonpayable",
      "type": "function"
    },
    {
      "constant": true,
      "inputs": [
        {
          "name": "lendor",
          "type": "address"
        },
        {
          "name": "debtor",
          "type": "address"
        }
      ],
      "name": "getLoanIndex",
      "outputs": [
        {
          "name": "",
          "type": "uint256"
        }
      ],
      "payable": false,
      "stateMutability": "view",
      "type": "function"
    },
    {
      "constant": true,
      "inputs": [
        {
          "name": "lendor",
          "type": "address"
        },
        {
          "name": "debtor",
          "type": "address"
        },
        {
          "name": "index",
          "type": "uint256"
        }
      ],
      "name": "getLoan",
      "outputs": [
        {
          "name": "",
          "type": "uint256"
        },
        {
          "name": "",
          "type": "uint256"
        },
        {
          "name": "",
          "type": "bool"
        }
      ],
      "payable": false,
      "stateMutability": "view",
      "type": "function"
    },
    {
      "constant": false,
      "inputs": [
        {
          "name": "lendor",
          "type": "address"
        },
        {
          "name": "index",
          "type": "uint256"
        }
      ],
      "name": "signLoan",
      "outputs": [],
      "payable": false,
      "stateMutability": "nonpayable",
      "type": "function"
    },
    {
      "constant": true,
      "inputs": [
        {
          "name": "lendor",
          "type": "address"
        }
      ],
      "name": "getDebtIndex",
      "outputs": [
        {
          "name": "",
          "type": "uint256"
        }
      ],
      "payable": false,
      "stateMutability": "view",
      "type": "function"
    },
    {
      "constant": false,
      "inputs": [
        {
          "name": "lendor",
          "type": "address"
        },
        {
          "name": "index",
          "type": "uint256"
        }
      ],
      "name": "repayLoan",
      "outputs": [],
      "payable": false,
      "stateMutability": "nonpayable",
      "type": "function"
    }
  ],
  "bytecode": "0x60806040523480156200001157600080fd5b5060405162002d8538038062002d85833981018060405260208110156200003757600080fd5b8101908080516401000000008111156200005057600080fd5b828101905060208101848111156200006757600080fd5b81518560208202830111640100000000821117156200008557600080fd5b50509291905050506040518060400160405280600b81526020017f46696174204672656e7a7900000000000000000000000000000000000000000081525060009080519060200190620000da929190620002fb565b506040518060400160405280600581526020017f46524e5a590000000000000000000000000000000000000000000000000000008152506001908051906020019062000128929190620002fb565b50600160038190555073__Helpers_______________________________622c1a9e650f9d297a859d6519438b44a65860096040518463ffffffff1660e01b815260040180848152602001838152602001828152602001935050505060206040518083038186803b1580156200019d57600080fd5b505af4158015620001b2573d6000803e3d6000fd5b505050506040513d6020811015620001c957600080fd5b81019080805190602001909291905050506008819055508060049080519060200190620001f892919062000382565b5060008090505b600480549050811015620002ab57600160056000600484815481106200022157fe5b9060005260206000200160009054906101000a900473ffffffffffffffffffffffffffffffffffffffff1673ffffffffffffffffffffffffffffffffffffffff1673ffffffffffffffffffffffffffffffffffffffff16815260200190815260200160002060006101000a81548160ff0219169083151502179055508080600101915050620001ff565b506064600960003373ffffffffffffffffffffffffffffffffffffffff1673ffffffffffffffffffffffffffffffffffffffff16815260200190815260200160002060000181905550506200047f565b828054600181600116156101000203166002900490600052602060002090601f016020900481019282601f106200033e57805160ff19168380011785556200036f565b828001600101855582156200036f579182015b828111156200036e57825182559160200191906001019062000351565b5b5090506200037e919062000411565b5090565b828054828255906000526020600020908101928215620003fe579160200282015b82811115620003fd5782518260006101000a81548173ffffffffffffffffffffffffffffffffffffffff021916908373ffffffffffffffffffffffffffffffffffffffff16021790555091602001919060010190620003a3565b5b5090506200040d919062000439565b5090565b6200043691905b808211156200043257600081600090555060010162000418565b5090565b90565b6200047c91905b808211156200047857600081816101000a81549073ffffffffffffffffffffffffffffffffffffffff02191690555060010162000440565b5090565b90565b6128f6806200048f6000396000f3fe60806040526004361061012a5760003560e01c806393a595f5116100ab578063bca48c081161006f578063bca48c0814610716578063c9dfd1a914610771578063d95b637114610812578063ef685ae61461089b578063f59d6429146108e9578063fad8b32a146109385761012a565b806393a595f5146104c5578063959b8c3f1461052057806395d89b41146105715780639bd9bbc6146106015780639f17856b146106b15761012a565b8063556f0dc7116100f2578063556f0dc7146103205780636166c4611461034b57806370a08231146103d05780637f3c587e146104355780638638110e146104605761012a565b806306e485381461012f57806306fdde031461019b57806318160ddd1461022b578063260c74f9146102565780632c62fa10146102bb575b600080fd5b34801561013b57600080fd5b50610144610989565b6040518080602001828103825283818151815260200191508051906020019060200280838360005b8381101561018757808201518184015260208101905061016c565b505050509050019250505060405180910390f35b3480156101a757600080fd5b506101b0610a17565b6040518080602001828103825283818151815260200191508051906020019080838360005b838110156101f05780820151818401526020810190506101d5565b50505050905090810190601f16801561021d5780820380516001836020036101000a031916815260200191505b509250505060405180910390f35b34801561023757600080fd5b50610240610ab9565b6040518082815260200191505060405180910390f35b34801561026257600080fd5b506102b96004803603606081101561027957600080fd5b81019080803573ffffffffffffffffffffffffffffffffffffffff1690602001909291908035906020019092919080359060200190929190505050610ac3565b005b3480156102c757600080fd5b5061030a600480360360208110156102de57600080fd5b81019080803573ffffffffffffffffffffffffffffffffffffffff169060200190929190505050610ff7565b6040518082815260200191505060405180910390f35b34801561032c57600080fd5b50610335611078565b6040518082815260200191505060405180910390f35b34801561035757600080fd5b506103ba6004803603604081101561036e57600080fd5b81019080803573ffffffffffffffffffffffffffffffffffffffff169060200190929190803573ffffffffffffffffffffffffffffffffffffffff169060200190929190505050611082565b6040518082815260200191505060405180910390f35b3480156103dc57600080fd5b5061041f600480360360208110156103f357600080fd5b81019080803573ffffffffffffffffffffffffffffffffffffffff169060200190929190505050611111565b6040518082815260200191505060405180910390f35b34801561044157600080fd5b5061044a611192565b6040518082815260200191505060405180910390f35b34801561046c57600080fd5b506104af6004803603602081101561048357600080fd5b81019080803573ffffffffffffffffffffffffffffffffffffffff16906020019092919050505061119c565b6040518082815260200191505060405180910390f35b3480156104d157600080fd5b5061051e600480360360408110156104e857600080fd5b81019080803573ffffffffffffffffffffffffffffffffffffffff1690602001909291908035906020019092919050505061121d565b005b34801561052c57600080fd5b5061056f6004803603602081101561054357600080fd5b81019080803573ffffffffffffffffffffffffffffffffffffffff169060200190929190505050611459565b005b34801561057d57600080fd5b506105866116c1565b6040518080602001828103825283818151815260200191508051906020019080838360005b838110156105c65780820151818401526020810190506105ab565b50505050905090810190601f1680156105f35780820380516001836020036101000a031916815260200191505b509250505060405180910390f35b34801561060d57600080fd5b506106af6004803603606081101561062457600080fd5b81019080803573ffffffffffffffffffffffffffffffffffffffff169060200190929190803590602001909291908035906020019064010000000081111561066b57600080fd5b82018360208201111561067d57600080fd5b8035906020019184600183028401116401000000008311171561069f57600080fd5b9091929391929390505050611763565b005b3480156106bd57600080fd5b50610700600480360360208110156106d457600080fd5b81019080803573ffffffffffffffffffffffffffffffffffffffff169060200190929190505050611a0b565b6040518082815260200191505060405180910390f35b34801561072257600080fd5b5061076f6004803603604081101561073957600080fd5b81019080803573ffffffffffffffffffffffffffffffffffffffff16906020019092919080359060200190929190505050611a94565b005b34801561077d57600080fd5b506107ea6004803603606081101561079457600080fd5b81019080803573ffffffffffffffffffffffffffffffffffffffff169060200190929190803573ffffffffffffffffffffffffffffffffffffffff16906020019092919080359060200190929190505050611eac565b6040518084815260200183815260200182151515158152602001935050505060405180910390f35b34801561081e57600080fd5b506108816004803603604081101561083557600080fd5b81019080803573ffffffffffffffffffffffffffffffffffffffff169060200190929190803573ffffffffffffffffffffffffffffffffffffffff169060200190929190505050611fc0565b604051808215151515815260200191505060405180910390f35b6108e7600480360360408110156108b157600080fd5b81019080803573ffffffffffffffffffffffffffffffffffffffff16906020019092919080359060200190929190505050612171565b005b3480156108f557600080fd5b506109226004803603602081101561090c57600080fd5b810190808035906020019092919050505061236c565b6040518082815260200191505060405180910390f35b34801561094457600080fd5b506109876004803603602081101561095b57600080fd5b81019080803573ffffffffffffffffffffffffffffffffffffffff1690602001909291905050506123cd565b005b60606004805480602002602001604051908101604052809291908181526020018280548015610a0d57602002820191906000526020600020905b8160009054906101000a900473ffffffffffffffffffffffffffffffffffffffff1673ffffffffffffffffffffffffffffffffffffffff16815260200190600101908083116109c3575b5050505050905090565b606060008054600181600116156101000203166002900480601f016020809104026020016040519081016040528092919081815260200182805460018160011615610100020316600290048015610aaf5780601f10610a8457610100808354040283529160200191610aaf565b820191906000526020600020905b815481529060010190602001808311610a9257829003601f168201915b5050505050905090565b6000600254905090565b8160006003548281610ad157fe5b0614610b45576040517f08c379a000000000000000000000000000000000000000000000000000000000815260040180806020018281038252600c8152602001807f6d617468207761726e696e67000000000000000000000000000000000000000081525060200191505060405180910390fd5b338383610b50612803565b600960008573ffffffffffffffffffffffffffffffffffffffff1673ffffffffffffffffffffffffffffffffffffffff16815260200190815260200160002060405180606001604052908160008201548152602001600182015481526020016002820154815250509050600073__Helpers_______________________________622c1a9e85846040015101846000015160096040518463ffffffff1660e01b815260040180848152602001838152602001828152602001935050505060206040518083038186803b158015610c2557600080fd5b505af4158015610c39573d6000803e3d6000fd5b505050506040513d6020811015610c4f57600080fd5b81019080805190602001909291905050509050610c6b8361236c565b811115610cc3576040517f08c379a00000000000000000000000000000000000000000000000000000000081526004018080602001828103825260278152602001806128826027913960400191505060405180910390fd5b6201518042880311610d3d576040517f08c379a000000000000000000000000000000000000000000000000000000000815260040180806020018281038252601c8152602001807f6c6f616e73206d757374206265206174206c656173742061203234680000000081525060200191505060405180910390fd5b610d45612824565b6040518060a001604052808a815260200189815260200160001515815260200142815260200160008152509050600a60003373ffffffffffffffffffffffffffffffffffffffff1673ffffffffffffffffffffffffffffffffffffffff16815260200190815260200160002060008b73ffffffffffffffffffffffffffffffffffffffff1673ffffffffffffffffffffffffffffffffffffffff1681526020019081526020016000208190806001815401808255809150509060018203906000526020600020906005020160009091929091909150600082015181600001556020820151816001015560408201518160020160006101000a81548160ff02191690831515021790555060608201518160030155608082015181600401555050506000600a60003373ffffffffffffffffffffffffffffffffffffffff1673ffffffffffffffffffffffffffffffffffffffff16815260200190815260200160002060008c73ffffffffffffffffffffffffffffffffffffffff1673ffffffffffffffffffffffffffffffffffffffff168152602001908152602001600020805490509050600b60003373ffffffffffffffffffffffffffffffffffffffff1673ffffffffffffffffffffffffffffffffffffffff16815260200190815260200160002060008c73ffffffffffffffffffffffffffffffffffffffff1673ffffffffffffffffffffffffffffffffffffffff1681526020019081526020016000208190806001815401808255809150509060018203906000526020600020016000909192909190915055508a73ffffffffffffffffffffffffffffffffffffffff16813373ffffffffffffffffffffffffffffffffffffffff167f70c9e256e5590a7520512b88293528b2c0c7ecf3c36695181926988987156b6760405160405180910390a45050505050505050505050565b6000611001612803565b600960008473ffffffffffffffffffffffffffffffffffffffff1673ffffffffffffffffffffffffffffffffffffffff168152602001908152602001600020604051806060016040529081600082015481526020016001820154815260200160028201548152505090508060200151915050919050565b6000600354905090565b600080600b60008573ffffffffffffffffffffffffffffffffffffffff1673ffffffffffffffffffffffffffffffffffffffff16815260200190815260200160002060008473ffffffffffffffffffffffffffffffffffffffff1673ffffffffffffffffffffffffffffffffffffffff1681526020019081526020016000208054905090508091505092915050565b600061111b612803565b600960008473ffffffffffffffffffffffffffffffffffffffff1673ffffffffffffffffffffffffffffffffffffffff168152602001908152602001600020604051806060016040529081600082015481526020016001820154815260200160028201548152505090508060000151915050919050565b6000600854905090565b60006111a6612803565b600960008473ffffffffffffffffffffffffffffffffffffffff1673ffffffffffffffffffffffffffffffffffffffff168152602001908152602001600020604051806060016040529081600082015481526020016001820154815260200160028201548152505090508060400151915050919050565b6000600a60008473ffffffffffffffffffffffffffffffffffffffff1673ffffffffffffffffffffffffffffffffffffffff16815260200190815260200160002060003373ffffffffffffffffffffffffffffffffffffffff1673ffffffffffffffffffffffffffffffffffffffff16815260200190815260200160002060018303815481106112a957fe5b906000526020600020906005020190508060010154421015611316576040517f08c379a000000000000000000000000000000000000000000000000000000000815260040180806020018281038252602c815260200180612856602c913960400191505060405180910390fd5b6000600960003373ffffffffffffffffffffffffffffffffffffffff1673ffffffffffffffffffffffffffffffffffffffff16815260200190815260200160002090506000600960008673ffffffffffffffffffffffffffffffffffffffff1673ffffffffffffffffffffffffffffffffffffffff16815260200190815260200160002090506113ab85338560000154612635565b826000015482600201600082825403925050819055508260000154816002016000828254039250508190555082600001548160010160008282540392505081905550600083600001819055503373ffffffffffffffffffffffffffffffffffffffff16848673ffffffffffffffffffffffffffffffffffffffff167ff57cc7f3bb20dfe97a6041fbb06abb7613a11ca4a5f4a3a5466d43356e6b631760405160405180910390a45050505050565b33818073ffffffffffffffffffffffffffffffffffffffff168273ffffffffffffffffffffffffffffffffffffffff1614156114e0576040517f08c379a00000000000000000000000000000000000000000000000000000000081526004018080602001828103825260228152602001806128a96022913960400191505060405180910390fd5b600560008473ffffffffffffffffffffffffffffffffffffffff1673ffffffffffffffffffffffffffffffffffffffff16815260200190815260200160002060009054906101000a900460ff16156115cc576000600660008573ffffffffffffffffffffffffffffffffffffffff1673ffffffffffffffffffffffffffffffffffffffff16815260200190815260200160002060003373ffffffffffffffffffffffffffffffffffffffff1673ffffffffffffffffffffffffffffffffffffffff16815260200190815260200160002060006101000a81548160ff021916908315150217905550611662565b6001600760008573ffffffffffffffffffffffffffffffffffffffff1673ffffffffffffffffffffffffffffffffffffffff16815260200190815260200160002060003373ffffffffffffffffffffffffffffffffffffffff1673ffffffffffffffffffffffffffffffffffffffff16815260200190815260200160002060006101000a81548160ff0219169083151502179055505b3373ffffffffffffffffffffffffffffffffffffffff168373ffffffffffffffffffffffffffffffffffffffff167ff4caeb2d6ca8932a215a353d0703c326ec2d81fc68170f320eb2ab49e9df61f960405160405180910390a3505050565b606060018054600181600116156101000203166002900480601f0160208091040260200160405190810160405280929190818152602001828054600181600116156101000203166002900480156117595780601f1061172e57610100808354040283529160200191611759565b820191906000526020600020905b81548152906001019060200180831161173c57829003601f168201915b5050505050905090565b826000600354828161177157fe5b06146117e5576040517f08c379a000000000000000000000000000000000000000000000000000000000815260040180806020018281038252600c8152602001807f6d617468207761726e696e67000000000000000000000000000000000000000081525060200191505060405180910390fd5b33846117ef612803565b600960008473ffffffffffffffffffffffffffffffffffffffff1673ffffffffffffffffffffffffffffffffffffffff16815260200190815260200160002060405180606001604052908160008201548152602001600182015481526020016002820154815250509050600073__Helpers_______________________________622c1a9e84846040015101846000015160096040518463ffffffff1660e01b815260040180848152602001838152602001828152602001935050505060206040518083038186803b1580156118c457600080fd5b505af41580156118d8573d6000803e3d6000fd5b505050506040513d60208110156118ee57600080fd5b8101908080519060200190929190505050905060085481111561195c576040517f08c379a00000000000000000000000000000000000000000000000000000000081526004018080602001828103825260278152602001806128826027913960400191505060405180910390fd5b61196789338a612635565b8873ffffffffffffffffffffffffffffffffffffffff163373ffffffffffffffffffffffffffffffffffffffff167f9d4246230aaa870ac56b8caa1eaa5463c39e11b0d8f36bfc6294816367f9d1948a8a8a60405180848152602001806020018281038252848482818152602001925080828437600081840152601f19601f82011690508083019250505094505050505060405180910390a3505050505050505050565b6000600a60008373ffffffffffffffffffffffffffffffffffffffff1673ffffffffffffffffffffffffffffffffffffffff16815260200190815260200160002060003373ffffffffffffffffffffffffffffffffffffffff1673ffffffffffffffffffffffffffffffffffffffff168152602001908152602001600020805490509050919050565b81600a60008473ffffffffffffffffffffffffffffffffffffffff1673ffffffffffffffffffffffffffffffffffffffff16815260200190815260200160002060003373ffffffffffffffffffffffffffffffffffffffff1673ffffffffffffffffffffffffffffffffffffffff1681526020019081526020016000206001830381548110611b1f57fe5b906000526020600020906005020160000154611b39612803565b600960008473ffffffffffffffffffffffffffffffffffffffff1673ffffffffffffffffffffffffffffffffffffffff16815260200190815260200160002060405180606001604052908160008201548152602001600182015481526020016002820154815250509050600073__Helpers_______________________________622c1a9e84846040015101846000015160096040518463ffffffff1660e01b815260040180848152602001838152602001828152602001935050505060206040518083038186803b158015611c0e57600080fd5b505af4158015611c22573d6000803e3d6000fd5b505050506040513d6020811015611c3857600080fd5b81019080805190602001909291905050509050600854811115611ca6576040517f08c379a00000000000000000000000000000000000000000000000000000000081526004018080602001828103825260278152602001806128826027913960400191505060405180910390fd5b6000600a60008873ffffffffffffffffffffffffffffffffffffffff1673ffffffffffffffffffffffffffffffffffffffff16815260200190815260200160002060003373ffffffffffffffffffffffffffffffffffffffff1673ffffffffffffffffffffffffffffffffffffffff1681526020019081526020016000206001870381548110611d3257fe5b906000526020600020906005020190506000600960008973ffffffffffffffffffffffffffffffffffffffff1673ffffffffffffffffffffffffffffffffffffffff16815260200190815260200160002090506000600960003373ffffffffffffffffffffffffffffffffffffffff1673ffffffffffffffffffffffffffffffffffffffff16815260200190815260200160002090508260000154816000016000828254019250508190555082600001548160020160008282540192505081905550826000015482600201600082825401925050819055508260000154826001016000828254019250508190555060018360020160006101000a81548160ff0219169083151502179055504283600401819055503373ffffffffffffffffffffffffffffffffffffffff16888a73ffffffffffffffffffffffffffffffffffffffff167fe3b3cffda5a20d9b3256be3959f9e5a53f9fb69d3bb028f5239a0e034c7a5ae360405160405180910390a4505050505050505050565b6000806000611eb9612824565b600a60008873ffffffffffffffffffffffffffffffffffffffff1673ffffffffffffffffffffffffffffffffffffffff16815260200190815260200160002060008773ffffffffffffffffffffffffffffffffffffffff1673ffffffffffffffffffffffffffffffffffffffff1681526020019081526020016000206001860381548110611f4357fe5b90600052602060002090600502016040518060a001604052908160008201548152602001600182015481526020016002820160009054906101000a900460ff161515151581526020016003820154815260200160048201548152505090508060000151816060015182604001519350935093505093509350939050565b60008173ffffffffffffffffffffffffffffffffffffffff168373ffffffffffffffffffffffffffffffffffffffff1614806120825750600760008473ffffffffffffffffffffffffffffffffffffffff1673ffffffffffffffffffffffffffffffffffffffff16815260200190815260200160002060008373ffffffffffffffffffffffffffffffffffffffff1673ffffffffffffffffffffffffffffffffffffffff16815260200190815260200160002060009054906101000a900460ff165b806121695750600560008473ffffffffffffffffffffffffffffffffffffffff1673ffffffffffffffffffffffffffffffffffffffff16815260200190815260200160002060009054906101000a900460ff1680156121685750600660008473ffffffffffffffffffffffffffffffffffffffff1673ffffffffffffffffffffffffffffffffffffffff16815260200190815260200160002060008373ffffffffffffffffffffffffffffffffffffffff1673ffffffffffffffffffffffffffffffffffffffff16815260200190815260200160002060009054906101000a900460ff16155b5b905092915050565b806000600354828161217f57fe5b06146121f3576040517f08c379a000000000000000000000000000000000000000000000000000000000815260040180806020018281038252600c8152602001807f6d617468207761726e696e67000000000000000000000000000000000000000081525060200191505060405180910390fd5b600560003373ffffffffffffffffffffffffffffffffffffffff1673ffffffffffffffffffffffffffffffffffffffff16815260200190815260200160002060009054906101000a900460ff166122b2576040517f08c379a00000000000000000000000000000000000000000000000000000000081526004018080602001828103825260178152602001807f6578656375746976652066756e6374696f6e206f6e6c7900000000000000000081525060200191505060405180910390fd5b81600960008573ffffffffffffffffffffffffffffffffffffffff1673ffffffffffffffffffffffffffffffffffffffff168152602001908152602001600020600001600082825401925050819055508273ffffffffffffffffffffffffffffffffffffffff163373ffffffffffffffffffffffffffffffffffffffff167f9d228d69b5fdb8d273a2336f8fb8612d039631024ea9bf09c424a9503aa078f0846040518082815260200191505060405180910390a3505050565b60008042830390506000620151809050600081838161238757fe5b0490506000633b9aca00905061016d8210156123be57600061016d600854816123ac57fe5b049050808302955050505050506123c8565b6008549450505050505b919050565b33818073ffffffffffffffffffffffffffffffffffffffff168273ffffffffffffffffffffffffffffffffffffffff161415612454576040517f08c379a00000000000000000000000000000000000000000000000000000000081526004018080602001828103825260228152602001806128a96022913960400191505060405180910390fd5b600560008473ffffffffffffffffffffffffffffffffffffffff1673ffffffffffffffffffffffffffffffffffffffff16815260200190815260200160002060009054906101000a900460ff1615612540576001600660008573ffffffffffffffffffffffffffffffffffffffff1673ffffffffffffffffffffffffffffffffffffffff16815260200190815260200160002060003373ffffffffffffffffffffffffffffffffffffffff1673ffffffffffffffffffffffffffffffffffffffff16815260200190815260200160002060006101000a81548160ff0219169083151502179055506125d6565b6000600760008573ffffffffffffffffffffffffffffffffffffffff1673ffffffffffffffffffffffffffffffffffffffff16815260200190815260200160002060003373ffffffffffffffffffffffffffffffffffffffff1673ffffffffffffffffffffffffffffffffffffffff16815260200190815260200160002060006101000a81548160ff0219169083151502179055505b3373ffffffffffffffffffffffffffffffffffffffff168373ffffffffffffffffffffffffffffffffffffffff167f50546e66e5f44d728365dc3908c63bc5cfeeab470722c1677e3073a6ac294aa160405160405180910390a3505050565b600073ffffffffffffffffffffffffffffffffffffffff168373ffffffffffffffffffffffffffffffffffffffff1614156126d8576040517f08c379a00000000000000000000000000000000000000000000000000000000081526004018080602001828103825260108152602001807f6e6f20746f6b656e7320746f203078300000000000000000000000000000000081525060200191505060405180910390fd5b6000600960008473ffffffffffffffffffffffffffffffffffffffff1673ffffffffffffffffffffffffffffffffffffffff16815260200190815260200160002090508181600001541015612795576040517f08c379a00000000000000000000000000000000000000000000000000000000081526004018080602001828103825260128152602001807f496e73756666696369656e742046756e6473000000000000000000000000000081525060200191505060405180910390fd5b6000600960008673ffffffffffffffffffffffffffffffffffffffff1673ffffffffffffffffffffffffffffffffffffffff16815260200190815260200160002090508282600001600082825403925050819055508281600001600082825401925050819055505050505050565b60405180606001604052806000815260200160008152602001600081525090565b6040518060a0016040528060008152602001600081526020016000151581526020016000815260200160008152509056fe6c6f616e73206d7573742062652065787069726564206265666f72652074686579206172652072657061696461706f6c6f676965732c207265736572766520726571756972656d656e74206578636565646564546869732066756e6374696f6e206973206e6f742073656c662063616c6c61626c65a165627a7a72305820a26ba76258fa29f7c290ce498d40561773e134ac93d0f041a4c34bd33de84cfe0029",
  "source": "pragma solidity 0.5.8;\nimport { IFiatFrenzy } from './IFiatFrenzy.sol';\nimport './Helpers.sol';\ncontract FiatFrenzy is IFiatFrenzy {\n  // Coin Meta\n  string internal _name;\n  string internal _symbol;\n  uint256 internal _totalSupply;\n  uint256 internal _granularity;\n  \n  event Sent(\n    address indexed from,\n    address indexed to,\n    uint256 amount,\n    bytes data\n  );\n  \n  // Operator Stuff\n  event AuthorizedOperator(\n    address indexed operator,\n    address indexed holder\n  );\n\n  event RevokedOperator(address indexed operator, address indexed holder);\n  \n  address[] internal _defaultOperators;\n  mapping(address => bool) internal _isDefaultOperator;\n  mapping(address => mapping(address => bool)) internal _revokedDefaultOperator;\n  mapping(address => mapping(address => bool)) internal _authorizedOperators;\n  \n  // Frenzy\n  uint256 _reserveRequirement;\n\n  struct Account {\n    // The number of tokens an account has\n    uint256 _balance;\n    // The number of positive loan\n    uint256 _assets;\n    // The number of negative loan\n    uint256 _liabilities;\n  }\n  mapping (address => Account) _accounts;\n  \n  struct Loan {\n    uint256 _principle;\n\t\tuint256 _expiry;\n    bool _isApproved;\n    uint256 _createdAt;\n    uint256 _signedAt;\n  }\n  // _loans[lendor][debtor]\n  mapping (address => mapping (address => Loan[])) _loans;\n  // indexer, using push to guarantee uniques\n  mapping (address => mapping (address => uint256[])) _loanIndicies;\n\n  event Minted(\n    address indexed _operator,\n    address indexed _to,\n    uint256 _amount\n  );\n\n  event loanOffer(\n    address indexed _lendor,\n    uint256 indexed _index,\n    address indexed _debtor\n  );\n\n  event loanSign(\n    address indexed _lendor,\n    uint256 indexed _index,\n    address indexed _debtor\n  );\n\n  event loanRepaid(\n    address indexed _lendor,\n    uint256 indexed _index,\n    address indexed _debtor\n  );\n\n  modifier notSelf(address sender, address target) {\n    require(sender != target, \"This function is not self callable\");\n    _;\n  }\n\n  modifier isMultipleOf(uint256 amount) {\n    require(amount % _granularity == 0, 'math warning');\n    _;\n  }\n\n\n  function timeAdjustedRR(\n    uint256 expiryDate\n  ) public view returns(uint256) {\n\t\t// higher numbers further in time\n    uint256 lengthOfTimeInS = expiryDate - now;\n    uint256 dayInS = 3600*24;\n\t\t// i believe this floors, is this satisfactory on the edge?\n    uint256 daysTillExpiry = lengthOfTimeInS / dayInS;\n\t\tuint256 not = 1000000000;\n\t\t\n\t\tif (daysTillExpiry < 365) {\n      uint256 increment = _reserveRequirement / 365;\n      return daysTillExpiry*increment;\n    }\n    return _reserveRequirement;\n  }\n\n  modifier isWithinReserveRatio(\n    address lendor,\n    uint256 amount\n  ) {\n    Account memory account = _accounts[lendor];\n    uint256 currentRatio = Helpers.percent(account._liabilities + amount, account._balance, 9);\n    require(currentRatio <= _reserveRequirement, \"apologies, reserve requirement exceeded\");\n    _;\n  }\n\n  modifier isLoanOfferWithinReserveRatio(\n    address lendor,\n    uint256 amount,\n\t\tuint256 expiry\n  ) {\n    Account memory account = _accounts[lendor];\n    uint256 currentRatio = Helpers.percent(account._liabilities + amount, account._balance, 9);\n    require(currentRatio <= timeAdjustedRR(expiry), \"apologies, reserve requirement exceeded\");\n    _;\n  }\n\n  constructor(\n    address[] memory defaultOperators\n  ) public {\n    _name = \"Fiat Frenzy\";\n    _symbol = \"FRNZY\";\n    _granularity = 1;\n    _reserveRequirement = Helpers.percent(17167680177565, 27777890035288, 9);\n    _defaultOperators = defaultOperators;\n    for (uint256 i = 0; i < _defaultOperators.length; i++) {\n      _isDefaultOperator[_defaultOperators[i]] = true;\n    }\n    // some test coins, remove for prod\n    _accounts[msg.sender]._balance = 100;\n\n  }\n\n  function name() external view returns (string memory) {\n    return _name;\n  }\n\n  function symbol() external view returns (string memory) {\n    return _symbol;\n  }\n\n  function reserveRequirement() external view returns (uint256) {\n    return _reserveRequirement;\n  }\n\n  \n  function totalSupply() external view returns (uint256) {\n    return _totalSupply;\n  }\n  \n  function balanceOf(address holder) external view returns (uint256) {\n    Account memory account = _accounts[holder];\n    return account._balance;  \n  }\n  \n  function assetsOf(address holder) external view returns (uint256) {\n    Account memory account = _accounts[holder];\n    return account._assets;  \n  }\n\n  function liabilitiesOf(address holder) external view returns (uint256) {\n    Account memory account = _accounts[holder];\n    return account._liabilities;  \n  }\n  \n  function granularity() external view returns (uint256) {\n    return _granularity;\n  }\n\n  function defaultOperators() external view returns (address[] memory) {\n    return _defaultOperators;\n  }\n\n  function isOperatorFor(\n    address operator,\n    address tokenHolder) public view returns (bool) {\n    return (operator == tokenHolder\n           || _authorizedOperators[operator][tokenHolder]\n           || (_isDefaultOperator[operator] && !_revokedDefaultOperator[operator][tokenHolder]));\n  }\n\n  function authorizeOperator(address operator) notSelf(msg.sender, operator) external {\n   if (_isDefaultOperator[operator]) {\n     _revokedDefaultOperator[operator][msg.sender] = false;\n   } else {\n     _authorizedOperators[operator][msg.sender] = true;\n   }\n   emit AuthorizedOperator(operator, msg.sender);\n  }\n  \n  function revokeOperator(address operator) notSelf(msg.sender, operator) external {\n   if (_isDefaultOperator[operator]) {\n     _revokedDefaultOperator[operator][msg.sender] = true;\n   } else {\n     _authorizedOperators[operator][msg.sender] = false;\n   }\n   emit RevokedOperator(operator, msg.sender);\n  }\n\n \n  function operatorMint(address to, uint256 amount) isMultipleOf(amount) public payable {\n    require(_isDefaultOperator[msg.sender], 'executive function only');\n    _accounts[to]._balance += amount;\n    \n    emit Minted(msg.sender, to, amount);\n  }\n \n  function _send(\n    address to,\n    address from,\n    uint256 amount\n  ) internal {\n    require(to != address(0), 'no tokens to 0x0');\n    Account storage senderAccount = _accounts[from];\n    require(senderAccount._balance >= amount, \"Insufficient Funds\");\n    Account storage recieverAccount = _accounts[to];\n\n    senderAccount._balance -= amount;\n    recieverAccount._balance += amount;\n\n  } \n  function send(\n    address to,\n    uint256 amount,\n    bytes calldata data\n  ) isMultipleOf(amount)\n    isWithinReserveRatio(msg.sender, amount)\n  external {\n    _send(to, msg.sender, amount);   \n    emit Sent(msg.sender, to, amount, data); \n  }\n\n  function offerLoan(\n    address debtor,\n    uint256 amount,\n\t\tuint256 expiry\n  ) isMultipleOf(amount)\n    isLoanOfferWithinReserveRatio(\n\t\t\tmsg.sender,\n\t\t \tamount,\n\t\t\texpiry\n\t\t)\n  external {\n\t\t// minimum day\n\t\trequire((expiry - now) > 3600*24, 'loans must be at least a 24h');\n    Loan memory newLoan = Loan(amount, expiry, false, now, 0);\n    // _loans[lendor][debtor]\n    _loans[msg.sender][debtor].push(newLoan);\n    uint256 index = _loans[msg.sender][debtor].length;\n    _loanIndicies[msg.sender][debtor].push(index);\n\n    emit loanOffer(msg.sender, index, debtor);\n  }\n  \n  function getLoanIndex(\n    address lendor,\n    address debtor\n  ) external view returns (uint256) {\n    uint256 index = _loanIndicies[lendor][debtor].length;\n    return index;\n  }\n\n  function getLoan(\n    address lendor,\n    address debtor,\n    uint256 index\n  ) external view returns (uint256, uint256, bool) {\n    Loan memory loan =  _loans[lendor][debtor][index - 1];  \n    return (loan._principle, loan._createdAt, loan._isApproved);\n  }\n\n  function signLoan(\n    address lendor,\n    uint256 index\n  ) isWithinReserveRatio(\n      lendor,\n      _loans[lendor][msg.sender][index -1]._principle\n  ) external {\n\n    Loan storage loan = _loans[lendor][msg.sender][index - 1];\n    Account storage lendorAccount = _accounts[lendor];\n    Account storage debtorAccount = _accounts[msg.sender];\n    \n    debtorAccount._balance += loan._principle;\n    debtorAccount._liabilities += loan._principle;\n\n    lendorAccount._liabilities += loan._principle;\n    lendorAccount._assets += loan._principle;\n    \n    loan._isApproved = true;\n    loan._signedAt = now; \n\n    emit loanSign(lendor, index, msg.sender);\n  }\n\n  function getDebtIndex(\n    address lendor\n  ) external view returns (uint256) {\n    return _loans[lendor][msg.sender].length;\n  }\n\n  function repayLoan(\n    address lendor,\n    uint256 index\n\t) \n\texternal {\n    Loan storage loan = _loans[lendor][msg.sender][index - 1];\n\t\trequire(now >= loan._expiry, 'loans must be expired before they are repaid');\n    Account storage debtorAccount = _accounts[msg.sender];\n    Account storage lendorAccount = _accounts[lendor];\n\n    _send(lendor, msg.sender, loan._principle);\n    \n    debtorAccount._liabilities -= loan._principle;\n    \n    lendorAccount._liabilities -= loan._principle;\n    lendorAccount._assets -= loan._principle;\n    \n    loan._principle = 0;\n    emit loanRepaid(lendor, index, msg.sender);\n  }\n} \n",
  "sourcePath": "/home/taylor/Fiat-Frenzy-777/contracts/FiatFrenzy.sol",
  "compiler": {
    "name": "solc",
    "version": "0.5.8+commit.23d335f2.Emscripten.clang"
  },
  "schemaVersion": "3.0.16",
  "updatedAt": "2019-11-07T02:31:57.965Z",
  "devdoc": {
    "methods": {}
  },
  "userdoc": {
    "methods": {}
  }
}