{
  "contractName": "FiatFrenzy",
  "abi": [
    {
      "inputs": [
        {
          "name": "defaultOperators",
          "type": "address[]"
        }
      ],
      "payable": false,
      "stateMutability": "nonpayable",
      "type": "constructor"
    },
    {
      "anonymous": false,
      "inputs": [
        {
          "indexed": true,
          "name": "from",
          "type": "address"
        },
        {
          "indexed": true,
          "name": "to",
          "type": "address"
        },
        {
          "indexed": false,
          "name": "amount",
          "type": "uint256"
        },
        {
          "indexed": false,
          "name": "data",
          "type": "bytes"
        }
      ],
      "name": "Sent",
      "type": "event"
    },
    {
      "anonymous": false,
      "inputs": [
        {
          "indexed": true,
          "name": "operator",
          "type": "address"
        },
        {
          "indexed": true,
          "name": "holder",
          "type": "address"
        }
      ],
      "name": "AuthorizedOperator",
      "type": "event"
    },
    {
      "anonymous": false,
      "inputs": [
        {
          "indexed": true,
          "name": "operator",
          "type": "address"
        },
        {
          "indexed": true,
          "name": "holder",
          "type": "address"
        }
      ],
      "name": "RevokedOperator",
      "type": "event"
    },
    {
      "anonymous": false,
      "inputs": [
        {
          "indexed": true,
          "name": "_operator",
          "type": "address"
        },
        {
          "indexed": true,
          "name": "_to",
          "type": "address"
        },
        {
          "indexed": false,
          "name": "_amount",
          "type": "uint256"
        }
      ],
      "name": "Minted",
      "type": "event"
    },
    {
      "anonymous": false,
      "inputs": [
        {
          "indexed": true,
          "name": "_lendor",
          "type": "address"
        },
        {
          "indexed": true,
          "name": "_index",
          "type": "uint256"
        },
        {
          "indexed": true,
          "name": "_debtor",
          "type": "address"
        }
      ],
      "name": "loanOffer",
      "type": "event"
    },
    {
      "anonymous": false,
      "inputs": [
        {
          "indexed": true,
          "name": "_lendor",
          "type": "address"
        },
        {
          "indexed": true,
          "name": "_index",
          "type": "uint256"
        },
        {
          "indexed": true,
          "name": "_debtor",
          "type": "address"
        }
      ],
      "name": "loanSign",
      "type": "event"
    },
    {
      "anonymous": false,
      "inputs": [
        {
          "indexed": true,
          "name": "_lendor",
          "type": "address"
        },
        {
          "indexed": true,
          "name": "_index",
          "type": "uint256"
        },
        {
          "indexed": true,
          "name": "_debtor",
          "type": "address"
        }
      ],
      "name": "loanRepaid",
      "type": "event"
    },
    {
      "constant": true,
      "inputs": [],
      "name": "name",
      "outputs": [
        {
          "name": "",
          "type": "string"
        }
      ],
      "payable": false,
      "stateMutability": "view",
      "type": "function"
    },
    {
      "constant": true,
      "inputs": [],
      "name": "symbol",
      "outputs": [
        {
          "name": "",
          "type": "string"
        }
      ],
      "payable": false,
      "stateMutability": "view",
      "type": "function"
    },
    {
      "constant": true,
      "inputs": [],
      "name": "reserveRequirement",
      "outputs": [
        {
          "name": "",
          "type": "uint256"
        }
      ],
      "payable": false,
      "stateMutability": "view",
      "type": "function"
    },
    {
      "constant": true,
      "inputs": [],
      "name": "totalSupply",
      "outputs": [
        {
          "name": "",
          "type": "uint256"
        }
      ],
      "payable": false,
      "stateMutability": "view",
      "type": "function"
    },
    {
      "constant": true,
      "inputs": [
        {
          "name": "holder",
          "type": "address"
        }
      ],
      "name": "balanceOf",
      "outputs": [
        {
          "name": "",
          "type": "uint256"
        }
      ],
      "payable": false,
      "stateMutability": "view",
      "type": "function"
    },
    {
      "constant": true,
      "inputs": [
        {
          "name": "holder",
          "type": "address"
        }
      ],
      "name": "assetsOf",
      "outputs": [
        {
          "name": "",
          "type": "uint256"
        }
      ],
      "payable": false,
      "stateMutability": "view",
      "type": "function"
    },
    {
      "constant": true,
      "inputs": [
        {
          "name": "holder",
          "type": "address"
        }
      ],
      "name": "liabilitiesOf",
      "outputs": [
        {
          "name": "",
          "type": "uint256"
        }
      ],
      "payable": false,
      "stateMutability": "view",
      "type": "function"
    },
    {
      "constant": true,
      "inputs": [],
      "name": "granularity",
      "outputs": [
        {
          "name": "",
          "type": "uint256"
        }
      ],
      "payable": false,
      "stateMutability": "view",
      "type": "function"
    },
    {
      "constant": true,
      "inputs": [],
      "name": "defaultOperators",
      "outputs": [
        {
          "name": "",
          "type": "address[]"
        }
      ],
      "payable": false,
      "stateMutability": "view",
      "type": "function"
    },
    {
      "constant": true,
      "inputs": [
        {
          "name": "operator",
          "type": "address"
        },
        {
          "name": "tokenHolder",
          "type": "address"
        }
      ],
      "name": "isOperatorFor",
      "outputs": [
        {
          "name": "",
          "type": "bool"
        }
      ],
      "payable": false,
      "stateMutability": "view",
      "type": "function"
    },
    {
      "constant": false,
      "inputs": [
        {
          "name": "operator",
          "type": "address"
        }
      ],
      "name": "authorizeOperator",
      "outputs": [],
      "payable": false,
      "stateMutability": "nonpayable",
      "type": "function"
    },
    {
      "constant": false,
      "inputs": [
        {
          "name": "operator",
          "type": "address"
        }
      ],
      "name": "revokeOperator",
      "outputs": [],
      "payable": false,
      "stateMutability": "nonpayable",
      "type": "function"
    },
    {
      "constant": false,
      "inputs": [
        {
          "name": "to",
          "type": "address"
        },
        {
          "name": "amount",
          "type": "uint256"
        }
      ],
      "name": "operatorMint",
      "outputs": [],
      "payable": true,
      "stateMutability": "payable",
      "type": "function"
    },
    {
      "constant": false,
      "inputs": [
        {
          "name": "to",
          "type": "address"
        },
        {
          "name": "amount",
          "type": "uint256"
        },
        {
          "name": "data",
          "type": "bytes"
        }
      ],
      "name": "send",
      "outputs": [],
      "payable": false,
      "stateMutability": "nonpayable",
      "type": "function"
    },
    {
      "constant": false,
      "inputs": [
        {
          "name": "debtor",
          "type": "address"
        },
        {
          "name": "amount",
          "type": "uint256"
        }
      ],
      "name": "offerLoan",
      "outputs": [],
      "payable": false,
      "stateMutability": "nonpayable",
      "type": "function"
    },
    {
      "constant": true,
      "inputs": [
        {
          "name": "lendor",
          "type": "address"
        },
        {
          "name": "debtor",
          "type": "address"
        }
      ],
      "name": "getLoanIndex",
      "outputs": [
        {
          "name": "",
          "type": "uint256"
        }
      ],
      "payable": false,
      "stateMutability": "view",
      "type": "function"
    },
    {
      "constant": true,
      "inputs": [
        {
          "name": "lendor",
          "type": "address"
        },
        {
          "name": "debtor",
          "type": "address"
        },
        {
          "name": "index",
          "type": "uint256"
        }
      ],
      "name": "getLoan",
      "outputs": [
        {
          "name": "",
          "type": "uint256"
        },
        {
          "name": "",
          "type": "uint256"
        },
        {
          "name": "",
          "type": "bool"
        }
      ],
      "payable": false,
      "stateMutability": "view",
      "type": "function"
    },
    {
      "constant": false,
      "inputs": [
        {
          "name": "lendor",
          "type": "address"
        },
        {
          "name": "index",
          "type": "uint256"
        }
      ],
      "name": "signLoan",
      "outputs": [],
      "payable": false,
      "stateMutability": "nonpayable",
      "type": "function"
    },
    {
      "constant": true,
      "inputs": [
        {
          "name": "lendor",
          "type": "address"
        }
      ],
      "name": "getDebtIndex",
      "outputs": [
        {
          "name": "",
          "type": "uint256"
        }
      ],
      "payable": false,
      "stateMutability": "view",
      "type": "function"
    },
    {
      "constant": false,
      "inputs": [
        {
          "name": "lendor",
          "type": "address"
        },
        {
          "name": "index",
          "type": "uint256"
        }
      ],
      "name": "repayLoan",
      "outputs": [],
      "payable": false,
      "stateMutability": "nonpayable",
      "type": "function"
    }
  ],
  "bytecode": "0x60806040523480156200001157600080fd5b5060405162002b2038038062002b20833981018060405260208110156200003757600080fd5b8101908080516401000000008111156200005057600080fd5b828101905060208101848111156200006757600080fd5b81518560208202830111640100000000821117156200008557600080fd5b50509291905050506040518060400160405280600b81526020017f46696174204672656e7a7900000000000000000000000000000000000000000081525060009080519060200190620000da929190620002b3565b506040518060400160405280600581526020017f46524e5a590000000000000000000000000000000000000000000000000000008152506001908051906020019062000128929190620002b3565b50600160038190555073__Helpers_______________________________622c1a9e650f9d297a859d6519438b44a65860096040518463ffffffff1660e01b815260040180848152602001838152602001828152602001935050505060206040518083038186803b1580156200019d57600080fd5b505af4158015620001b2573d6000803e3d6000fd5b505050506040513d6020811015620001c957600080fd5b81019080805190602001909291905050506008819055508060049080519060200190620001f89291906200033a565b5060008090505b600480549050811015620002ab57600160056000600484815481106200022157fe5b9060005260206000200160009054906101000a900473ffffffffffffffffffffffffffffffffffffffff1673ffffffffffffffffffffffffffffffffffffffff1673ffffffffffffffffffffffffffffffffffffffff16815260200190815260200160002060006101000a81548160ff0219169083151502179055508080600101915050620001ff565b505062000437565b828054600181600116156101000203166002900490600052602060002090601f016020900481019282601f10620002f657805160ff191683800117855562000327565b8280016001018555821562000327579182015b828111156200032657825182559160200191906001019062000309565b5b509050620003369190620003c9565b5090565b828054828255906000526020600020908101928215620003b6579160200282015b82811115620003b55782518260006101000a81548173ffffffffffffffffffffffffffffffffffffffff021916908373ffffffffffffffffffffffffffffffffffffffff160217905550916020019190600101906200035b565b5b509050620003c59190620003f1565b5090565b620003ee91905b80821115620003ea576000816000905550600101620003d0565b5090565b90565b6200043491905b808211156200043057600081816101000a81549073ffffffffffffffffffffffffffffffffffffffff021916905550600101620003f8565b5090565b90565b6126d980620004476000396000f3fe60806040526004361061011f5760003560e01c806393a595f5116100a0578063bca48c0811610064578063bca48c0814610701578063c9dfd1a91461075c578063d95b6371146107fd578063ef685ae614610886578063fad8b32a146108d45761011f565b806393a595f5146104b0578063959b8c3f1461050b57806395d89b411461055c5780639bd9bbc6146105ec5780639f17856b1461069c5761011f565b80636166c461116100e75780636166c461146102db57806370a082311461036057806374f6ac42146103c55780637f3c587e146104205780638638110e1461044b5761011f565b806306e485381461012457806306fdde031461019057806318160ddd146102205780632c62fa101461024b578063556f0dc7146102b0575b600080fd5b34801561013057600080fd5b50610139610925565b6040518080602001828103825283818151815260200191508051906020019060200280838360005b8381101561017c578082015181840152602081019050610161565b505050509050019250505060405180910390f35b34801561019c57600080fd5b506101a56109b3565b6040518080602001828103825283818151815260200191508051906020019080838360005b838110156101e55780820151818401526020810190506101ca565b50505050905090810190601f1680156102125780820380516001836020036101000a031916815260200191505b509250505060405180910390f35b34801561022c57600080fd5b50610235610a55565b6040518082815260200191505060405180910390f35b34801561025757600080fd5b5061029a6004803603602081101561026e57600080fd5b81019080803573ffffffffffffffffffffffffffffffffffffffff169060200190929190505050610a5f565b6040518082815260200191505060405180910390f35b3480156102bc57600080fd5b506102c5610ae0565b6040518082815260200191505060405180910390f35b3480156102e757600080fd5b5061034a600480360360408110156102fe57600080fd5b81019080803573ffffffffffffffffffffffffffffffffffffffff169060200190929190803573ffffffffffffffffffffffffffffffffffffffff169060200190929190505050610aea565b6040518082815260200191505060405180910390f35b34801561036c57600080fd5b506103af6004803603602081101561038357600080fd5b81019080803573ffffffffffffffffffffffffffffffffffffffff169060200190929190505050610b79565b6040518082815260200191505060405180910390f35b3480156103d157600080fd5b5061041e600480360360408110156103e857600080fd5b81019080803573ffffffffffffffffffffffffffffffffffffffff16906020019092919080359060200190929190505050610bfa565b005b34801561042c57600080fd5b5061043561108a565b6040518082815260200191505060405180910390f35b34801561045757600080fd5b5061049a6004803603602081101561046e57600080fd5b81019080803573ffffffffffffffffffffffffffffffffffffffff169060200190929190505050611094565b6040518082815260200191505060405180910390f35b3480156104bc57600080fd5b50610509600480360360408110156104d357600080fd5b81019080803573ffffffffffffffffffffffffffffffffffffffff16906020019092919080359060200190929190505050611115565b005b34801561051757600080fd5b5061055a6004803603602081101561052e57600080fd5b81019080803573ffffffffffffffffffffffffffffffffffffffff1690602001909291905050506112f4565b005b34801561056857600080fd5b5061057161155c565b6040518080602001828103825283818151815260200191508051906020019080838360005b838110156105b1578082015181840152602081019050610596565b50505050905090810190601f1680156105de5780820380516001836020036101000a031916815260200191505b509250505060405180910390f35b3480156105f857600080fd5b5061069a6004803603606081101561060f57600080fd5b81019080803573ffffffffffffffffffffffffffffffffffffffff169060200190929190803590602001909291908035906020019064010000000081111561065657600080fd5b82018360208201111561066857600080fd5b8035906020019184600183028401116401000000008311171561068a57600080fd5b90919293919293905050506115fe565b005b3480156106a857600080fd5b506106eb600480360360208110156106bf57600080fd5b81019080803573ffffffffffffffffffffffffffffffffffffffff1690602001909291905050506118a6565b6040518082815260200191505060405180910390f35b34801561070d57600080fd5b5061075a6004803603604081101561072457600080fd5b81019080803573ffffffffffffffffffffffffffffffffffffffff1690602001909291908035906020019092919050505061192f565b005b34801561076857600080fd5b506107d56004803603606081101561077f57600080fd5b81019080803573ffffffffffffffffffffffffffffffffffffffff169060200190929190803573ffffffffffffffffffffffffffffffffffffffff16906020019092919080359060200190929190505050611d3e565b6040518084815260200183815260200182151515158152602001935050505060405180910390f35b34801561080957600080fd5b5061086c6004803603604081101561082057600080fd5b81019080803573ffffffffffffffffffffffffffffffffffffffff169060200190929190803573ffffffffffffffffffffffffffffffffffffffff169060200190929190505050611e3e565b604051808215151515815260200191505060405180910390f35b6108d26004803603604081101561089c57600080fd5b81019080803573ffffffffffffffffffffffffffffffffffffffff16906020019092919080359060200190929190505050611fef565b005b3480156108e057600080fd5b50610923600480360360208110156108f757600080fd5b81019080803573ffffffffffffffffffffffffffffffffffffffff1690602001909291905050506121ea565b005b606060048054806020026020016040519081016040528092919081815260200182805480156109a957602002820191906000526020600020905b8160009054906101000a900473ffffffffffffffffffffffffffffffffffffffff1673ffffffffffffffffffffffffffffffffffffffff168152602001906001019080831161095f575b5050505050905090565b606060008054600181600116156101000203166002900480601f016020809104026020016040519081016040528092919081815260200182805460018160011615610100020316600290048015610a4b5780601f10610a2057610100808354040283529160200191610a4b565b820191906000526020600020905b815481529060010190602001808311610a2e57829003601f168201915b5050505050905090565b6000600254905090565b6000610a69612620565b600960008473ffffffffffffffffffffffffffffffffffffffff1673ffffffffffffffffffffffffffffffffffffffff168152602001908152602001600020604051806060016040529081600082015481526020016001820154815260200160028201548152505090508060200151915050919050565b6000600354905090565b600080600b60008573ffffffffffffffffffffffffffffffffffffffff1673ffffffffffffffffffffffffffffffffffffffff16815260200190815260200160002060008473ffffffffffffffffffffffffffffffffffffffff1673ffffffffffffffffffffffffffffffffffffffff1681526020019081526020016000208054905090508091505092915050565b6000610b83612620565b600960008473ffffffffffffffffffffffffffffffffffffffff1673ffffffffffffffffffffffffffffffffffffffff168152602001908152602001600020604051806060016040529081600082015481526020016001820154815260200160028201548152505090508060000151915050919050565b8060006003548281610c0857fe5b0614610c7c576040517f08c379a000000000000000000000000000000000000000000000000000000000815260040180806020018281038252600c8152602001807f6d617468207761726e696e67000000000000000000000000000000000000000081525060200191505060405180910390fd5b3382610c86612620565b600960008473ffffffffffffffffffffffffffffffffffffffff1673ffffffffffffffffffffffffffffffffffffffff16815260200190815260200160002060405180606001604052908160008201548152602001600182015481526020016002820154815250509050600073__Helpers_______________________________622c1a9e84846040015101846000015160096040518463ffffffff1660e01b815260040180848152602001838152602001828152602001935050505060206040518083038186803b158015610d5b57600080fd5b505af4158015610d6f573d6000803e3d6000fd5b505050506040513d6020811015610d8557600080fd5b81019080805190602001909291905050509050600854811115610df3576040517f08c379a00000000000000000000000000000000000000000000000000000000081526004018080602001828103825260278152602001806126656027913960400191505060405180910390fd5b610dfb612641565b6040518060600160405280888152602001428152602001600015158152509050600a60003373ffffffffffffffffffffffffffffffffffffffff1673ffffffffffffffffffffffffffffffffffffffff16815260200190815260200160002060008973ffffffffffffffffffffffffffffffffffffffff1673ffffffffffffffffffffffffffffffffffffffff1681526020019081526020016000208190806001815401808255809150509060018203906000526020600020906003020160009091929091909150600082015181600001556020820151816001015560408201518160020160006101000a81548160ff0219169083151502179055505050506000600a60003373ffffffffffffffffffffffffffffffffffffffff1673ffffffffffffffffffffffffffffffffffffffff16815260200190815260200160002060008a73ffffffffffffffffffffffffffffffffffffffff1673ffffffffffffffffffffffffffffffffffffffff168152602001908152602001600020805490509050600b60003373ffffffffffffffffffffffffffffffffffffffff1673ffffffffffffffffffffffffffffffffffffffff16815260200190815260200160002060008a73ffffffffffffffffffffffffffffffffffffffff1673ffffffffffffffffffffffffffffffffffffffff1681526020019081526020016000208190806001815401808255809150509060018203906000526020600020016000909192909190915055508873ffffffffffffffffffffffffffffffffffffffff16813373ffffffffffffffffffffffffffffffffffffffff167f70c9e256e5590a7520512b88293528b2c0c7ecf3c36695181926988987156b6760405160405180910390a4505050505050505050565b6000600854905090565b600061109e612620565b600960008473ffffffffffffffffffffffffffffffffffffffff1673ffffffffffffffffffffffffffffffffffffffff168152602001908152602001600020604051806060016040529081600082015481526020016001820154815260200160028201548152505090508060400151915050919050565b6000600a60008473ffffffffffffffffffffffffffffffffffffffff1673ffffffffffffffffffffffffffffffffffffffff16815260200190815260200160002060003373ffffffffffffffffffffffffffffffffffffffff1673ffffffffffffffffffffffffffffffffffffffff16815260200190815260200160002060018303815481106111a157fe5b906000526020600020906003020190506000600960003373ffffffffffffffffffffffffffffffffffffffff1673ffffffffffffffffffffffffffffffffffffffff16815260200190815260200160002090506000600960008673ffffffffffffffffffffffffffffffffffffffff1673ffffffffffffffffffffffffffffffffffffffff168152602001908152602001600020905061124685338560000154612452565b826000015482600201600082825403925050819055508260000154816002016000828254039250508190555082600001548160010160008282540392505081905550600083600001819055503373ffffffffffffffffffffffffffffffffffffffff16848673ffffffffffffffffffffffffffffffffffffffff167ff57cc7f3bb20dfe97a6041fbb06abb7613a11ca4a5f4a3a5466d43356e6b631760405160405180910390a45050505050565b33818073ffffffffffffffffffffffffffffffffffffffff168273ffffffffffffffffffffffffffffffffffffffff16141561137b576040517f08c379a000000000000000000000000000000000000000000000000000000000815260040180806020018281038252602281526020018061268c6022913960400191505060405180910390fd5b600560008473ffffffffffffffffffffffffffffffffffffffff1673ffffffffffffffffffffffffffffffffffffffff16815260200190815260200160002060009054906101000a900460ff1615611467576000600660008573ffffffffffffffffffffffffffffffffffffffff1673ffffffffffffffffffffffffffffffffffffffff16815260200190815260200160002060003373ffffffffffffffffffffffffffffffffffffffff1673ffffffffffffffffffffffffffffffffffffffff16815260200190815260200160002060006101000a81548160ff0219169083151502179055506114fd565b6001600760008573ffffffffffffffffffffffffffffffffffffffff1673ffffffffffffffffffffffffffffffffffffffff16815260200190815260200160002060003373ffffffffffffffffffffffffffffffffffffffff1673ffffffffffffffffffffffffffffffffffffffff16815260200190815260200160002060006101000a81548160ff0219169083151502179055505b3373ffffffffffffffffffffffffffffffffffffffff168373ffffffffffffffffffffffffffffffffffffffff167ff4caeb2d6ca8932a215a353d0703c326ec2d81fc68170f320eb2ab49e9df61f960405160405180910390a3505050565b606060018054600181600116156101000203166002900480601f0160208091040260200160405190810160405280929190818152602001828054600181600116156101000203166002900480156115f45780601f106115c9576101008083540402835291602001916115f4565b820191906000526020600020905b8154815290600101906020018083116115d757829003601f168201915b5050505050905090565b826000600354828161160c57fe5b0614611680576040517f08c379a000000000000000000000000000000000000000000000000000000000815260040180806020018281038252600c8152602001807f6d617468207761726e696e67000000000000000000000000000000000000000081525060200191505060405180910390fd5b338461168a612620565b600960008473ffffffffffffffffffffffffffffffffffffffff1673ffffffffffffffffffffffffffffffffffffffff16815260200190815260200160002060405180606001604052908160008201548152602001600182015481526020016002820154815250509050600073__Helpers_______________________________622c1a9e84846040015101846000015160096040518463ffffffff1660e01b815260040180848152602001838152602001828152602001935050505060206040518083038186803b15801561175f57600080fd5b505af4158015611773573d6000803e3d6000fd5b505050506040513d602081101561178957600080fd5b810190808051906020019092919050505090506008548111156117f7576040517f08c379a00000000000000000000000000000000000000000000000000000000081526004018080602001828103825260278152602001806126656027913960400191505060405180910390fd5b61180289338a612452565b8873ffffffffffffffffffffffffffffffffffffffff163373ffffffffffffffffffffffffffffffffffffffff167f9d4246230aaa870ac56b8caa1eaa5463c39e11b0d8f36bfc6294816367f9d1948a8a8a60405180848152602001806020018281038252848482818152602001925080828437600081840152601f19601f82011690508083019250505094505050505060405180910390a3505050505050505050565b6000600a60008373ffffffffffffffffffffffffffffffffffffffff1673ffffffffffffffffffffffffffffffffffffffff16815260200190815260200160002060003373ffffffffffffffffffffffffffffffffffffffff1673ffffffffffffffffffffffffffffffffffffffff168152602001908152602001600020805490509050919050565b81600a60008473ffffffffffffffffffffffffffffffffffffffff1673ffffffffffffffffffffffffffffffffffffffff16815260200190815260200160002060003373ffffffffffffffffffffffffffffffffffffffff1673ffffffffffffffffffffffffffffffffffffffff16815260200190815260200160002060018303815481106119ba57fe5b9060005260206000209060030201600001546119d4612620565b600960008473ffffffffffffffffffffffffffffffffffffffff1673ffffffffffffffffffffffffffffffffffffffff16815260200190815260200160002060405180606001604052908160008201548152602001600182015481526020016002820154815250509050600073__Helpers_______________________________622c1a9e84846040015101846000015160096040518463ffffffff1660e01b815260040180848152602001838152602001828152602001935050505060206040518083038186803b158015611aa957600080fd5b505af4158015611abd573d6000803e3d6000fd5b505050506040513d6020811015611ad357600080fd5b81019080805190602001909291905050509050600854811115611b41576040517f08c379a00000000000000000000000000000000000000000000000000000000081526004018080602001828103825260278152602001806126656027913960400191505060405180910390fd5b6000600a60008873ffffffffffffffffffffffffffffffffffffffff1673ffffffffffffffffffffffffffffffffffffffff16815260200190815260200160002060003373ffffffffffffffffffffffffffffffffffffffff1673ffffffffffffffffffffffffffffffffffffffff1681526020019081526020016000206001870381548110611bcd57fe5b906000526020600020906003020190506000600960008973ffffffffffffffffffffffffffffffffffffffff1673ffffffffffffffffffffffffffffffffffffffff16815260200190815260200160002090506000600960003373ffffffffffffffffffffffffffffffffffffffff1673ffffffffffffffffffffffffffffffffffffffff16815260200190815260200160002090508260000154816000016000828254019250508190555082600001548160020160008282540192505081905550826000015482600201600082825401925050819055508260000154826001016000828254019250508190555060018360020160006101000a81548160ff0219169083151502179055503373ffffffffffffffffffffffffffffffffffffffff16888a73ffffffffffffffffffffffffffffffffffffffff167fe3b3cffda5a20d9b3256be3959f9e5a53f9fb69d3bb028f5239a0e034c7a5ae360405160405180910390a4505050505050505050565b6000806000611d4b612641565b600a60008873ffffffffffffffffffffffffffffffffffffffff1673ffffffffffffffffffffffffffffffffffffffff16815260200190815260200160002060008773ffffffffffffffffffffffffffffffffffffffff1673ffffffffffffffffffffffffffffffffffffffff1681526020019081526020016000206001860381548110611dd557fe5b906000526020600020906003020160405180606001604052908160008201548152602001600182015481526020016002820160009054906101000a900460ff16151515158152505090508060000151816020015182604001519350935093505093509350939050565b60008173ffffffffffffffffffffffffffffffffffffffff168373ffffffffffffffffffffffffffffffffffffffff161480611f005750600760008473ffffffffffffffffffffffffffffffffffffffff1673ffffffffffffffffffffffffffffffffffffffff16815260200190815260200160002060008373ffffffffffffffffffffffffffffffffffffffff1673ffffffffffffffffffffffffffffffffffffffff16815260200190815260200160002060009054906101000a900460ff165b80611fe75750600560008473ffffffffffffffffffffffffffffffffffffffff1673ffffffffffffffffffffffffffffffffffffffff16815260200190815260200160002060009054906101000a900460ff168015611fe65750600660008473ffffffffffffffffffffffffffffffffffffffff1673ffffffffffffffffffffffffffffffffffffffff16815260200190815260200160002060008373ffffffffffffffffffffffffffffffffffffffff1673ffffffffffffffffffffffffffffffffffffffff16815260200190815260200160002060009054906101000a900460ff16155b5b905092915050565b8060006003548281611ffd57fe5b0614612071576040517f08c379a000000000000000000000000000000000000000000000000000000000815260040180806020018281038252600c8152602001807f6d617468207761726e696e67000000000000000000000000000000000000000081525060200191505060405180910390fd5b600560003373ffffffffffffffffffffffffffffffffffffffff1673ffffffffffffffffffffffffffffffffffffffff16815260200190815260200160002060009054906101000a900460ff16612130576040517f08c379a00000000000000000000000000000000000000000000000000000000081526004018080602001828103825260178152602001807f6578656375746976652066756e6374696f6e206f6e6c7900000000000000000081525060200191505060405180910390fd5b81600960008573ffffffffffffffffffffffffffffffffffffffff1673ffffffffffffffffffffffffffffffffffffffff168152602001908152602001600020600001600082825401925050819055508273ffffffffffffffffffffffffffffffffffffffff163373ffffffffffffffffffffffffffffffffffffffff167f9d228d69b5fdb8d273a2336f8fb8612d039631024ea9bf09c424a9503aa078f0846040518082815260200191505060405180910390a3505050565b33818073ffffffffffffffffffffffffffffffffffffffff168273ffffffffffffffffffffffffffffffffffffffff161415612271576040517f08c379a000000000000000000000000000000000000000000000000000000000815260040180806020018281038252602281526020018061268c6022913960400191505060405180910390fd5b600560008473ffffffffffffffffffffffffffffffffffffffff1673ffffffffffffffffffffffffffffffffffffffff16815260200190815260200160002060009054906101000a900460ff161561235d576001600660008573ffffffffffffffffffffffffffffffffffffffff1673ffffffffffffffffffffffffffffffffffffffff16815260200190815260200160002060003373ffffffffffffffffffffffffffffffffffffffff1673ffffffffffffffffffffffffffffffffffffffff16815260200190815260200160002060006101000a81548160ff0219169083151502179055506123f3565b6000600760008573ffffffffffffffffffffffffffffffffffffffff1673ffffffffffffffffffffffffffffffffffffffff16815260200190815260200160002060003373ffffffffffffffffffffffffffffffffffffffff1673ffffffffffffffffffffffffffffffffffffffff16815260200190815260200160002060006101000a81548160ff0219169083151502179055505b3373ffffffffffffffffffffffffffffffffffffffff168373ffffffffffffffffffffffffffffffffffffffff167f50546e66e5f44d728365dc3908c63bc5cfeeab470722c1677e3073a6ac294aa160405160405180910390a3505050565b600073ffffffffffffffffffffffffffffffffffffffff168373ffffffffffffffffffffffffffffffffffffffff1614156124f5576040517f08c379a00000000000000000000000000000000000000000000000000000000081526004018080602001828103825260108152602001807f6e6f20746f6b656e7320746f203078300000000000000000000000000000000081525060200191505060405180910390fd5b6000600960008473ffffffffffffffffffffffffffffffffffffffff1673ffffffffffffffffffffffffffffffffffffffff168152602001908152602001600020905081816000015410156125b2576040517f08c379a00000000000000000000000000000000000000000000000000000000081526004018080602001828103825260128152602001807f496e73756666696369656e742046756e6473000000000000000000000000000081525060200191505060405180910390fd5b6000600960008673ffffffffffffffffffffffffffffffffffffffff1673ffffffffffffffffffffffffffffffffffffffff16815260200190815260200160002090508282600001600082825403925050819055508281600001600082825401925050819055505050505050565b60405180606001604052806000815260200160008152602001600081525090565b60405180606001604052806000815260200160008152602001600015158152509056fe61706f6c6f676965732c207265736572766520726571756972656d656e74206578636565646564546869732066756e6374696f6e206973206e6f742073656c662063616c6c61626c65a165627a7a723058201299d4dde6b802799493e865b6a5f7dddbfffa7aa45bd6b4fdf771740034f29d0029",
  "source": "pragma solidity 0.5.8;\nimport { IFiatFrenzy } from './IFiatFrenzy.sol';\nimport './Helpers.sol';\ncontract FiatFrenzy is IFiatFrenzy {\n  // Coin Meta\n  string internal _name;\n  string internal _symbol;\n  uint256 internal _totalSupply;\n  uint256 internal _granularity;\n  \n  event Sent(\n    address indexed from,\n    address indexed to,\n    uint256 amount,\n    bytes data\n  );\n  \n  // Operator Stuff\n  event AuthorizedOperator(\n    address indexed operator,\n    address indexed holder\n  );\n\n  event RevokedOperator(address indexed operator, address indexed holder);\n  \n  address[] internal _defaultOperators;\n  mapping(address => bool) internal _isDefaultOperator;\n  mapping(address => mapping(address => bool)) internal _revokedDefaultOperator;\n  mapping(address => mapping(address => bool)) internal _authorizedOperators;\n  \n  // Frenzy\n  uint256 _reserveRequirement;\n\n  struct Account {\n    // The number of tokens an account has\n    uint256 _balance;\n    // The number of positive loan\n    uint256 _assets;\n    // The number of negative loan\n    uint256 _liabilities;\n  }\n  mapping (address => Account) _accounts;\n  \n  struct Loan {\n    uint256 _principle;\n    uint256 _time;\n    bool _isApproved;\n  }\n  // _loans[lendor][debtor]\n  mapping (address => mapping (address => Loan[])) _loans;\n  // indexer, using push to guarantee uniques\n  mapping (address => mapping (address => uint256[])) _loanIndicies;\n\n  event Minted(\n    address indexed _operator,\n    address indexed _to,\n    uint256 _amount\n  );\n\n  event loanOffer(\n    address indexed _lendor,\n    uint256 indexed _index,\n    address indexed _debtor\n  );\n\n  event loanSign(\n    address indexed _lendor,\n    uint256 indexed _index,\n    address indexed _debtor\n  );\n\n  event loanRepaid(\n    address indexed _lendor,\n    uint256 indexed _index,\n    address indexed _debtor\n  );\n\n  modifier notSelf(address sender, address target) {\n    require(sender != target, \"This function is not self callable\");\n    _;\n  }\n\n  modifier isMultipleOf(uint256 amount) {\n    require(amount % _granularity == 0, 'math warning');\n    _;\n  }\n\n  modifier isWithinReserveRatio(\n    address lendor,\n    uint256 amount\n  ) {\n    Account memory account = _accounts[lendor];\n    uint256 currentRatio = Helpers.percent(account._liabilities + amount, account._balance, 9);\n    require(currentRatio <= _reserveRequirement, \"apologies, reserve requirement exceeded\");\n    _;\n  } \n\n  constructor(\n    address[] memory defaultOperators\n  ) public {\n    _name = \"Fiat Frenzy\";\n    _symbol = \"FRNZY\";\n    _granularity = 1;\n\n    _reserveRequirement = Helpers.percent(17167680177565, 27777890035288, 9);\n    _defaultOperators = defaultOperators;\n    for (uint256 i = 0; i < _defaultOperators.length; i++) {\n      _isDefaultOperator[_defaultOperators[i]] = true;\n    }\n  }\n\n  function name() external view returns (string memory) {\n    return _name;\n  }\n\n  function symbol() external view returns (string memory) {\n    return _symbol;\n  }\n\n  function reserveRequirement() external view returns (uint256) {\n    return _reserveRequirement;\n  }\n\n  function totalSupply() external view returns (uint256) {\n    return _totalSupply;\n  }\n  \n  function balanceOf(address holder) external view returns (uint256) {\n    Account memory account = _accounts[holder];\n    return account._balance;  \n  }\n  \n  function assetsOf(address holder) external view returns (uint256) {\n    Account memory account = _accounts[holder];\n    return account._assets;  \n  }\n\n  function liabilitiesOf(address holder) external view returns (uint256) {\n    Account memory account = _accounts[holder];\n    return account._liabilities;  \n  }\n  \n  function granularity() external view returns (uint256) {\n    return _granularity;\n  }\n\n  function defaultOperators() external view returns (address[] memory) {\n    return _defaultOperators;\n  }\n\n  function isOperatorFor(\n    address operator,\n    address tokenHolder) public view returns (bool) {\n    return (operator == tokenHolder\n           || _authorizedOperators[operator][tokenHolder]\n           || (_isDefaultOperator[operator] && !_revokedDefaultOperator[operator][tokenHolder]));\n  }\n\n  function authorizeOperator(address operator) notSelf(msg.sender, operator) external {\n   if (_isDefaultOperator[operator]) {\n     _revokedDefaultOperator[operator][msg.sender] = false;\n   } else {\n     _authorizedOperators[operator][msg.sender] = true;\n   }\n   emit AuthorizedOperator(operator, msg.sender);\n  }\n  \n  function revokeOperator(address operator) notSelf(msg.sender, operator) external {\n   if (_isDefaultOperator[operator]) {\n     _revokedDefaultOperator[operator][msg.sender] = true;\n   } else {\n     _authorizedOperators[operator][msg.sender] = false;\n   }\n   emit RevokedOperator(operator, msg.sender);\n  }\n\n \n  function operatorMint(address to, uint256 amount) isMultipleOf(amount) public payable {\n    require(_isDefaultOperator[msg.sender], 'executive function only');\n    _accounts[to]._balance += amount;\n    \n    emit Minted(msg.sender, to, amount);\n  }\n \n  function _send(\n    address to,\n    address from,\n    uint256 amount\n  ) internal {\n    require(to != address(0), 'no tokens to 0x0');\n    Account storage senderAccount = _accounts[from];\n    require(senderAccount._balance >= amount, \"Insufficient Funds\");\n    Account storage recieverAccount = _accounts[to];\n\n    senderAccount._balance -= amount;\n    recieverAccount._balance += amount;\n\n  } \n  function send(\n    address to,\n    uint256 amount,\n    bytes calldata data\n  ) isMultipleOf(amount)\n    isWithinReserveRatio(msg.sender, amount)\n  external {\n    _send(to, msg.sender, amount);   \n    emit Sent(msg.sender, to, amount, data); \n  }\n\n  function offerLoan(\n    address debtor,\n    uint256 amount\n  ) isMultipleOf(amount)\n    isWithinReserveRatio(msg.sender, amount)\n  external {\n    Loan memory newLoan = Loan(amount, now, false);\n    // _loans[lendor][debtor]\n    _loans[msg.sender][debtor].push(newLoan);\n    uint256 index = _loans[msg.sender][debtor].length;\n    _loanIndicies[msg.sender][debtor].push(index);\n\n    emit loanOffer(msg.sender, index, debtor);\n  }\n  \n  function getLoanIndex(\n    address lendor,\n    address debtor\n  ) external view returns (uint256) {\n    uint256 index = _loanIndicies[lendor][debtor].length;\n    return index;\n  }\n\n  function getLoan(\n    address lendor,\n    address debtor,\n    uint256 index\n  ) external view returns (uint256, uint256, bool) {\n    Loan memory loan =  _loans[lendor][debtor][index - 1];  \n    return (loan._principle, loan._time, loan._isApproved);\n  }\n\n  function signLoan(\n    address lendor,\n    uint256 index\n  ) isWithinReserveRatio(\n      lendor,\n      _loans[lendor][msg.sender][index -1]._principle\n  ) external {\n\n    Loan storage loan = _loans[lendor][msg.sender][index - 1];\n    Account storage lendorAccount = _accounts[lendor];\n    Account storage debtorAccount = _accounts[msg.sender];\n    \n    debtorAccount._balance += loan._principle;\n    debtorAccount._liabilities += loan._principle;\n\n    lendorAccount._liabilities += loan._principle;\n    lendorAccount._assets += loan._principle;\n    \n    loan._isApproved = true;\n\n    emit loanSign(lendor, index, msg.sender);\n  }\n\n  function getDebtIndex(\n    address lendor\n  ) external view returns (uint256) {\n    return _loans[lendor][msg.sender].length;\n  }\n\n  function repayLoan(\n    address lendor,\n    uint256 index\n  ) external {\n    Loan storage loan = _loans[lendor][msg.sender][index - 1];\n    Account storage debtorAccount = _accounts[msg.sender];\n    Account storage lendorAccount = _accounts[lendor];\n    _send(lendor, msg.sender, loan._principle);\n    \n    debtorAccount._liabilities -= loan._principle;\n    \n    lendorAccount._liabilities -= loan._principle;\n    lendorAccount._assets -= loan._principle;\n    \n    loan._principle = 0;\n    emit loanRepaid(lendor, index, msg.sender);\n  }\n} \n",
  "sourcePath": "/home/taylor/Fiat-Frenzy-777/contracts/FiatFrenzy.sol",
  "compiler": {
    "name": "solc",
    "version": "0.5.8+commit.23d335f2.Emscripten.clang"
  },
  "schemaVersion": "3.0.16",
  "updatedAt": "2019-09-30T02:36:49.940Z",
  "devdoc": {
    "methods": {}
  },
  "userdoc": {
    "methods": {}
  }
}