{
  "contractName": "FiatFrenzy",
  "abi": [
    {
      "inputs": [
        {
          "name": "defaultOperators",
          "type": "address[]"
        }
      ],
      "payable": false,
      "stateMutability": "nonpayable",
      "type": "constructor"
    },
    {
      "anonymous": false,
      "inputs": [
        {
          "indexed": true,
          "name": "from",
          "type": "address"
        },
        {
          "indexed": true,
          "name": "to",
          "type": "address"
        },
        {
          "indexed": false,
          "name": "amount",
          "type": "uint256"
        },
        {
          "indexed": false,
          "name": "data",
          "type": "bytes"
        }
      ],
      "name": "Sent",
      "type": "event"
    },
    {
      "anonymous": false,
      "inputs": [
        {
          "indexed": true,
          "name": "operator",
          "type": "address"
        },
        {
          "indexed": true,
          "name": "holder",
          "type": "address"
        }
      ],
      "name": "AuthorizedOperator",
      "type": "event"
    },
    {
      "anonymous": false,
      "inputs": [
        {
          "indexed": true,
          "name": "operator",
          "type": "address"
        },
        {
          "indexed": true,
          "name": "holder",
          "type": "address"
        }
      ],
      "name": "RevokedOperator",
      "type": "event"
    },
    {
      "anonymous": false,
      "inputs": [
        {
          "indexed": true,
          "name": "_operator",
          "type": "address"
        },
        {
          "indexed": true,
          "name": "_to",
          "type": "address"
        },
        {
          "indexed": false,
          "name": "_amount",
          "type": "uint256"
        }
      ],
      "name": "Minted",
      "type": "event"
    },
    {
      "anonymous": false,
      "inputs": [
        {
          "indexed": true,
          "name": "_lendor",
          "type": "address"
        },
        {
          "indexed": true,
          "name": "_index",
          "type": "uint256"
        },
        {
          "indexed": true,
          "name": "_debtor",
          "type": "address"
        }
      ],
      "name": "loanOffer",
      "type": "event"
    },
    {
      "anonymous": false,
      "inputs": [
        {
          "indexed": true,
          "name": "_lendor",
          "type": "address"
        },
        {
          "indexed": true,
          "name": "_index",
          "type": "uint256"
        },
        {
          "indexed": true,
          "name": "_debtor",
          "type": "address"
        }
      ],
      "name": "loanSign",
      "type": "event"
    },
    {
      "anonymous": false,
      "inputs": [
        {
          "indexed": true,
          "name": "_lendor",
          "type": "address"
        },
        {
          "indexed": true,
          "name": "_index",
          "type": "uint256"
        },
        {
          "indexed": true,
          "name": "_debtor",
          "type": "address"
        }
      ],
      "name": "loanRepaid",
      "type": "event"
    },
    {
      "anonymous": false,
      "inputs": [
        {
          "indexed": false,
          "name": "amount",
          "type": "uint256"
        }
      ],
      "name": "proof",
      "type": "event"
    },
    {
      "constant": true,
      "inputs": [
        {
          "name": "expiryDate",
          "type": "uint256"
        }
      ],
      "name": "timeAdjustedRR",
      "outputs": [
        {
          "name": "",
          "type": "uint256"
        }
      ],
      "payable": false,
      "stateMutability": "view",
      "type": "function"
    },
    {
      "constant": true,
      "inputs": [],
      "name": "name",
      "outputs": [
        {
          "name": "",
          "type": "string"
        }
      ],
      "payable": false,
      "stateMutability": "view",
      "type": "function"
    },
    {
      "constant": true,
      "inputs": [],
      "name": "symbol",
      "outputs": [
        {
          "name": "",
          "type": "string"
        }
      ],
      "payable": false,
      "stateMutability": "view",
      "type": "function"
    },
    {
      "constant": true,
      "inputs": [],
      "name": "reserveRequirement",
      "outputs": [
        {
          "name": "",
          "type": "uint256"
        }
      ],
      "payable": false,
      "stateMutability": "view",
      "type": "function"
    },
    {
      "constant": true,
      "inputs": [],
      "name": "totalSupply",
      "outputs": [
        {
          "name": "",
          "type": "uint256"
        }
      ],
      "payable": false,
      "stateMutability": "view",
      "type": "function"
    },
    {
      "constant": true,
      "inputs": [
        {
          "name": "holder",
          "type": "address"
        }
      ],
      "name": "balanceOf",
      "outputs": [
        {
          "name": "",
          "type": "uint256"
        }
      ],
      "payable": false,
      "stateMutability": "view",
      "type": "function"
    },
    {
      "constant": true,
      "inputs": [
        {
          "name": "holder",
          "type": "address"
        }
      ],
      "name": "assetsOf",
      "outputs": [
        {
          "name": "",
          "type": "uint256"
        }
      ],
      "payable": false,
      "stateMutability": "view",
      "type": "function"
    },
    {
      "constant": true,
      "inputs": [
        {
          "name": "holder",
          "type": "address"
        }
      ],
      "name": "liabilitiesOf",
      "outputs": [
        {
          "name": "",
          "type": "uint256"
        }
      ],
      "payable": false,
      "stateMutability": "view",
      "type": "function"
    },
    {
      "constant": true,
      "inputs": [],
      "name": "granularity",
      "outputs": [
        {
          "name": "",
          "type": "uint256"
        }
      ],
      "payable": false,
      "stateMutability": "view",
      "type": "function"
    },
    {
      "constant": true,
      "inputs": [],
      "name": "defaultOperators",
      "outputs": [
        {
          "name": "",
          "type": "address[]"
        }
      ],
      "payable": false,
      "stateMutability": "view",
      "type": "function"
    },
    {
      "constant": true,
      "inputs": [
        {
          "name": "operator",
          "type": "address"
        },
        {
          "name": "tokenHolder",
          "type": "address"
        }
      ],
      "name": "isOperatorFor",
      "outputs": [
        {
          "name": "",
          "type": "bool"
        }
      ],
      "payable": false,
      "stateMutability": "view",
      "type": "function"
    },
    {
      "constant": false,
      "inputs": [
        {
          "name": "operator",
          "type": "address"
        }
      ],
      "name": "authorizeOperator",
      "outputs": [],
      "payable": false,
      "stateMutability": "nonpayable",
      "type": "function"
    },
    {
      "constant": false,
      "inputs": [
        {
          "name": "operator",
          "type": "address"
        }
      ],
      "name": "revokeOperator",
      "outputs": [],
      "payable": false,
      "stateMutability": "nonpayable",
      "type": "function"
    },
    {
      "constant": false,
      "inputs": [
        {
          "name": "to",
          "type": "address"
        },
        {
          "name": "amount",
          "type": "uint256"
        }
      ],
      "name": "operatorMint",
      "outputs": [],
      "payable": true,
      "stateMutability": "payable",
      "type": "function"
    },
    {
      "constant": false,
      "inputs": [
        {
          "name": "to",
          "type": "address"
        },
        {
          "name": "post",
          "type": "uint256"
        }
      ],
      "name": "proofOfMeme",
      "outputs": [
        {
          "name": "",
          "type": "uint256"
        }
      ],
      "payable": false,
      "stateMutability": "nonpayable",
      "type": "function"
    },
    {
      "constant": false,
      "inputs": [
        {
          "name": "to",
          "type": "address"
        },
        {
          "name": "amount",
          "type": "uint256"
        },
        {
          "name": "data",
          "type": "bytes"
        }
      ],
      "name": "send",
      "outputs": [],
      "payable": false,
      "stateMutability": "nonpayable",
      "type": "function"
    },
    {
      "constant": false,
      "inputs": [
        {
          "name": "debtor",
          "type": "address"
        },
        {
          "name": "amount",
          "type": "uint256"
        },
        {
          "name": "expiry",
          "type": "uint256"
        },
        {
          "name": "interest",
          "type": "uint256"
        }
      ],
      "name": "offerLoan",
      "outputs": [],
      "payable": false,
      "stateMutability": "nonpayable",
      "type": "function"
    },
    {
      "constant": true,
      "inputs": [
        {
          "name": "lendor",
          "type": "address"
        },
        {
          "name": "debtor",
          "type": "address"
        }
      ],
      "name": "getLoanIndex",
      "outputs": [
        {
          "name": "",
          "type": "uint256"
        }
      ],
      "payable": false,
      "stateMutability": "view",
      "type": "function"
    },
    {
      "constant": true,
      "inputs": [
        {
          "name": "lendor",
          "type": "address"
        },
        {
          "name": "debtor",
          "type": "address"
        },
        {
          "name": "index",
          "type": "uint256"
        }
      ],
      "name": "getLoan",
      "outputs": [
        {
          "name": "",
          "type": "uint256"
        },
        {
          "name": "",
          "type": "uint256"
        },
        {
          "name": "",
          "type": "bool"
        },
        {
          "name": "",
          "type": "uint256"
        }
      ],
      "payable": false,
      "stateMutability": "view",
      "type": "function"
    },
    {
      "constant": false,
      "inputs": [
        {
          "name": "lendor",
          "type": "address"
        },
        {
          "name": "index",
          "type": "uint256"
        }
      ],
      "name": "signLoan",
      "outputs": [],
      "payable": false,
      "stateMutability": "nonpayable",
      "type": "function"
    },
    {
      "constant": true,
      "inputs": [
        {
          "name": "lendor",
          "type": "address"
        }
      ],
      "name": "getDebtIndex",
      "outputs": [
        {
          "name": "",
          "type": "uint256"
        }
      ],
      "payable": false,
      "stateMutability": "view",
      "type": "function"
    },
    {
      "constant": false,
      "inputs": [
        {
          "name": "lendor",
          "type": "address"
        },
        {
          "name": "index",
          "type": "uint256"
        }
      ],
      "name": "repayLoan",
      "outputs": [],
      "payable": false,
      "stateMutability": "nonpayable",
      "type": "function"
    }
  ],
  "bytecode": "0x60806040523480156200001157600080fd5b50604051620033b3380380620033b3833981018060405260208110156200003757600080fd5b8101908080516401000000008111156200005057600080fd5b828101905060208101848111156200006757600080fd5b81518560208202830111640100000000821117156200008557600080fd5b50509291905050506040518060400160405280600b81526020017f46696174204672656e7a7900000000000000000000000000000000000000000081525060009080519060200190620000da929190620002fb565b506040518060400160405280600581526020017f4652454e5a0000000000000000000000000000000000000000000000000000008152506001908051906020019062000128929190620002fb565b50600160038190555073__Helpers_______________________________622c1a9e650f9d297a859d6519438b44a65860096040518463ffffffff1660e01b815260040180848152602001838152602001828152602001935050505060206040518083038186803b1580156200019d57600080fd5b505af4158015620001b2573d6000803e3d6000fd5b505050506040513d6020811015620001c957600080fd5b81019080805190602001909291905050506008819055508060049080519060200190620001f892919062000382565b5060008090505b600480549050811015620002ab57600160056000600484815481106200022157fe5b9060005260206000200160009054906101000a900473ffffffffffffffffffffffffffffffffffffffff1673ffffffffffffffffffffffffffffffffffffffff1673ffffffffffffffffffffffffffffffffffffffff16815260200190815260200160002060006101000a81548160ff0219169083151502179055508080600101915050620001ff565b506064600b60003373ffffffffffffffffffffffffffffffffffffffff1673ffffffffffffffffffffffffffffffffffffffff16815260200190815260200160002060000181905550506200047f565b828054600181600116156101000203166002900490600052602060002090601f016020900481019282601f106200033e57805160ff19168380011785556200036f565b828001600101855582156200036f579182015b828111156200036e57825182559160200191906001019062000351565b5b5090506200037e919062000411565b5090565b828054828255906000526020600020908101928215620003fe579160200282015b82811115620003fd5782518260006101000a81548173ffffffffffffffffffffffffffffffffffffffff021916908373ffffffffffffffffffffffffffffffffffffffff16021790555091602001919060010190620003a3565b5b5090506200040d919062000439565b5090565b6200043691905b808211156200043257600081600090555060010162000418565b5090565b90565b6200047c91905b808211156200047857600081816101000a81549073ffffffffffffffffffffffffffffffffffffffff02191690555060010162000440565b5090565b90565b612f24806200048f6000396000f3fe6080604052600436106101355760003560e01c806393a595f5116100ab578063bca48c081161006f578063bca48c081461079a578063c9dfd1a9146107f5578063d95b63711461089d578063ef685ae614610926578063f59d642914610974578063fad8b32a146109c357610135565b806393a595f514610549578063959b8c3f146105a457806395d89b41146105f55780639bd9bbc6146106855780639f17856b1461073557610135565b8063556f0dc7116100fd578063556f0dc7146103355780636166c4611461036057806370a08231146103e55780637f3c587e1461044a57806381d5660c146104755780638638110e146104e457610135565b806306e485381461013a57806306fdde03146101a6578063109d0a9f1461023657806318160ddd146102a55780632c62fa10146102d0575b600080fd5b34801561014657600080fd5b5061014f610a14565b6040518080602001828103825283818151815260200191508051906020019060200280838360005b83811015610192578082015181840152602081019050610177565b505050509050019250505060405180910390f35b3480156101b257600080fd5b506101bb610aa2565b6040518080602001828103825283818151815260200191508051906020019080838360005b838110156101fb5780820151818401526020810190506101e0565b50505050905090810190601f1680156102285780820380516001836020036101000a031916815260200191505b509250505060405180910390f35b34801561024257600080fd5b5061028f6004803603604081101561025957600080fd5b81019080803573ffffffffffffffffffffffffffffffffffffffff16906020019092919080359060200190929190505050610b44565b6040518082815260200191505060405180910390f35b3480156102b157600080fd5b506102ba610def565b6040518082815260200191505060405180910390f35b3480156102dc57600080fd5b5061031f600480360360208110156102f357600080fd5b81019080803573ffffffffffffffffffffffffffffffffffffffff169060200190929190505050610df9565b6040518082815260200191505060405180910390f35b34801561034157600080fd5b5061034a610e7a565b6040518082815260200191505060405180910390f35b34801561036c57600080fd5b506103cf6004803603604081101561038357600080fd5b81019080803573ffffffffffffffffffffffffffffffffffffffff169060200190929190803573ffffffffffffffffffffffffffffffffffffffff169060200190929190505050610e84565b6040518082815260200191505060405180910390f35b3480156103f157600080fd5b506104346004803603602081101561040857600080fd5b81019080803573ffffffffffffffffffffffffffffffffffffffff169060200190929190505050610f13565b6040518082815260200191505060405180910390f35b34801561045657600080fd5b5061045f610f94565b6040518082815260200191505060405180910390f35b34801561048157600080fd5b506104e26004803603608081101561049857600080fd5b81019080803573ffffffffffffffffffffffffffffffffffffffff169060200190929190803590602001909291908035906020019092919080359060200190929190505050610f9e565b005b3480156104f057600080fd5b506105336004803603602081101561050757600080fd5b81019080803573ffffffffffffffffffffffffffffffffffffffff1690602001909291905050506114e3565b6040518082815260200191505060405180910390f35b34801561055557600080fd5b506105a26004803603604081101561056c57600080fd5b81019080803573ffffffffffffffffffffffffffffffffffffffff16906020019092919080359060200190929190505050611564565b005b3480156105b057600080fd5b506105f3600480360360208110156105c757600080fd5b81019080803573ffffffffffffffffffffffffffffffffffffffff169060200190929190505050611840565b005b34801561060157600080fd5b5061060a611aa8565b6040518080602001828103825283818151815260200191508051906020019080838360005b8381101561064a57808201518184015260208101905061062f565b50505050905090810190601f1680156106775780820380516001836020036101000a031916815260200191505b509250505060405180910390f35b34801561069157600080fd5b50610733600480360360608110156106a857600080fd5b81019080803573ffffffffffffffffffffffffffffffffffffffff16906020019092919080359060200190929190803590602001906401000000008111156106ef57600080fd5b82018360208201111561070157600080fd5b8035906020019184600183028401116401000000008311171561072357600080fd5b9091929391929390505050611b4a565b005b34801561074157600080fd5b506107846004803603602081101561075857600080fd5b81019080803573ffffffffffffffffffffffffffffffffffffffff169060200190929190505050611c77565b6040518082815260200191505060405180910390f35b3480156107a657600080fd5b506107f3600480360360408110156107bd57600080fd5b81019080803573ffffffffffffffffffffffffffffffffffffffff16906020019092919080359060200190929190505050611d00565b005b34801561080157600080fd5b5061086e6004803603606081101561081857600080fd5b81019080803573ffffffffffffffffffffffffffffffffffffffff169060200190929190803573ffffffffffffffffffffffffffffffffffffffff1690602001909291908035906020019092919050505061211e565b604051808581526020018481526020018315151515815260200182815260200194505050505060405180910390f35b3480156108a957600080fd5b5061090c600480360360408110156108c057600080fd5b81019080803573ffffffffffffffffffffffffffffffffffffffff169060200190929190803573ffffffffffffffffffffffffffffffffffffffff169060200190929190505050612244565b604051808215151515815260200191505060405180910390f35b6109726004803603604081101561093c57600080fd5b81019080803573ffffffffffffffffffffffffffffffffffffffff169060200190929190803590602001909291905050506123f5565b005b34801561098057600080fd5b506109ad6004803603602081101561099757600080fd5b81019080803590602001909291905050506125f0565b6040518082815260200191505060405180910390f35b3480156109cf57600080fd5b50610a12600480360360208110156109e657600080fd5b81019080803573ffffffffffffffffffffffffffffffffffffffff169060200190929190505050612646565b005b60606004805480602002602001604051908101604052809291908181526020018280548015610a9857602002820191906000526020600020905b8160009054906101000a900473ffffffffffffffffffffffffffffffffffffffff1673ffffffffffffffffffffffffffffffffffffffff1681526020019060010190808311610a4e575b5050505050905090565b606060008054600181600116156101000203166002900480601f016020809104026020016040519081016040528092919081815260200182805460018160011615610100020316600290048015610b3a5780601f10610b0f57610100808354040283529160200191610b3a565b820191906000526020600020905b815481529060010190602001808311610b1d57829003601f168201915b5050505050905090565b6000600560003373ffffffffffffffffffffffffffffffffffffffff1673ffffffffffffffffffffffffffffffffffffffff16815260200190815260200160002060009054906101000a900460ff16610c05576040517f08c379a00000000000000000000000000000000000000000000000000000000081526004018080602001828103825260118152602001807f65786563757469766520666e206f6e6c7900000000000000000000000000000081525060200191505060405180910390fd5b60001515600a600084815260200190815260200160002060009054906101000a900460ff16151514610c9f576040517f08c379a000000000000000000000000000000000000000000000000000000000815260040180806020018281038252601c8152602001807f6e6f207573696e67207468652073616d6520706f73742074776963650000000081525060200191505060405180910390fd5b60096000610cad9190612de4565b600082905060008090505b6000821115610d1a576000600a8381610ccd57fe5b069050600a8381610cda57fe5b0492506009819080600181540180825580915050906001820390600052602060002001600090919290919091505550600160098054905003915050610cb8565b600080905060006001905060008090505b600980549050811015610d9f576000811415610d605760098181548110610d4e57fe5b90600052602060002001549250610d92565b60098181548110610d6d57fe5b9060005260206000200154831415610d8c578180600101925050610d91565b610d9f565b5b8080600101915050610d2b565b506000610dac83836128ae565b9050610db888826123f5565b6001600a600089815260200190815260200160002060006101000a81548160ff021916908315150217905550505050505092915050565b6000600254905090565b6000610e03612e05565b600b60008473ffffffffffffffffffffffffffffffffffffffff1673ffffffffffffffffffffffffffffffffffffffff168152602001908152602001600020604051806060016040529081600082015481526020016001820154815260200160028201548152505090508060200151915050919050565b6000600354905090565b600080600d60008573ffffffffffffffffffffffffffffffffffffffff1673ffffffffffffffffffffffffffffffffffffffff16815260200190815260200160002060008473ffffffffffffffffffffffffffffffffffffffff1673ffffffffffffffffffffffffffffffffffffffff1681526020019081526020016000208054905090508091505092915050565b6000610f1d612e05565b600b60008473ffffffffffffffffffffffffffffffffffffffff1673ffffffffffffffffffffffffffffffffffffffff168152602001908152602001600020604051806060016040529081600082015481526020016001820154815260200160028201548152505090508060000151915050919050565b6000600854905090565b8260006003548281610fac57fe5b0614611020576040517f08c379a000000000000000000000000000000000000000000000000000000000815260040180806020018281038252600c8152602001807f6d617468207761726e696e67000000000000000000000000000000000000000081525060200191505060405180910390fd5b33848461102b612e05565b600b60008573ffffffffffffffffffffffffffffffffffffffff1673ffffffffffffffffffffffffffffffffffffffff16815260200190815260200160002060405180606001604052908160008201548152602001600182015481526020016002820154815250509050600073__Helpers_______________________________622c1a9e85846040015101846000015160096040518463ffffffff1660e01b815260040180848152602001838152602001828152602001935050505060206040518083038186803b15801561110057600080fd5b505af4158015611114573d6000803e3d6000fd5b505050506040513d602081101561112a57600080fd5b81019080805190602001909291905050509050611146836125f0565b81111561119e576040517f08c379a0000000000000000000000000000000000000000000000000000000008152600401808060200182810382526027815260200180612eb06027913960400191505060405180910390fd5b6201518042890311611218576040517f08c379a000000000000000000000000000000000000000000000000000000000815260040180806020018281038252601c8152602001807f6c6f616e73206d757374206265206174206c656173742061203234680000000081525060200191505060405180910390fd5b611220612e26565b6040518060c001604052808b81526020018a815260200160001515815260200142815260200160008152602001898152509050600c60003373ffffffffffffffffffffffffffffffffffffffff1673ffffffffffffffffffffffffffffffffffffffff16815260200190815260200160002060008c73ffffffffffffffffffffffffffffffffffffffff1673ffffffffffffffffffffffffffffffffffffffff1681526020019081526020016000208190806001815401808255809150509060018203906000526020600020906006020160009091929091909150600082015181600001556020820151816001015560408201518160020160006101000a81548160ff021916908315150217905550606082015181600301556080820151816004015560a082015181600501555050506000600c60003373ffffffffffffffffffffffffffffffffffffffff1673ffffffffffffffffffffffffffffffffffffffff16815260200190815260200160002060008d73ffffffffffffffffffffffffffffffffffffffff1673ffffffffffffffffffffffffffffffffffffffff168152602001908152602001600020805490509050600d60003373ffffffffffffffffffffffffffffffffffffffff1673ffffffffffffffffffffffffffffffffffffffff16815260200190815260200160002060008d73ffffffffffffffffffffffffffffffffffffffff1673ffffffffffffffffffffffffffffffffffffffff1681526020019081526020016000208190806001815401808255809150509060018203906000526020600020016000909192909190915055508b73ffffffffffffffffffffffffffffffffffffffff16813373ffffffffffffffffffffffffffffffffffffffff167f70c9e256e5590a7520512b88293528b2c0c7ecf3c36695181926988987156b6760405160405180910390a4505050505050505050505050565b60006114ed612e05565b600b60008473ffffffffffffffffffffffffffffffffffffffff1673ffffffffffffffffffffffffffffffffffffffff168152602001908152602001600020604051806060016040529081600082015481526020016001820154815260200160028201548152505090508060400151915050919050565b6000600c60008473ffffffffffffffffffffffffffffffffffffffff1673ffffffffffffffffffffffffffffffffffffffff16815260200190815260200160002060003373ffffffffffffffffffffffffffffffffffffffff1673ffffffffffffffffffffffffffffffffffffffff16815260200190815260200160002060018303815481106115f057fe5b90600052602060002090600602019050806001015442101561165d576040517f08c379a000000000000000000000000000000000000000000000000000000000815260040180806020018281038252602c815260200180612e84602c913960400191505060405180910390fd5b6000600b60003373ffffffffffffffffffffffffffffffffffffffff1673ffffffffffffffffffffffffffffffffffffffff16815260200190815260200160002090506000600b60008673ffffffffffffffffffffffffffffffffffffffff1673ffffffffffffffffffffffffffffffffffffffff168152602001908152602001600020905082600501548360000154018360050154836000015401101561176d576040517f08c379a00000000000000000000000000000000000000000000000000000000081526004018080602001828103825260118152602001807f696e737566666963656e742066756e647300000000000000000000000000000081525060200191505060405180910390fd5b61177c8533856005015461290e565b82600001548260000160008282540392505081905550826000015482600201600082825403925050819055508260000154816002016000828254039250508190555082600501548160010160008282540392505081905550600083600001819055503373ffffffffffffffffffffffffffffffffffffffff16848673ffffffffffffffffffffffffffffffffffffffff167ff57cc7f3bb20dfe97a6041fbb06abb7613a11ca4a5f4a3a5466d43356e6b631760405160405180910390a45050505050565b33818073ffffffffffffffffffffffffffffffffffffffff168273ffffffffffffffffffffffffffffffffffffffff1614156118c7576040517f08c379a0000000000000000000000000000000000000000000000000000000008152600401808060200182810382526022815260200180612ed76022913960400191505060405180910390fd5b600560008473ffffffffffffffffffffffffffffffffffffffff1673ffffffffffffffffffffffffffffffffffffffff16815260200190815260200160002060009054906101000a900460ff16156119b3576000600660008573ffffffffffffffffffffffffffffffffffffffff1673ffffffffffffffffffffffffffffffffffffffff16815260200190815260200160002060003373ffffffffffffffffffffffffffffffffffffffff1673ffffffffffffffffffffffffffffffffffffffff16815260200190815260200160002060006101000a81548160ff021916908315150217905550611a49565b6001600760008573ffffffffffffffffffffffffffffffffffffffff1673ffffffffffffffffffffffffffffffffffffffff16815260200190815260200160002060003373ffffffffffffffffffffffffffffffffffffffff1673ffffffffffffffffffffffffffffffffffffffff16815260200190815260200160002060006101000a81548160ff0219169083151502179055505b3373ffffffffffffffffffffffffffffffffffffffff168373ffffffffffffffffffffffffffffffffffffffff167ff4caeb2d6ca8932a215a353d0703c326ec2d81fc68170f320eb2ab49e9df61f960405160405180910390a3505050565b606060018054600181600116156101000203166002900480601f016020809104026020016040519081016040528092919081815260200182805460018160011615610100020316600290048015611b405780601f10611b1557610100808354040283529160200191611b40565b820191906000526020600020905b815481529060010190602001808311611b2357829003601f168201915b5050505050905090565b8260006003548281611b5857fe5b0614611bcc576040517f08c379a000000000000000000000000000000000000000000000000000000000815260040180806020018281038252600c8152602001807f6d617468207761726e696e67000000000000000000000000000000000000000081525060200191505060405180910390fd5b611bd785338661290e565b8473ffffffffffffffffffffffffffffffffffffffff163373ffffffffffffffffffffffffffffffffffffffff167f9d4246230aaa870ac56b8caa1eaa5463c39e11b0d8f36bfc6294816367f9d19486868660405180848152602001806020018281038252848482818152602001925080828437600081840152601f19601f82011690508083019250505094505050505060405180910390a35050505050565b6000600c60008373ffffffffffffffffffffffffffffffffffffffff1673ffffffffffffffffffffffffffffffffffffffff16815260200190815260200160002060003373ffffffffffffffffffffffffffffffffffffffff1673ffffffffffffffffffffffffffffffffffffffff168152602001908152602001600020805490509050919050565b81600c60008473ffffffffffffffffffffffffffffffffffffffff1673ffffffffffffffffffffffffffffffffffffffff16815260200190815260200160002060003373ffffffffffffffffffffffffffffffffffffffff1673ffffffffffffffffffffffffffffffffffffffff1681526020019081526020016000206001830381548110611d8b57fe5b906000526020600020906006020160000154611da5612e05565b600b60008473ffffffffffffffffffffffffffffffffffffffff1673ffffffffffffffffffffffffffffffffffffffff16815260200190815260200160002060405180606001604052908160008201548152602001600182015481526020016002820154815250509050600073__Helpers_______________________________622c1a9e84846040015101846000015160096040518463ffffffff1660e01b815260040180848152602001838152602001828152602001935050505060206040518083038186803b158015611e7a57600080fd5b505af4158015611e8e573d6000803e3d6000fd5b505050506040513d6020811015611ea457600080fd5b81019080805190602001909291905050509050600854811115611f12576040517f08c379a0000000000000000000000000000000000000000000000000000000008152600401808060200182810382526027815260200180612eb06027913960400191505060405180910390fd5b6000600c60008873ffffffffffffffffffffffffffffffffffffffff1673ffffffffffffffffffffffffffffffffffffffff16815260200190815260200160002060003373ffffffffffffffffffffffffffffffffffffffff1673ffffffffffffffffffffffffffffffffffffffff1681526020019081526020016000206001870381548110611f9e57fe5b906000526020600020906006020190506000600b60008973ffffffffffffffffffffffffffffffffffffffff1673ffffffffffffffffffffffffffffffffffffffff16815260200190815260200160002090506000600b60003373ffffffffffffffffffffffffffffffffffffffff1673ffffffffffffffffffffffffffffffffffffffff16815260200190815260200160002090508260000154816000016000828254019250508190555082600501548360000154018160020160008282540192505081905550826000015482600201600082825401925050819055508260050154826001016000828254019250508190555060018360020160006101000a81548160ff0219169083151502179055504283600401819055503373ffffffffffffffffffffffffffffffffffffffff16888a73ffffffffffffffffffffffffffffffffffffffff167fe3b3cffda5a20d9b3256be3959f9e5a53f9fb69d3bb028f5239a0e034c7a5ae360405160405180910390a4505050505050505050565b60008060008061212c612e26565b600c60008973ffffffffffffffffffffffffffffffffffffffff1673ffffffffffffffffffffffffffffffffffffffff16815260200190815260200160002060008873ffffffffffffffffffffffffffffffffffffffff1673ffffffffffffffffffffffffffffffffffffffff16815260200190815260200160002060018703815481106121b657fe5b90600052602060002090600602016040518060c001604052908160008201548152602001600182015481526020016002820160009054906101000a900460ff16151515158152602001600382015481526020016004820154815260200160058201548152505090508060000151816060015182604001518360a0015194509450945094505093509350935093565b60008173ffffffffffffffffffffffffffffffffffffffff168373ffffffffffffffffffffffffffffffffffffffff1614806123065750600760008473ffffffffffffffffffffffffffffffffffffffff1673ffffffffffffffffffffffffffffffffffffffff16815260200190815260200160002060008373ffffffffffffffffffffffffffffffffffffffff1673ffffffffffffffffffffffffffffffffffffffff16815260200190815260200160002060009054906101000a900460ff165b806123ed5750600560008473ffffffffffffffffffffffffffffffffffffffff1673ffffffffffffffffffffffffffffffffffffffff16815260200190815260200160002060009054906101000a900460ff1680156123ec5750600660008473ffffffffffffffffffffffffffffffffffffffff1673ffffffffffffffffffffffffffffffffffffffff16815260200190815260200160002060008373ffffffffffffffffffffffffffffffffffffffff1673ffffffffffffffffffffffffffffffffffffffff16815260200190815260200160002060009054906101000a900460ff16155b5b905092915050565b806000600354828161240357fe5b0614612477576040517f08c379a000000000000000000000000000000000000000000000000000000000815260040180806020018281038252600c8152602001807f6d617468207761726e696e67000000000000000000000000000000000000000081525060200191505060405180910390fd5b600560003373ffffffffffffffffffffffffffffffffffffffff1673ffffffffffffffffffffffffffffffffffffffff16815260200190815260200160002060009054906101000a900460ff16612536576040517f08c379a00000000000000000000000000000000000000000000000000000000081526004018080602001828103825260178152602001807f6578656375746976652066756e6374696f6e206f6e6c7900000000000000000081525060200191505060405180910390fd5b81600b60008573ffffffffffffffffffffffffffffffffffffffff1673ffffffffffffffffffffffffffffffffffffffff168152602001908152602001600020600001600082825401925050819055508273ffffffffffffffffffffffffffffffffffffffff163373ffffffffffffffffffffffffffffffffffffffff167f9d228d69b5fdb8d273a2336f8fb8612d039631024ea9bf09c424a9503aa078f0846040518082815260200191505060405180910390a3505050565b60008042830390506000620151809050600081838161260b57fe5b04905061016d81101561263857600061016d6008548161262757fe5b049050808202945050505050612641565b60085493505050505b919050565b33818073ffffffffffffffffffffffffffffffffffffffff168273ffffffffffffffffffffffffffffffffffffffff1614156126cd576040517f08c379a0000000000000000000000000000000000000000000000000000000008152600401808060200182810382526022815260200180612ed76022913960400191505060405180910390fd5b600560008473ffffffffffffffffffffffffffffffffffffffff1673ffffffffffffffffffffffffffffffffffffffff16815260200190815260200160002060009054906101000a900460ff16156127b9576001600660008573ffffffffffffffffffffffffffffffffffffffff1673ffffffffffffffffffffffffffffffffffffffff16815260200190815260200160002060003373ffffffffffffffffffffffffffffffffffffffff1673ffffffffffffffffffffffffffffffffffffffff16815260200190815260200160002060006101000a81548160ff02191690831515021790555061284f565b6000600760008573ffffffffffffffffffffffffffffffffffffffff1673ffffffffffffffffffffffffffffffffffffffff16815260200190815260200160002060003373ffffffffffffffffffffffffffffffffffffffff1673ffffffffffffffffffffffffffffffffffffffff16815260200190815260200160002060006101000a81548160ff0219169083151502179055505b3373ffffffffffffffffffffffffffffffffffffffff168373ffffffffffffffffffffffffffffffffffffffff167f50546e66e5f44d728365dc3908c63bc5cfeeab470722c1677e3073a6ac294aa160405160405180910390a3505050565b600060606128bb84612adc565b9050606060405180602001604052806000815250905060008090505b848110156128f8576128e98284612c09565b915080806001019150506128d7565b612903826000612cd1565b935050505092915050565b600073ffffffffffffffffffffffffffffffffffffffff168373ffffffffffffffffffffffffffffffffffffffff1614156129b1576040517f08c379a00000000000000000000000000000000000000000000000000000000081526004018080602001828103825260108152602001807f6e6f20746f6b656e7320746f203078300000000000000000000000000000000081525060200191505060405180910390fd5b6000600b60008473ffffffffffffffffffffffffffffffffffffffff1673ffffffffffffffffffffffffffffffffffffffff16815260200190815260200160002090508181600001541015612a6e576040517f08c379a00000000000000000000000000000000000000000000000000000000081526004018080602001828103825260128152602001807f496e73756666696369656e742046756e6473000000000000000000000000000081525060200191505060405180910390fd5b6000600b60008673ffffffffffffffffffffffffffffffffffffffff1673ffffffffffffffffffffffffffffffffffffffff16815260200190815260200160002090508282600001600082825403925050819055508281600001600082825401925050819055505050505050565b60606000821415612b24576040518060400160405280600181526020017f30000000000000000000000000000000000000000000000000000000000000008152509050612c04565b600082905060005b60008214612b4e578080600101915050600a8281612b4657fe5b049150612b2c565b6060816040519080825280601f01601f191660200182016040528015612b835781602001600182028038833980820191505090505b50905060006001830390505b60008614612bfc57600a8681612ba157fe5b0660300160f81b82828060019003935081518110612bbb57fe5b60200101907effffffffffffffffffffffffffffffffffffffffffffffffffffffffffffff1916908160001a905350600a8681612bf457fe5b049550612b8f565b819450505050505b919050565b606082826040516020018083805190602001908083835b60208310612c435780518252602082019150602081019050602083039250612c20565b6001836020036101000a03801982511681845116808217855250505050505090500182805190602001908083835b60208310612c945780518252602082019150602081019050602083039250612c71565b6001836020036101000a03801982511681845116808217855250505050505090500192505050604051602081830303815290604052905092915050565b600060608390506000809050600080905060008090505b8351811015612dc5576030848281518110612cff57fe5b602001015160f81c60f81b60f81c60ff1610158015612d3b57506039848281518110612d2757fe5b602001015160f81c60f81b60f81c60ff1611155b15612d8d578115612d5e576000861415612d5457612dc5565b8580600190039650505b600a830292506030848281518110612d7257fe5b602001015160f81c60f81b60f81c60ff160383019250612db8565b602e848281518110612d9b57fe5b602001015160f81c60f81b60f81c60ff161415612db757600191505b5b8080600101915050612ce8565b506000851115612dd85784600a0a820291505b81935050505092915050565b5080546000825590600052602060002090810190612e029190612e5e565b50565b60405180606001604052806000815260200160008152602001600081525090565b6040518060c0016040528060008152602001600081526020016000151581526020016000815260200160008152602001600081525090565b612e8091905b80821115612e7c576000816000905550600101612e64565b5090565b9056fe6c6f616e73206d7573742062652065787069726564206265666f72652074686579206172652072657061696461706f6c6f676965732c207265736572766520726571756972656d656e74206578636565646564546869732066756e6374696f6e206973206e6f742073656c662063616c6c61626c65a165627a7a7230582092028b93ff9671b7ef6305e8e04969c4b8b686755d2c06ca268ca67bf95eeaba0029",
  "source": "pragma solidity 0.5.8;\nimport './Helpers.sol';\n\ncontract FiatFrenzy  {\n  // Coin Meta\n  string internal _name;\n  string internal _symbol;\n  uint256 internal _totalSupply;\n  uint256 internal _granularity;\n  \n  event Sent(\n    address indexed from,\n    address indexed to,\n    uint256 amount,\n    bytes data\n  );\n  \n  // Operator Stuff\n  event AuthorizedOperator(\n    address indexed operator,\n    address indexed holder\n  );\n\n  event RevokedOperator(address indexed operator, address indexed holder);\n  \n  address[] internal _defaultOperators;\n  mapping(address => bool) internal _isDefaultOperator;\n  mapping(address => mapping(address => bool)) internal _revokedDefaultOperator;\n  mapping(address => mapping(address => bool)) internal _authorizedOperators;\n  \n  // Frenzy\n  uint256 _reserveRequirement;\n  // no dynamic sizing of memory arrays, this gets deleted before every mint\n  uint256[] _digits;\n  mapping (uint256 => bool) _usedPostIds;\n\n  struct Account {\n    // The number of tokens an account has\n    uint256 _balance;\n    // The number of positive loan\n    uint256 _assets;\n    // The number of negative loan\n    uint256 _liabilities;\n  }\n  mapping (address => Account) _accounts;\n  \n  struct Loan {\n    uint256 _principle;\n    uint256 _expiry;\n    bool _isApproved;\n    uint256 _createdAt;\n    uint256 _signedAt;\n    uint256 _interest;\n  }\n  // _loans[lendor][debtor]\n  mapping (address => mapping (address => Loan[])) _loans;\n  // indexer, using push to guarantee uniques\n  mapping (address => mapping (address => uint256[])) _loanIndicies;\n\n  event Minted(\n    address indexed _operator,\n    address indexed _to,\n    uint256 _amount\n  );\n\n  event loanOffer(\n    address indexed _lendor,\n    uint256 indexed _index,\n    address indexed _debtor\n  );\n\n  event loanSign(\n    address indexed _lendor,\n    uint256 indexed _index,\n    address indexed _debtor\n  );\n\n  event loanRepaid(\n    address indexed _lendor,\n    uint256 indexed _index,\n    address indexed _debtor\n  );\n\n  modifier notSelf(address sender, address target) {\n    require(sender != target, \"This function is not self callable\");\n    _;\n  }\n\n  modifier isMultipleOf(uint256 amount) {\n    require(amount % _granularity == 0, 'math warning');\n    _;\n  }\n\n\n  function timeAdjustedRR(\n    uint256 expiryDate\n  ) public view returns(uint256) {\n    // higher numbers further in time\n    uint256 lengthOfTimeInS = expiryDate - now;\n    uint256 dayInS = 3600*24;\n    // i believe this floors, is this satisfactory on the edge?\n    uint256 daysTillExpiry = lengthOfTimeInS / dayInS;\n    \n    if (daysTillExpiry < 365) {\n      uint256 increment = _reserveRequirement / 365;\n      return daysTillExpiry*increment;\n    }\n    return _reserveRequirement;\n  }\n\n  modifier isWithinReserveRatio(\n    address lendor,\n    uint256 amount\n  ) {\n    Account memory account = _accounts[lendor];\n    uint256 currentRatio = Helpers.percent(account._liabilities + amount, account._balance, 9);\n    require(currentRatio <= _reserveRequirement, \"apologies, reserve requirement exceeded\");\n    _;\n  }\n\n  modifier isLoanOfferWithinReserveRatio(\n    address lendor,\n    uint256 amount,\n    uint256 expiry\n  ) {\n    Account memory account = _accounts[lendor];\n    uint256 currentRatio = Helpers.percent(account._liabilities + amount, account._balance, 9);\n    require(currentRatio <= timeAdjustedRR(expiry), \"apologies, reserve requirement exceeded\");\n    _;\n  }\n\n  constructor(\n    address[] memory defaultOperators\n  ) public {\n    _name = \"Fiat Frenzy\";\n    _symbol = \"FRENZ\";\n    _granularity = 1;\n    _reserveRequirement = Helpers.percent(17167680177565, 27777890035288, 9);\n    _defaultOperators = defaultOperators;\n    for (uint256 i = 0; i < _defaultOperators.length; i++) {\n      _isDefaultOperator[_defaultOperators[i]] = true;\n    }\n    // some test coins, remove for prod\n    _accounts[msg.sender]._balance = 100;\n\n  }\n  \n  function name() external view returns (string memory) {\n    return _name;\n  }\n\n  function symbol() external view returns (string memory) {\n    return _symbol;\n  }\n\n  function reserveRequirement() external view returns (uint256) {\n    return _reserveRequirement;\n  }\n\n  \n  function totalSupply() external view returns (uint256) {\n    return _totalSupply;\n  }\n  \n  function balanceOf(address holder) external view returns (uint256) {\n    Account memory account = _accounts[holder];\n    return account._balance;  \n  }\n  \n  function assetsOf(address holder) external view returns (uint256) {\n    Account memory account = _accounts[holder];\n    return account._assets;  \n  }\n\n  function liabilitiesOf(address holder) external view returns (uint256) {\n    Account memory account = _accounts[holder];\n    return account._liabilities;  \n  }\n  \n  function granularity() external view returns (uint256) {\n    return _granularity;\n  }\n\n  function defaultOperators() external view returns (address[] memory) {\n    return _defaultOperators;\n  }\n\n  function isOperatorFor(\n    address operator,\n    address tokenHolder) public view returns (bool) {\n    return (operator == tokenHolder\n           || _authorizedOperators[operator][tokenHolder]\n           || (_isDefaultOperator[operator] && !_revokedDefaultOperator[operator][tokenHolder]));\n  }\n\n  function authorizeOperator(address operator) notSelf(msg.sender, operator) external {\n   if (_isDefaultOperator[operator]) {\n     _revokedDefaultOperator[operator][msg.sender] = false;\n   } else {\n     _authorizedOperators[operator][msg.sender] = true;\n   }\n   emit AuthorizedOperator(operator, msg.sender);\n  }\n  \n  function revokeOperator(address operator) notSelf(msg.sender, operator) external {\n   if (_isDefaultOperator[operator]) {\n     _revokedDefaultOperator[operator][msg.sender] = true;\n   } else {\n     _authorizedOperators[operator][msg.sender] = false;\n   }\n   emit RevokedOperator(operator, msg.sender);\n  }\n\n \n  function operatorMint(address to, uint256 amount) isMultipleOf(amount) public payable {\n    require(_isDefaultOperator[msg.sender], 'executive function only');\n    _accounts[to]._balance += amount;\n    \n    emit Minted(msg.sender, to, amount);\n  }\n\n\n  function formGet(uint digit, uint factor) internal pure returns (uint) {\n    string memory digitAsStr = Helpers.uintToString(digit);\n    string memory digitsAsStr = '';\n    uint i = 0;\n    while (i < factor) {\n      digitsAsStr = Helpers.append(digitsAsStr, digitAsStr);\n      i++;\n    }\n   return Helpers.parseInt(digitsAsStr, 0);\n  }\n  event proof(\n    uint256 amount\n  );\n  function proofOfMeme(address to, uint256 post) external returns (uint256) {\n    require(_isDefaultOperator[msg.sender], 'executive fn only');\n    require(_usedPostIds[post] == false, 'no using the same post twice');\n    delete _digits;\n    uint256 number = post;\n    uint256 lastIndex = 0;\n   \n    while (number > 0) {\n      uint256 digit = uint256(number % 10);\n      number = number / 10;\n      _digits.push(digit);\n      lastIndex = _digits.length - 1;\n    } \n    uint256 last = 0;\n    uint256 getFactor = 1;\n      for (uint256 i = 0; i < _digits.length; i++) {\n        if (i == 0) {\n          last = _digits[i];\n        } else {\n          if (last == _digits[i]) {\n            getFactor++;\n          } else {\n            break;\n          }\n        }\n    }\n    uint256 amount = formGet(last, getFactor);\n    operatorMint(to, amount);\n    _usedPostIds[post] = true;\n  }\n \n  function _send(\n    address to,\n    address from,\n    uint256 amount\n  ) internal {\n    require(to != address(0), 'no tokens to 0x0');\n    Account storage senderAccount = _accounts[from];\n    require(senderAccount._balance >= amount, \"Insufficient Funds\");\n    Account storage recieverAccount = _accounts[to];\n\n    senderAccount._balance -= amount;\n    recieverAccount._balance += amount;\n\n  } \n  function send(\n    address to,\n    uint256 amount,\n    bytes calldata data\n  ) isMultipleOf(amount)\n  external {\n    _send(to, msg.sender, amount);   \n    emit Sent(msg.sender, to, amount, data); \n  }\n\n  function offerLoan(\n    address debtor,\n    uint256 amount,\n    uint256 expiry,\n    uint256 interest\n  ) isMultipleOf(amount)\n    isLoanOfferWithinReserveRatio(\n      msg.sender,\n      amount,\n      expiry\n    )\n  external {\n    // minimum day\n    require((expiry - now) > 3600*24, 'loans must be at least a 24h');\n    Loan memory newLoan = Loan(amount, expiry, false, now, 0, interest);\n    // _loans[lendor][debtor]\n    _loans[msg.sender][debtor].push(newLoan);\n    uint256 index = _loans[msg.sender][debtor].length;\n    _loanIndicies[msg.sender][debtor].push(index);\n\n    emit loanOffer(msg.sender, index, debtor);\n  }\n  \n  function getLoanIndex(\n    address lendor,\n    address debtor\n  ) external view returns (uint256) {\n    uint256 index = _loanIndicies[lendor][debtor].length;\n    return index;\n  }\n\n  function getLoan(\n    address lendor,\n    address debtor,\n    uint256 index\n  ) external view returns (uint256, uint256, bool, uint256) {\n    Loan memory loan =  _loans[lendor][debtor][index - 1];  \n    return (loan._principle, loan._createdAt, loan._isApproved, loan._interest);\n  }\n\n  function signLoan(\n    address lendor,\n    uint256 index\n  ) isWithinReserveRatio(\n      lendor,\n      _loans[lendor][msg.sender][index -1]._principle\n  ) external {\n\n    Loan storage loan = _loans[lendor][msg.sender][index - 1];\n    Account storage lendorAccount = _accounts[lendor];\n    Account storage debtorAccount = _accounts[msg.sender];\n    \n    debtorAccount._balance += loan._principle;\n    debtorAccount._liabilities += loan._principle + loan._interest;\n\n    lendorAccount._liabilities += loan._principle;\n    lendorAccount._assets += loan._interest;\n    \n    loan._isApproved = true;\n    loan._signedAt = now; \n\n    emit loanSign(lendor, index, msg.sender);\n  }\n\n  function getDebtIndex(\n    address lendor\n  ) external view returns (uint256) {\n    return _loans[lendor][msg.sender].length;\n  }\n\n  function repayLoan(\n    address lendor,\n    uint256 index\n  ) \n  external {\n    Loan storage loan = _loans[lendor][msg.sender][index - 1];\n    require(now >= loan._expiry, 'loans must be expired before they are repaid');\n    Account storage debtorAccount = _accounts[msg.sender];\n    Account storage lendorAccount = _accounts[lendor];\n    require(\n      debtorAccount._balance + loan._interest >= loan._principle + loan._interest, 'insufficent funds'\n    );\n\n    _send(lendor, msg.sender, loan._interest);\n\n    debtorAccount._balance -= loan._principle; \n    debtorAccount._liabilities -= loan._principle;\n    \n    lendorAccount._liabilities -= loan._principle;\n    lendorAccount._assets -= loan._interest;\n    \n    loan._principle = 0;\n    emit loanRepaid(lendor, index, msg.sender);\n  }\n} \n",
  "sourcePath": "/home/taylor/Fiat-Frenzy-777/contracts/FiatFrenzy.sol",
  "compiler": {
    "name": "solc",
    "version": "0.5.8+commit.23d335f2.Emscripten.clang"
  },
  "schemaVersion": "3.0.16",
  "updatedAt": "2019-12-08T16:23:59.836Z",
  "devdoc": {
    "methods": {}
  },
  "userdoc": {
    "methods": {}
  }
}