{
  "contractName": "AdvancedWETH",
  "abi": [
    {
      "inputs": [
        {
          "internalType": "address payable",
          "name": "weth_",
          "type": "address"
        }
      ],
      "stateMutability": "nonpayable",
      "type": "constructor"
    },
    {
      "inputs": [],
      "name": "weth",
      "outputs": [
        {
          "internalType": "address payable",
          "name": "",
          "type": "address"
        }
      ],
      "stateMutability": "view",
      "type": "function",
      "constant": true
    },
    {
      "stateMutability": "payable",
      "type": "receive",
      "payable": true
    },
    {
      "inputs": [
        {
          "internalType": "uint256",
          "name": "amount",
          "type": "uint256"
        },
        {
          "internalType": "address",
          "name": "to",
          "type": "address"
        },
        {
          "internalType": "bytes",
          "name": "data",
          "type": "bytes"
        }
      ],
      "name": "depositAndTransferFromThenCall",
      "outputs": [],
      "stateMutability": "payable",
      "type": "function",
      "payable": true
    },
    {
      "inputs": [
        {
          "internalType": "address payable",
          "name": "to",
          "type": "address"
        }
      ],
      "name": "withdrawTo",
      "outputs": [],
      "stateMutability": "nonpayable",
      "type": "function"
    }
  ],
  "bytecode": "0x60a060405234801561001057600080fd5b506040516108f83803806108f88339818101604052602081101561003357600080fd5b5051606081901b6001600160601b0319166080526001600160a01b031661087461008460003980605552806101fa528061022452806102fd5280610456528061066552806106e252506108746000f3fe6080604052600436106100385760003560e01c80633fc8cef3146100e8578063589943451461012657806372b0d90c146101b8576100e3565b366100e3573373ffffffffffffffffffffffffffffffffffffffff7f000000000000000000000000000000000000000000000000000000000000000016146100e157604080517f08c379a000000000000000000000000000000000000000000000000000000000815260206004820152600960248201527f574554485f4f4e4c590000000000000000000000000000000000000000000000604482015290519081900360640190fd5b005b600080fd5b3480156100f457600080fd5b506100fd6101f8565b6040805173ffffffffffffffffffffffffffffffffffffffff9092168252519081900360200190f35b6100e16004803603606081101561013c57600080fd5b81359173ffffffffffffffffffffffffffffffffffffffff6020820135169181019060608101604082013564010000000081111561017957600080fd5b82018360208201111561018b57600080fd5b803590602001918460018302840111640100000000831117156101ad57600080fd5b50909250905061021c565b3480156101c457600080fd5b506100e1600480360360208110156101db57600080fd5b503573ffffffffffffffffffffffffffffffffffffffff1661061c565b7f000000000000000000000000000000000000000000000000000000000000000081565b34156102a4577f000000000000000000000000000000000000000000000000000000000000000073ffffffffffffffffffffffffffffffffffffffff1663d0e30db0346040518263ffffffff1660e01b81526004016000604051808303818588803b15801561028a57600080fd5b505af115801561029e573d6000803e3d6000fd5b50505050505b831561037257604080517f23b872dd00000000000000000000000000000000000000000000000000000000815233600482015230602482015260448101869052905173ffffffffffffffffffffffffffffffffffffffff7f000000000000000000000000000000000000000000000000000000000000000016916323b872dd9160648083019260209291908290030181600087803b15801561034557600080fd5b505af1158015610359573d6000803e3d6000fd5b505050506040513d602081101561036f57600080fd5b50505b34808501908110156103e557604080517f08c379a000000000000000000000000000000000000000000000000000000000815260206004820152600860248201527f4f564552464c4f57000000000000000000000000000000000000000000000000604482015290519081900360640190fd5b6000811161045457604080517f08c379a000000000000000000000000000000000000000000000000000000000815260206004820152600b60248201527f5a45524f5f494e50555453000000000000000000000000000000000000000000604482015290519081900360640190fd5b7f000000000000000000000000000000000000000000000000000000000000000073ffffffffffffffffffffffffffffffffffffffff1663095ea7b385836040518363ffffffff1660e01b8152600401808373ffffffffffffffffffffffffffffffffffffffff1673ffffffffffffffffffffffffffffffffffffffff16815260200182815260200192505050602060405180830381600087803b1580156104fb57600080fd5b505af115801561050f573d6000803e3d6000fd5b505050506040513d602081101561052557600080fd5b505060405160009073ffffffffffffffffffffffffffffffffffffffff86169085908590808383808284376040519201945060009350909150508083038183865af19150503d8060008114610596576040519150601f19603f3d011682016040523d82523d6000602084013e61059b565b606091505b505090508061060b57604080517f08c379a000000000000000000000000000000000000000000000000000000000815260206004820152600e60248201527f544f5f43414c4c5f4641494c4544000000000000000000000000000000000000604482015290519081900360640190fd5b6106143361061c565b505050505050565b604080517f70a08231000000000000000000000000000000000000000000000000000000008152306004820152905160009173ffffffffffffffffffffffffffffffffffffffff7f000000000000000000000000000000000000000000000000000000000000000016916370a0823191602480820192602092909190829003018186803b1580156106ac57600080fd5b505afa1580156106c0573d6000803e3d6000fd5b505050506040513d60208110156106d657600080fd5b50519050801561083a577f000000000000000000000000000000000000000000000000000000000000000073ffffffffffffffffffffffffffffffffffffffff16632e1a7d4d826040518263ffffffff1660e01b815260040180828152602001915050600060405180830381600087803b15801561075357600080fd5b505af1158015610767573d6000803e3d6000fd5b50506040516000925073ffffffffffffffffffffffffffffffffffffffff8516915083908381818185875af1925050503d80600081146107c3576040519150601f19603f3d011682016040523d82523d6000602084013e6107c8565b606091505b505090508061083857604080517f08c379a000000000000000000000000000000000000000000000000000000000815260206004820152601760248201527f57495448445241575f544f5f43414c4c5f4641494c4544000000000000000000604482015290519081900360640190fd5b505b505056fea26469706673582212209f9fc0fb27abca8da123377c3f2f38c5b4bcdf03a46c141d6117936155cf957a64736f6c63430006070033",
  "immutableReferences": {
    "8": [
      {
        "length": 32,
        "start": 85
      },
      {
        "length": 32,
        "start": 506
      },
      {
        "length": 32,
        "start": 548
      },
      {
        "length": 32,
        "start": 765
      },
      {
        "length": 32,
        "start": 1110
      },
      {
        "length": 32,
        "start": 1637
      },
      {
        "length": 32,
        "start": 1762
      }
    ]
  },
  "source": "pragma solidity =0.6.7;\n\nimport \"./interfaces/IWETH9.sol\";\nimport \"./interfaces/IAdvancedWETH.sol\";\n\n// See interface for documentation.\ncontract AdvancedWETH is IAdvancedWETH {\n    address payable public override immutable weth;\n\n    constructor(address payable weth_) public {\n        weth = weth_;\n    }\n\n    // See interface for documentation.\n    function depositAndTransferFromThenCall(uint amount, address to, bytes calldata data) external override payable {\n        if (msg.value > 0) {\n            IWETH9(weth).deposit{value: msg.value}();\n        }\n        if (amount > 0) {\n            IWETH9(weth).transferFrom(msg.sender, address(this), amount);\n        }\n        uint total = msg.value + amount;\n        require(total >= msg.value, 'OVERFLOW'); // nobody should be this rich.\n        require(total > 0, 'ZERO_INPUTS');\n        IWETH9(weth).approve(to, total);\n        (bool success,) = to.call(data);\n        require(success, 'TO_CALL_FAILED');\n        // unwrap and refund any unspent WETH.\n        withdrawTo(msg.sender);\n    }\n\n    // Only the WETH contract may send ETH via a call to withdraw.\n    receive() payable external { require(msg.sender == weth, 'WETH_ONLY'); }\n\n    // See interface for documentation.\n    function withdrawTo(address payable to) public override {\n        uint wethBalance = IWETH9(weth).balanceOf(address(this));\n        if (wethBalance > 0) {\n            IWETH9(weth).withdraw(wethBalance);\n            (bool success,) = to.call{value: wethBalance}('');\n            require(success, 'WITHDRAW_TO_CALL_FAILED');\n        }\n    }\n}\n",
  "sourcePath": "/Users/moody/IdeaProjects/wrapped-weth/contracts/AdvancedWETH.sol",
  "compiler": {
    "name": "solc",
    "version": "0.6.7+commit.b8d736ae.Emscripten.clang"
  },
  "schemaVersion": "3.3.0",
  "updatedAt": "2020-10-17T22:58:05.362Z",
  "networkType": "ethereum",
  "devdoc": {
    "methods": {}
  },
  "userdoc": {
    "methods": {}
  }
}