{
  "contractName": "FREN",
  "abi": [
    {
      "inputs": [
        {
          "internalType": "uint256",
          "name": "initialAmount",
          "type": "uint256"
        },
        {
          "internalType": "address",
          "name": "daiAddress",
          "type": "address"
        },
        {
          "internalType": "address",
          "name": "uniswapV2FactoryAddress",
          "type": "address"
        },
        {
          "internalType": "address",
          "name": "uniswapV2Router02Address",
          "type": "address"
        },
        {
          "internalType": "address",
          "name": "slidingWindowOracleAddress",
          "type": "address"
        }
      ],
      "stateMutability": "nonpayable",
      "type": "constructor"
    },
    {
      "anonymous": false,
      "inputs": [
        {
          "indexed": true,
          "internalType": "address",
          "name": "owner",
          "type": "address"
        },
        {
          "indexed": true,
          "internalType": "address",
          "name": "spender",
          "type": "address"
        },
        {
          "indexed": false,
          "internalType": "uint256",
          "name": "value",
          "type": "uint256"
        }
      ],
      "name": "Approval",
      "type": "event"
    },
    {
      "anonymous": false,
      "inputs": [
        {
          "indexed": true,
          "internalType": "address",
          "name": "from",
          "type": "address"
        },
        {
          "indexed": true,
          "internalType": "address",
          "name": "to",
          "type": "address"
        },
        {
          "indexed": false,
          "internalType": "uint256",
          "name": "value",
          "type": "uint256"
        }
      ],
      "name": "Transfer",
      "type": "event"
    },
    {
      "anonymous": false,
      "inputs": [
        {
          "indexed": true,
          "internalType": "address",
          "name": "lendor",
          "type": "address"
        },
        {
          "indexed": true,
          "internalType": "uint256",
          "name": "index",
          "type": "uint256"
        },
        {
          "indexed": true,
          "internalType": "address",
          "name": "debtor",
          "type": "address"
        }
      ],
      "name": "loanOffer",
      "type": "event"
    },
    {
      "anonymous": false,
      "inputs": [
        {
          "indexed": true,
          "internalType": "address",
          "name": "lendor",
          "type": "address"
        },
        {
          "indexed": true,
          "internalType": "uint256",
          "name": "index",
          "type": "uint256"
        },
        {
          "indexed": true,
          "internalType": "address",
          "name": "debtor",
          "type": "address"
        }
      ],
      "name": "loanRepaid",
      "type": "event"
    },
    {
      "anonymous": false,
      "inputs": [
        {
          "indexed": true,
          "internalType": "address",
          "name": "lendor",
          "type": "address"
        },
        {
          "indexed": true,
          "internalType": "uint256",
          "name": "index",
          "type": "uint256"
        },
        {
          "indexed": true,
          "internalType": "address",
          "name": "debtor",
          "type": "address"
        }
      ],
      "name": "loanSign",
      "type": "event"
    },
    {
      "inputs": [
        {
          "internalType": "address",
          "name": "owner",
          "type": "address"
        },
        {
          "internalType": "address",
          "name": "spender",
          "type": "address"
        }
      ],
      "name": "allowance",
      "outputs": [
        {
          "internalType": "uint256",
          "name": "",
          "type": "uint256"
        }
      ],
      "stateMutability": "view",
      "type": "function",
      "constant": true
    },
    {
      "inputs": [
        {
          "internalType": "address",
          "name": "spender",
          "type": "address"
        },
        {
          "internalType": "uint256",
          "name": "amount",
          "type": "uint256"
        }
      ],
      "name": "approve",
      "outputs": [
        {
          "internalType": "bool",
          "name": "",
          "type": "bool"
        }
      ],
      "stateMutability": "nonpayable",
      "type": "function"
    },
    {
      "inputs": [
        {
          "internalType": "address",
          "name": "account",
          "type": "address"
        }
      ],
      "name": "balanceOf",
      "outputs": [
        {
          "internalType": "uint256",
          "name": "",
          "type": "uint256"
        }
      ],
      "stateMutability": "view",
      "type": "function",
      "constant": true
    },
    {
      "inputs": [],
      "name": "decimals",
      "outputs": [
        {
          "internalType": "uint8",
          "name": "",
          "type": "uint8"
        }
      ],
      "stateMutability": "view",
      "type": "function",
      "constant": true
    },
    {
      "inputs": [
        {
          "internalType": "address",
          "name": "spender",
          "type": "address"
        },
        {
          "internalType": "uint256",
          "name": "subtractedValue",
          "type": "uint256"
        }
      ],
      "name": "decreaseAllowance",
      "outputs": [
        {
          "internalType": "bool",
          "name": "",
          "type": "bool"
        }
      ],
      "stateMutability": "nonpayable",
      "type": "function"
    },
    {
      "inputs": [
        {
          "internalType": "address",
          "name": "spender",
          "type": "address"
        },
        {
          "internalType": "uint256",
          "name": "addedValue",
          "type": "uint256"
        }
      ],
      "name": "increaseAllowance",
      "outputs": [
        {
          "internalType": "bool",
          "name": "",
          "type": "bool"
        }
      ],
      "stateMutability": "nonpayable",
      "type": "function"
    },
    {
      "inputs": [],
      "name": "name",
      "outputs": [
        {
          "internalType": "string",
          "name": "",
          "type": "string"
        }
      ],
      "stateMutability": "view",
      "type": "function",
      "constant": true
    },
    {
      "inputs": [],
      "name": "reserveRequirement",
      "outputs": [
        {
          "internalType": "uint256",
          "name": "",
          "type": "uint256"
        }
      ],
      "stateMutability": "view",
      "type": "function",
      "constant": true
    },
    {
      "inputs": [],
      "name": "symbol",
      "outputs": [
        {
          "internalType": "string",
          "name": "",
          "type": "string"
        }
      ],
      "stateMutability": "view",
      "type": "function",
      "constant": true
    },
    {
      "inputs": [],
      "name": "totalCredibilityPoints",
      "outputs": [
        {
          "internalType": "uint256",
          "name": "",
          "type": "uint256"
        }
      ],
      "stateMutability": "view",
      "type": "function",
      "constant": true
    },
    {
      "inputs": [],
      "name": "totalSupply",
      "outputs": [
        {
          "internalType": "uint256",
          "name": "",
          "type": "uint256"
        }
      ],
      "stateMutability": "view",
      "type": "function",
      "constant": true
    },
    {
      "inputs": [
        {
          "internalType": "address",
          "name": "recipient",
          "type": "address"
        },
        {
          "internalType": "uint256",
          "name": "amount",
          "type": "uint256"
        }
      ],
      "name": "transfer",
      "outputs": [
        {
          "internalType": "bool",
          "name": "",
          "type": "bool"
        }
      ],
      "stateMutability": "nonpayable",
      "type": "function"
    },
    {
      "inputs": [
        {
          "internalType": "address",
          "name": "sender",
          "type": "address"
        },
        {
          "internalType": "address",
          "name": "recipient",
          "type": "address"
        },
        {
          "internalType": "uint256",
          "name": "amount",
          "type": "uint256"
        }
      ],
      "name": "transferFrom",
      "outputs": [
        {
          "internalType": "bool",
          "name": "",
          "type": "bool"
        }
      ],
      "stateMutability": "nonpayable",
      "type": "function"
    },
    {
      "inputs": [],
      "name": "uniswapPairAddress",
      "outputs": [
        {
          "internalType": "address",
          "name": "",
          "type": "address"
        }
      ],
      "stateMutability": "view",
      "type": "function",
      "constant": true
    },
    {
      "inputs": [],
      "name": "daiReserve",
      "outputs": [
        {
          "internalType": "uint256",
          "name": "",
          "type": "uint256"
        }
      ],
      "stateMutability": "view",
      "type": "function",
      "constant": true
    },
    {
      "inputs": [
        {
          "internalType": "address",
          "name": "account",
          "type": "address"
        },
        {
          "internalType": "uint256",
          "name": "expiryDate",
          "type": "uint256"
        }
      ],
      "name": "timeAdjustedRR",
      "outputs": [
        {
          "internalType": "uint256",
          "name": "",
          "type": "uint256"
        }
      ],
      "stateMutability": "view",
      "type": "function",
      "constant": true
    },
    {
      "inputs": [
        {
          "internalType": "address",
          "name": "debtor",
          "type": "address"
        },
        {
          "internalType": "uint256",
          "name": "amount",
          "type": "uint256"
        },
        {
          "internalType": "uint256",
          "name": "expiry",
          "type": "uint256"
        },
        {
          "internalType": "uint256",
          "name": "interest",
          "type": "uint256"
        }
      ],
      "name": "offerLoan",
      "outputs": [],
      "stateMutability": "nonpayable",
      "type": "function"
    },
    {
      "inputs": [
        {
          "internalType": "address",
          "name": "lendor",
          "type": "address"
        },
        {
          "internalType": "uint256",
          "name": "index",
          "type": "uint256"
        }
      ],
      "name": "signLoan",
      "outputs": [],
      "stateMutability": "nonpayable",
      "type": "function"
    },
    {
      "inputs": [
        {
          "internalType": "address",
          "name": "lendor",
          "type": "address"
        },
        {
          "internalType": "uint256",
          "name": "index",
          "type": "uint256"
        }
      ],
      "name": "repayLoan",
      "outputs": [],
      "stateMutability": "nonpayable",
      "type": "function"
    },
    {
      "inputs": [
        {
          "internalType": "address",
          "name": "holder",
          "type": "address"
        }
      ],
      "name": "assetsOf",
      "outputs": [
        {
          "internalType": "uint256",
          "name": "",
          "type": "uint256"
        }
      ],
      "stateMutability": "view",
      "type": "function",
      "constant": true
    },
    {
      "inputs": [
        {
          "internalType": "address",
          "name": "holder",
          "type": "address"
        }
      ],
      "name": "liabilitiesOf",
      "outputs": [
        {
          "internalType": "uint256",
          "name": "",
          "type": "uint256"
        }
      ],
      "stateMutability": "view",
      "type": "function",
      "constant": true
    }
  ],
  "bytecode": "0x60806040523480156200001157600080fd5b506040516200323b3803806200323b833981810160405260a08110156200003757600080fd5b8101908080519060200190929190805190602001909291908051906020019092919080519060200190929190805190602001909291905050506040518060400160405280602081526020017f4665646572616c20526573657276652045766572796f6e65204e6574776f726b8152506040518060400160405280600481526020017f4652454e000000000000000000000000000000000000000000000000000000008152508160039080519060200190620000f492919062000679565b5080600490805190602001906200010d92919062000679565b506012600560006101000a81548160ff021916908360ff1602179055505050600160068190555083600760006101000a81548173ffffffffffffffffffffffffffffffffffffffff021916908373ffffffffffffffffffffffffffffffffffffffff16021790555082600860006101000a81548173ffffffffffffffffffffffffffffffffffffffff021916908373ffffffffffffffffffffffffffffffffffffffff160217905550600860009054906101000a900473ffffffffffffffffffffffffffffffffffffffff1673ffffffffffffffffffffffffffffffffffffffff1663c9c6539685306040518363ffffffff1660e01b8152600401808373ffffffffffffffffffffffffffffffffffffffff1681526020018273ffffffffffffffffffffffffffffffffffffffff16815260200192505050602060405180830381600087803b1580156200026057600080fd5b505af115801562000275573d6000803e3d6000fd5b505050506040513d60208110156200028c57600080fd5b8101908080519060200190929190505050600b60006101000a81548173ffffffffffffffffffffffffffffffffffffffff021916908373ffffffffffffffffffffffffffffffffffffffff16021790555080600a60006101000a81548173ffffffffffffffffffffffffffffffffffffffff021916908373ffffffffffffffffffffffffffffffffffffffff1602179055506200033033866200036b60201b60201c565b6200035a620003496200054960201b62000a311760201c565b6200056060201b62001c4c1760201c565b600c8190555050505050506200071f565b600073ffffffffffffffffffffffffffffffffffffffff168273ffffffffffffffffffffffffffffffffffffffff1614156200040f576040517f08c379a000000000000000000000000000000000000000000000000000000000815260040180806020018281038252601f8152602001807f45524332303a206d696e7420746f20746865207a65726f20616464726573730081525060200191505060405180910390fd5b6200042360008383620005eb60201b60201c565b6200043f81600254620005f060201b62001cd61790919060201c565b6002819055506200049d816000808573ffffffffffffffffffffffffffffffffffffffff1673ffffffffffffffffffffffffffffffffffffffff16815260200190815260200160002054620005f060201b62001cd61790919060201c565b6000808473ffffffffffffffffffffffffffffffffffffffff1673ffffffffffffffffffffffffffffffffffffffff168152602001908152602001600020819055508173ffffffffffffffffffffffffffffffffffffffff16600073ffffffffffffffffffffffffffffffffffffffff167fddf252ad1be2c89b69c2b068fc378daa952ba7f163c4a11628f55a4df523b3ef836040518082815260200191505060405180910390a35050565b6000600560009054906101000a900460ff16905090565b6000604d8260ff161115620005dd576040517f08c379a00000000000000000000000000000000000000000000000000000000081526004018080602001828103825260118152602001807f546f6f206d616e7920646563696d616c7300000000000000000000000000000081525060200191505060405180910390fd5b8160ff16600a0a9050919050565b505050565b6000808284019050838110156200066f576040517f08c379a000000000000000000000000000000000000000000000000000000000815260040180806020018281038252601b8152602001807f536166654d6174683a206164646974696f6e206f766572666c6f77000000000081525060200191505060405180910390fd5b8091505092915050565b828054600181600116156101000203166002900490600052602060002090601f016020900481019282601f10620006bc57805160ff1916838001178555620006ed565b82800160010185558215620006ed579182015b82811115620006ec578251825591602001919060010190620006cf565b5b509050620006fc919062000700565b5090565b5b808211156200071b57600081600090555060010162000701565b5090565b612b0c806200072f6000396000f3fe608060405234801561001057600080fd5b50600436106101375760003560e01c80637f3c587e116100b8578063a457c2d71161007c578063a457c2d714610623578063a9059cbb14610687578063bca48c08146106eb578063bd3733fe14610739578063dd62ed3e1461076d578063e2771ec8146107e557610137565b80637f3c587e1461047a57806381d5660c146104985780638638110e146104fa57806393a595f51461055257806395d89b41146105a057610137565b8063313ce567116100ff578063313ce5671461031d578063395093511461033e57806339cdcd0f146103a257806353f6d07d146103c057806370a082311461042257610137565b806306fdde031461013c578063095ea7b3146101bf57806318160ddd1461022357806323b872dd146102415780632c62fa10146102c5575b600080fd5b610144610803565b6040518080602001828103825283818151815260200191508051906020019080838360005b83811015610184578082015181840152602081019050610169565b50505050905090810190601f1680156101b15780820380516001836020036101000a031916815260200191505b509250505060405180910390f35b61020b600480360360408110156101d557600080fd5b81019080803573ffffffffffffffffffffffffffffffffffffffff169060200190929190803590602001909291905050506108a5565b60405180821515815260200191505060405180910390f35b61022b6108c3565b6040518082815260200191505060405180910390f35b6102ad6004803603606081101561025757600080fd5b81019080803573ffffffffffffffffffffffffffffffffffffffff169060200190929190803573ffffffffffffffffffffffffffffffffffffffff169060200190929190803590602001909291905050506108cd565b60405180821515815260200191505060405180910390f35b610307600480360360208110156102db57600080fd5b81019080803573ffffffffffffffffffffffffffffffffffffffff1690602001909291905050506109a6565b6040518082815260200191505060405180910390f35b610325610a31565b604051808260ff16815260200191505060405180910390f35b61038a6004803603604081101561035457600080fd5b81019080803573ffffffffffffffffffffffffffffffffffffffff16906020019092919080359060200190929190505050610a48565b60405180821515815260200191505060405180910390f35b6103aa610afb565b6040518082815260200191505060405180910390f35b61040c600480360360408110156103d657600080fd5b81019080803573ffffffffffffffffffffffffffffffffffffffff16906020019092919080359060200190929190505050610b01565b6040518082815260200191505060405180910390f35b6104646004803603602081101561043857600080fd5b81019080803573ffffffffffffffffffffffffffffffffffffffff169060200190929190505050610bd7565b6040518082815260200191505060405180910390f35b610482610c1f565b6040518082815260200191505060405180910390f35b6104f8600480360360808110156104ae57600080fd5b81019080803573ffffffffffffffffffffffffffffffffffffffff169060200190929190803590602001909291908035906020019092919080359060200190929190505050610c25565b005b61053c6004803603602081101561051057600080fd5b81019080803573ffffffffffffffffffffffffffffffffffffffff1690602001909291905050506110f6565b6040518082815260200191505060405180910390f35b61059e6004803603604081101561056857600080fd5b81019080803573ffffffffffffffffffffffffffffffffffffffff16906020019092919080359060200190929190505050611181565b005b6105a8611494565b6040518080602001828103825283818151815260200191508051906020019080838360005b838110156105e85780820151818401526020810190506105cd565b50505050905090810190601f1680156106155780820380516001836020036101000a031916815260200191505b509250505060405180910390f35b61066f6004803603604081101561063957600080fd5b81019080803573ffffffffffffffffffffffffffffffffffffffff16906020019092919080359060200190929190505050611536565b60405180821515815260200191505060405180910390f35b6106d36004803603604081101561069d57600080fd5b81019080803573ffffffffffffffffffffffffffffffffffffffff16906020019092919080359060200190929190505050611603565b60405180821515815260200191505060405180910390f35b6107376004803603604081101561070157600080fd5b81019080803573ffffffffffffffffffffffffffffffffffffffff16906020019092919080359060200190929190505050611621565b005b610741611ad4565b604051808273ffffffffffffffffffffffffffffffffffffffff16815260200191505060405180910390f35b6107cf6004803603604081101561078357600080fd5b81019080803573ffffffffffffffffffffffffffffffffffffffff169060200190929190803573ffffffffffffffffffffffffffffffffffffffff169060200190929190505050611afa565b6040518082815260200191505060405180910390f35b6107ed611b81565b6040518082815260200191505060405180910390f35b606060038054600181600116156101000203166002900480601f01602080910402602001604051908101604052809291908181526020018280546001816001161561010002031660029004801561089b5780601f106108705761010080835404028352916020019161089b565b820191906000526020600020905b81548152906001019060200180831161087e57829003601f168201915b5050505050905090565b60006108b96108b2611d5e565b8484611d66565b6001905092915050565b6000600254905090565b60006108da848484611f5d565b61099b846108e6611d5e565b610996856040518060600160405280602881526020016129f960289139600160008b73ffffffffffffffffffffffffffffffffffffffff1673ffffffffffffffffffffffffffffffffffffffff168152602001908152602001600020600061094c611d5e565b73ffffffffffffffffffffffffffffffffffffffff1673ffffffffffffffffffffffffffffffffffffffff1681526020019081526020016000205461221e9092919063ffffffff16565b611d66565b600190509392505050565b60006109b06128ea565b600e60008473ffffffffffffffffffffffffffffffffffffffff1673ffffffffffffffffffffffffffffffffffffffff16815260200190815260200160002060405180608001604052908160008201548152602001600182015481526020016002820154815260200160038201548152505090508060200151915050919050565b6000600560009054906101000a900460ff16905090565b6000610af1610a55611d5e565b84610aec8560016000610a66611d5e565b73ffffffffffffffffffffffffffffffffffffffff1673ffffffffffffffffffffffffffffffffffffffff16815260200190815260200160002060008973ffffffffffffffffffffffffffffffffffffffff1673ffffffffffffffffffffffffffffffffffffffff16815260200190815260200160002054611cd690919063ffffffff16565b611d66565b6001905092915050565b600d5481565b6000610b0b6128ea565b600e60008573ffffffffffffffffffffffffffffffffffffffff1673ffffffffffffffffffffffffffffffffffffffff16815260200190815260200160002060405180608001604052908160008201548152602001600182015481526020016002820154815260200160038201548152505090506000428403905060006201518090506000818381610b9957fe5b04905061016d811015610bc757600061016d600c5481610bb557fe5b04905080820295505050505050610bd1565b600c549450505050505b92915050565b60008060008373ffffffffffffffffffffffffffffffffffffffff1673ffffffffffffffffffffffffffffffffffffffff168152602001908152602001600020549050919050565b600c5481565b338383610c306128ea565b600e60008573ffffffffffffffffffffffffffffffffffffffff1673ffffffffffffffffffffffffffffffffffffffff16815260200190815260200160002060405180608001604052908160008201548152602001600182015481526020016002820154815260200160038201548152505090506000610caf85610bd7565b9050600073__Helpers_______________________________622c1a9e868560400151018460126040518463ffffffff1660e01b815260040180848152602001838152602001828152602001935050505060206040518083038186803b158015610d1857600080fd5b505af4158015610d2c573d6000803e3d6000fd5b505050506040513d6020811015610d4257600080fd5b81019080805190602001909291905050509050610d5f8685610b01565b811115610db7576040517f08c379a0000000000000000000000000000000000000000000000000000000008152600401808060200182810382526027815260200180612a216027913960400191505060405180910390fd5b6201518042890311610e31576040517f08c379a000000000000000000000000000000000000000000000000000000000815260040180806020018281038252601c8152602001807f6c6f616e73206d757374206265206174206c656173742061203234680000000081525060200191505060405180910390fd5b610e39612912565b6040518060c001604052808b81526020018a815260200160001515815260200142815260200160008152602001898152509050600f60003373ffffffffffffffffffffffffffffffffffffffff1673ffffffffffffffffffffffffffffffffffffffff16815260200190815260200160002060008c73ffffffffffffffffffffffffffffffffffffffff1673ffffffffffffffffffffffffffffffffffffffff168152602001908152602001600020819080600181540180825580915050600190039060005260206000209060060201600090919091909150600082015181600001556020820151816001015560408201518160020160006101000a81548160ff021916908315150217905550606082015181600301556080820151816004015560a0820151816005015550506000600f60003373ffffffffffffffffffffffffffffffffffffffff1673ffffffffffffffffffffffffffffffffffffffff16815260200190815260200160002060008d73ffffffffffffffffffffffffffffffffffffffff1673ffffffffffffffffffffffffffffffffffffffff168152602001908152602001600020805490509050601060003373ffffffffffffffffffffffffffffffffffffffff1673ffffffffffffffffffffffffffffffffffffffff16815260200190815260200160002060008d73ffffffffffffffffffffffffffffffffffffffff1673ffffffffffffffffffffffffffffffffffffffff1681526020019081526020016000208190806001815401808255809150506001900390600052602060002001600090919091909150558b73ffffffffffffffffffffffffffffffffffffffff16813373ffffffffffffffffffffffffffffffffffffffff167f70c9e256e5590a7520512b88293528b2c0c7ecf3c36695181926988987156b6760405160405180910390a4505050505050505050505050565b60006111006128ea565b600e60008473ffffffffffffffffffffffffffffffffffffffff1673ffffffffffffffffffffffffffffffffffffffff16815260200190815260200160002060405180608001604052908160008201548152602001600182015481526020016002820154815260200160038201548152505090508060400151915050919050565b6000600f60008473ffffffffffffffffffffffffffffffffffffffff1673ffffffffffffffffffffffffffffffffffffffff16815260200190815260200160002060003373ffffffffffffffffffffffffffffffffffffffff1673ffffffffffffffffffffffffffffffffffffffff168152602001908152602001600020600183038154811061120d57fe5b906000526020600020906006020190506000600e60003373ffffffffffffffffffffffffffffffffffffffff1673ffffffffffffffffffffffffffffffffffffffff1681526020019081526020016000209050600061126b33610bd7565b90506000600e60008773ffffffffffffffffffffffffffffffffffffffff1673ffffffffffffffffffffffffffffffffffffffff16815260200190815260200160002090508360050154846000015401821015611330576040517f08c379a00000000000000000000000000000000000000000000000000000000081526004018080602001828103825260118152602001807f696e737566666963656e742066756e647300000000000000000000000000000081525060200191505060405180910390fd5b61133f33878660050154611f5d565b61134d3385600001546122de565b61136e846005015485600001540184600201546124a290919063ffffffff16565b5061139084600501548560000154018460000154611cd690919063ffffffff16565b506113b08460050154856000015401600d54611cd690919063ffffffff16565b506113d2846005015485600001540182600101546124a290919063ffffffff16565b506113ee846000015482600201546124a290919063ffffffff16565b5061141084600501548560000154018260000154611cd690919063ffffffff16565b506114308460050154856000015401600d54611cd690919063ffffffff16565b503373ffffffffffffffffffffffffffffffffffffffff16858773ffffffffffffffffffffffffffffffffffffffff167ff57cc7f3bb20dfe97a6041fbb06abb7613a11ca4a5f4a3a5466d43356e6b631760405160405180910390a4505050505050565b606060048054600181600116156101000203166002900480601f01602080910402602001604051908101604052809291908181526020018280546001816001161561010002031660029004801561152c5780601f106115015761010080835404028352916020019161152c565b820191906000526020600020905b81548152906001019060200180831161150f57829003601f168201915b5050505050905090565b60006115f9611543611d5e565b846115f485604051806060016040528060258152602001612ab2602591396001600061156d611d5e565b73ffffffffffffffffffffffffffffffffffffffff1673ffffffffffffffffffffffffffffffffffffffff16815260200190815260200160002060008a73ffffffffffffffffffffffffffffffffffffffff1673ffffffffffffffffffffffffffffffffffffffff1681526020019081526020016000205461221e9092919063ffffffff16565b611d66565b6001905092915050565b6000611617611610611d5e565b8484611f5d565b6001905092915050565b81600f60008473ffffffffffffffffffffffffffffffffffffffff1673ffffffffffffffffffffffffffffffffffffffff16815260200190815260200160002060003373ffffffffffffffffffffffffffffffffffffffff1673ffffffffffffffffffffffffffffffffffffffff16815260200190815260200160002060018303815481106116ac57fe5b9060005260206000209060060201600001546116c66128ea565b600e60008473ffffffffffffffffffffffffffffffffffffffff1673ffffffffffffffffffffffffffffffffffffffff1681526020019081526020016000206040518060800160405290816000820154815260200160018201548152602001600282015481526020016003820154815250509050600061174c8260000151600d546124ec565b9050600061175985610bd7565b9050600061176d85856040015101836124ec565b9050600061177d84600c54612502565b9050808211156117d8576040517f08c379a0000000000000000000000000000000000000000000000000000000008152600401808060200182810382526027815260200180612a216027913960400191505060405180910390fd5b6000600f60008b73ffffffffffffffffffffffffffffffffffffffff1673ffffffffffffffffffffffffffffffffffffffff16815260200190815260200160002060003373ffffffffffffffffffffffffffffffffffffffff1673ffffffffffffffffffffffffffffffffffffffff16815260200190815260200160002060018a038154811061186457fe5b906000526020600020906006020190506000600e60008c73ffffffffffffffffffffffffffffffffffffffff1673ffffffffffffffffffffffffffffffffffffffff16815260200190815260200160002090506000600e60003373ffffffffffffffffffffffffffffffffffffffff1673ffffffffffffffffffffffffffffffffffffffff168152602001908152602001600020905061191b83600501548460000154018260020154611cd690919063ffffffff16565b5061193d83600501548460000154018360010154611cd690919063ffffffff16565b508260000154826002016000828254019250508190555060018360020160006101000a81548160ff021916908315150217905550428360030181905550611988338460000154612518565b600a60009054906101000a900473ffffffffffffffffffffffffffffffffffffffff1673ffffffffffffffffffffffffffffffffffffffff1663c640752d600760009054906101000a900473ffffffffffffffffffffffffffffffffffffffff16306040518363ffffffff1660e01b8152600401808373ffffffffffffffffffffffffffffffffffffffff1681526020018273ffffffffffffffffffffffffffffffffffffffff16815260200192505050600060405180830381600087803b158015611a5357600080fd5b505af1158015611a67573d6000803e3d6000fd5b505050503373ffffffffffffffffffffffffffffffffffffffff168b8d73ffffffffffffffffffffffffffffffffffffffff167fe3b3cffda5a20d9b3256be3959f9e5a53f9fb69d3bb028f5239a0e034c7a5ae360405160405180910390a4505050505050505050505050565b600b60009054906101000a900473ffffffffffffffffffffffffffffffffffffffff1681565b6000600160008473ffffffffffffffffffffffffffffffffffffffff1673ffffffffffffffffffffffffffffffffffffffff16815260200190815260200160002060008373ffffffffffffffffffffffffffffffffffffffff1673ffffffffffffffffffffffffffffffffffffffff16815260200190815260200160002054905092915050565b6000600760009054906101000a900473ffffffffffffffffffffffffffffffffffffffff1673ffffffffffffffffffffffffffffffffffffffff166370a08231306040518263ffffffff1660e01b8152600401808273ffffffffffffffffffffffffffffffffffffffff16815260200191505060206040518083038186803b158015611c0c57600080fd5b505afa158015611c20573d6000803e3d6000fd5b505050506040513d6020811015611c3657600080fd5b8101908080519060200190929190505050905090565b6000604d8260ff161115611cc8576040517f08c379a00000000000000000000000000000000000000000000000000000000081526004018080602001828103825260118152602001807f546f6f206d616e7920646563696d616c7300000000000000000000000000000081525060200191505060405180910390fd5b8160ff16600a0a9050919050565b600080828401905083811015611d54576040517f08c379a000000000000000000000000000000000000000000000000000000000815260040180806020018281038252601b8152602001807f536166654d6174683a206164646974696f6e206f766572666c6f77000000000081525060200191505060405180910390fd5b8091505092915050565b600033905090565b600073ffffffffffffffffffffffffffffffffffffffff168373ffffffffffffffffffffffffffffffffffffffff161415611dec576040517f08c379a0000000000000000000000000000000000000000000000000000000008152600401808060200182810382526024815260200180612a8e6024913960400191505060405180910390fd5b600073ffffffffffffffffffffffffffffffffffffffff168273ffffffffffffffffffffffffffffffffffffffff161415611e72576040517f08c379a00000000000000000000000000000000000000000000000000000000081526004018080602001828103825260228152602001806129906022913960400191505060405180910390fd5b80600160008573ffffffffffffffffffffffffffffffffffffffff1673ffffffffffffffffffffffffffffffffffffffff16815260200190815260200160002060008473ffffffffffffffffffffffffffffffffffffffff1673ffffffffffffffffffffffffffffffffffffffff168152602001908152602001600020819055508173ffffffffffffffffffffffffffffffffffffffff168373ffffffffffffffffffffffffffffffffffffffff167f8c5be1e5ebec7d5bd14f71427d1e84f3dd0314c0f7b2291e5b200ac8c7c3b925836040518082815260200191505060405180910390a3505050565b600073ffffffffffffffffffffffffffffffffffffffff168373ffffffffffffffffffffffffffffffffffffffff161415611fe3576040517f08c379a0000000000000000000000000000000000000000000000000000000008152600401808060200182810382526025815260200180612a696025913960400191505060405180910390fd5b600073ffffffffffffffffffffffffffffffffffffffff168273ffffffffffffffffffffffffffffffffffffffff161415612069576040517f08c379a000000000000000000000000000000000000000000000000000000000815260040180806020018281038252602381526020018061294b6023913960400191505060405180910390fd5b6120748383836126df565b6120df816040518060600160405280602681526020016129b2602691396000808773ffffffffffffffffffffffffffffffffffffffff1673ffffffffffffffffffffffffffffffffffffffff1681526020019081526020016000205461221e9092919063ffffffff16565b6000808573ffffffffffffffffffffffffffffffffffffffff1673ffffffffffffffffffffffffffffffffffffffff16815260200190815260200160002081905550612172816000808573ffffffffffffffffffffffffffffffffffffffff1673ffffffffffffffffffffffffffffffffffffffff16815260200190815260200160002054611cd690919063ffffffff16565b6000808473ffffffffffffffffffffffffffffffffffffffff1673ffffffffffffffffffffffffffffffffffffffff168152602001908152602001600020819055508173ffffffffffffffffffffffffffffffffffffffff168373ffffffffffffffffffffffffffffffffffffffff167fddf252ad1be2c89b69c2b068fc378daa952ba7f163c4a11628f55a4df523b3ef836040518082815260200191505060405180910390a3505050565b60008383111582906122cb576040517f08c379a00000000000000000000000000000000000000000000000000000000081526004018080602001828103825283818151815260200191508051906020019080838360005b83811015612290578082015181840152602081019050612275565b50505050905090810190601f1680156122bd5780820380516001836020036101000a031916815260200191505b509250505060405180910390fd5b5060008385039050809150509392505050565b600073ffffffffffffffffffffffffffffffffffffffff168273ffffffffffffffffffffffffffffffffffffffff161415612364576040517f08c379a0000000000000000000000000000000000000000000000000000000008152600401808060200182810382526021815260200180612a486021913960400191505060405180910390fd5b612370826000836126df565b6123db8160405180606001604052806022815260200161296e602291396000808673ffffffffffffffffffffffffffffffffffffffff1673ffffffffffffffffffffffffffffffffffffffff1681526020019081526020016000205461221e9092919063ffffffff16565b6000808473ffffffffffffffffffffffffffffffffffffffff1673ffffffffffffffffffffffffffffffffffffffff16815260200190815260200160002081905550612432816002546124a290919063ffffffff16565b600281905550600073ffffffffffffffffffffffffffffffffffffffff168273ffffffffffffffffffffffffffffffffffffffff167fddf252ad1be2c89b69c2b068fc378daa952ba7f163c4a11628f55a4df523b3ef836040518082815260200191505060405180910390a35050565b60006124e483836040518060400160405280601e81526020017f536166654d6174683a207375627472616374696f6e206f766572666c6f77000081525061221e565b905092915050565b60006124fa838360126126e4565b905092915050565b60006125108383601261271c565b905092915050565b600073ffffffffffffffffffffffffffffffffffffffff168273ffffffffffffffffffffffffffffffffffffffff1614156125bb576040517f08c379a000000000000000000000000000000000000000000000000000000000815260040180806020018281038252601f8152602001807f45524332303a206d696e7420746f20746865207a65726f20616464726573730081525060200191505060405180910390fd5b6125c7600083836126df565b6125dc81600254611cd690919063ffffffff16565b600281905550612633816000808573ffffffffffffffffffffffffffffffffffffffff1673ffffffffffffffffffffffffffffffffffffffff16815260200190815260200160002054611cd690919063ffffffff16565b6000808473ffffffffffffffffffffffffffffffffffffffff1673ffffffffffffffffffffffffffffffffffffffff168152602001908152602001600020819055508173ffffffffffffffffffffffffffffffffffffffff16600073ffffffffffffffffffffffffffffffffffffffff167fddf252ad1be2c89b69c2b068fc378daa952ba7f163c4a11628f55a4df523b3ef836040518082815260200191505060405180910390a35050565b505050565b6000612713836127056126f685611c4c565b8761275490919063ffffffff16565b6127da90919063ffffffff16565b90509392505050565b600061274b61272a83611c4c565b61273d858761275490919063ffffffff16565b6127da90919063ffffffff16565b90509392505050565b60008083141561276757600090506127d4565b600082840290508284828161277857fe5b04146127cf576040517f08c379a00000000000000000000000000000000000000000000000000000000081526004018080602001828103825260218152602001806129d86021913960400191505060405180910390fd5b809150505b92915050565b600061281c83836040518060400160405280601a81526020017f536166654d6174683a206469766973696f6e206279207a65726f000000000000815250612824565b905092915050565b600080831182906128d0576040517f08c379a00000000000000000000000000000000000000000000000000000000081526004018080602001828103825283818151815260200191508051906020019080838360005b8381101561289557808201518184015260208101905061287a565b50505050905090810190601f1680156128c25780820380516001836020036101000a031916815260200191505b509250505060405180910390fd5b5060008385816128dc57fe5b049050809150509392505050565b6040518060800160405280600081526020016000815260200160008152602001600081525090565b6040518060c001604052806000815260200160008152602001600015158152602001600081526020016000815260200160008152509056fe45524332303a207472616e7366657220746f20746865207a65726f206164647265737345524332303a206275726e20616d6f756e7420657863656564732062616c616e636545524332303a20617070726f766520746f20746865207a65726f206164647265737345524332303a207472616e7366657220616d6f756e7420657863656564732062616c616e6365536166654d6174683a206d756c7469706c69636174696f6e206f766572666c6f7745524332303a207472616e7366657220616d6f756e74206578636565647320616c6c6f77616e636561706f6c6f676965732c207265736572766520726571756972656d656e7420657863656564656445524332303a206275726e2066726f6d20746865207a65726f206164647265737345524332303a207472616e736665722066726f6d20746865207a65726f206164647265737345524332303a20617070726f76652066726f6d20746865207a65726f206164647265737345524332303a2064656372656173656420616c6c6f77616e63652062656c6f77207a65726fa26469706673582212200403879dd6f2ef608c110cc11a14b221e44ae677029c78b78fa4024c56fd0cff64736f6c63430007010033",
  "immutableReferences": {},
  "source": "pragma solidity ^0.7.1;\n\nimport '@openzeppelin/contracts/token/ERC20/ERC20.sol';\nimport '@openzeppelin/contracts/math/SafeMath.sol';\nimport '@openzeppelin/contracts/utils/ReentrancyGuard.sol';\n\nimport './Helpers.sol';\nimport './DecimalMath.sol';\nimport * as Stub from './Stub.sol';\n\ncontract FREN is ERC20, ReentrancyGuard {\n  using SafeMath for uint256;\n  \n  /* Integrations\n  *\n  *\n  */\n  Stub.sDaiToken daiToken;\n  Stub.sUniswapV2Factory uniswapV2Factory;\n  Stub.sUniswapV2Router02 uniswapV2Router02;\n  Stub.sSlidingWindowOracle slidingWindowOracle;\n  address public uniswapPairAddress;\n  \n  /* State\n  *\n  *\n  */\n\n  // an account may not loan past (Assets / Liabilities)*(credibilityPoints/TotalCredibilityPoints)\n  // this is their share of money printing, a proportion of the global reserve requirement whose size is based on being atop the leaderboard\n  // is fixed point with 18 decimals\n  uint public reserveRequirement;\n  uint public totalCredibilityPoints;\n\n  struct Account {\n    uint256 credibilityPoints;\n    //uint256 newAccountOutflowRestrictor;\n    uint256 assets;\n    uint256 liabilities;\n    uint256 outstandingInterest;\n  }\n  mapping (address => Account) _accounts;\n\n  struct Loan {\n    uint256 principle;\n    uint256 expiry;\n    bool isApproved;\n    uint256 signedAt;\n    uint256 createdAt;\n    uint256 interest;\n  }\n  // _loans[lendor][debtor]\n  mapping (address => mapping (address => Loan[])) _loans;\n  mapping (address => mapping (address => uint256[])) _loanIndicies;\n\n  /* Events\n  *\n  *\n  */\n  event loanOffer(\n    address indexed lendor,\n    uint256 indexed index,\n    address indexed debtor\n  );\n\n  event loanSign(\n    address indexed lendor,\n    uint256 indexed index,\n    address indexed debtor\n  );\n\n  event loanRepaid(\n    address indexed lendor,\n    uint256 indexed index,\n    address indexed debtor\n  );\n\n  /* Constructor\n  *\n  */\n  constructor(\n    uint256 initialAmount,\n    address daiAddress,\n    address uniswapV2FactoryAddress,\n    address uniswapV2Router02Address,\n    address slidingWindowOracleAddress\n  )\n  ERC20(\n    'Federal Reserve Everyone Network',\n    'FREN'\n  )\n  {\n    daiToken = Stub.sDaiToken(daiAddress);\n    uniswapV2Factory = Stub.sUniswapV2Factory(uniswapV2FactoryAddress);\n    uniswapPairAddress = uniswapV2Factory.createPair(daiAddress, address(this));\n    slidingWindowOracle = Stub.sSlidingWindowOracle(slidingWindowOracleAddress);\n    _mint(msg.sender, initialAmount);\n    reserveRequirement = DecimalMath.unit(ERC20.decimals());\n\n  }\n\n  function daiReserve() public view returns (uint256){\n    return daiToken.balanceOf(address(this));\n  }\n\n  /* Reserve req Mod\n  *\n  */\n\n  function update() internal {\n    /* (1 / rr)*total_supply = total_supply + diff\n    * internal system tracts 1 - rr for easier comparison in modifiers\n    * system not 100% sensitive, moves at 1 / 24 th \n    */\n\n    // the reserve Multiplier approximates the anticipated growth in Fren supply given a reserve ratio\n    // FREN adjusts this reserve ratio to generate positive or negative divergence in the money field\n    // to maintain orbit around the 1:1 peg\n    uint unity = DecimalMath.unit(ERC20.decimals());\n    // M = 1 - ( 1 / rr)\n    uint reserveMultiplier_t_0 = DecimalMath.subd(\n      unity,\n      DecimalMath.divd(\n        unity,\n        reserveRequirement\n      )\n    );\n    \n    (\n      uint fren_reserve,\n      uint dai_reserve,\n      uint last_block_timestap\n    ) = Stub.sUniswapV2Pair(\n      Helpers.pairFor(\n        address(uniswapV2Factory),\n        address(daiToken),\n        address(this)\n      )\n    ).getReserves();\n    if (fren_reserve <= dai_reserve) {\n     uint difference = dai_reserve.sub(fren_reserve);\n     uint reserveMultiplier_t_1 = DecimalMath.divd(\n       difference,\n       ERC20.totalSupply()\n     ) + unity;\n     uint reserveMulDiff = DecimalMath.subd(\n       reserveMultiplier_t_1,\n       reserveMultiplier_t_0\n     );\n     uint delta = DecimalMath.divd(\n       reserveMulDiff,\n       DecimalMath.muld(24, unity)\n     );\n     reserveMultiplier_t_1 = DecimalMath.subd(\n      reserveMultiplier_t_1,\n      delta\n     );\n     reserveRequirement = DecimalMath.subd(\n       unity,\n       DecimalMath.divd(\n        unity,\n        reserveMultiplier_t_1\n       )\n     );\n    } else {\n\n     uint difference = fren_reserve.sub(dai_reserve);\n     uint reserveMultiplier_t_1 = DecimalMath.divd(\n       difference,\n       ERC20.totalSupply()\n     ) + unity;\n     uint reserveMulDiff = DecimalMath.subd(\n       reserveMultiplier_t_0,\n       reserveMultiplier_t_1\n     );\n     uint delta = DecimalMath.divd(\n       reserveMulDiff,\n       DecimalMath.muld(24, unity)\n     );\n     reserveMultiplier_t_1 = DecimalMath.addd(\n      reserveMultiplier_t_1,\n      delta\n     );\n     reserveRequirement = DecimalMath.addd(\n       unity,\n       DecimalMath.divd(\n        unity,\n        reserveMultiplier_t_1\n       )\n     );\n    }\n    \n\n     /* using oracle weighted prices is probably alot smarter than the state of the pool at whatever position the miner wants it in a block\n    (uint timestamp_t_1, uint fren_t_1, uint dai_t_1 ) = slidingWindowOracle.pairObservations(uniswapPairAddress, pairIndex);\n    int pair_t_1 = Fixidity.divide(int(fren_t_1), int(dai_t_1));\n    \n    (uint timestamp_t_0, uint fren_t_0, uint dai_t_0 ) = slidingWindowOracle.pairObservations(uniswapPairAddress, pairIndex--);\n    int pair_t_0 = Fixidity.divide(int(fren_t_0), int(dai_t_0));\n    if (pair_t_1 >= pair_t_0) { // (+)\n      uint256 frenShortage = \n      // changeReserveRatio to send back to 1\n\n\n      uint multiplier = Helpers.percent(1 * ERC20.decimals(), reserveRequirement, ERC20.decimals());\n    } else { // (-) \n      \n    }\n\n    */\n    // why use oracle prices when i can query reserve of liquidity pool?\n    //uint8 pairIndex = slidingWindowOracle.observationIndexOf(block.timestamp);\n    //slidingWindowOracle.update(address(this), address(daiToken));\n    \n    //if (pairIndex == 0) { return; } // pass first delta\n    \n    // determine price vector t_0 and t_1\n    // if (+)\n    // reduce reserve requirement so the money multiplier re balances to 1:1\n    // if (-)\n    // tighten reserve requirement to the mony multiple re balances to 1:1\n\n  }\n \n  function timeAdjustedRR(\n    address account,\n    uint256 expiryDate\n  ) public view returns(uint256) {\n    Account memory relevantAccount = _accounts[account];\n    // higher numbers further in time\n    uint256 lengthOfTimeInS = expiryDate - block.timestamp;\n    uint256 dayInS = 3600*24;\n    // i believe this floors, is this satisfactory on the edge?\n    uint256 daysTillExpiry = lengthOfTimeInS / dayInS;\n    \n    if (daysTillExpiry < 365) {\n      uint256 increment = reserveRequirement / 365;\n      return daysTillExpiry*increment;\n    }\n    return reserveRequirement;\n  }\n\n  modifier isWithinReserveRatio(\n    address lendor,\n    uint256 amount\n  ) {\n    Account memory account = _accounts[lendor];\n    uint proportion = DecimalMath.divd(\n      account.credibilityPoints,\n      totalCredibilityPoints\n    );\n    uint256 balance = balanceOf(lendor);\n    uint currentRatio = DecimalMath.divd(\n      account.liabilities + amount,\n      balance\n    );\n    uint activeRequirement = DecimalMath.muld(\n      proportion,\n      reserveRequirement\n    );\n    require(currentRatio <= activeRequirement, \"apologies, reserve requirement exceeded\");\n    _;\n  }\n\n  modifier isLoanOfferWithinReserveRatio(\n    address lendor,\n    uint256 amount,\n    uint256 expiry\n  ) {\n    Account memory account = _accounts[lendor];\n    uint256 balance = balanceOf(lendor);\n    uint256 currentRatio = Helpers.percent(account.liabilities + amount, balance, 18);\n    require(currentRatio <= timeAdjustedRR(lendor, expiry), \"apologies, reserve requirement exceeded\");\n    _;\n  }\n\n  /* Overrides\n  *\n  */\n \n\n  /* Loans\n  *\n  */\n \n  function offerLoan(\n    address debtor,\n    uint256 amount,\n    uint256 expiry,\n    uint256 interest\n  ) isLoanOfferWithinReserveRatio(\n      msg.sender,\n      amount,\n      expiry\n    )\n  external {\n    // minimum day\n    require((expiry - block.timestamp) > 3600*24, 'loans must be at least a 24h');\n    Loan memory newLoan = Loan(amount, expiry, false, block.timestamp, 0, interest);\n    // _loans[lendor][debtor]\n    _loans[msg.sender][debtor].push(newLoan);\n    uint256 index = _loans[msg.sender][debtor].length;\n    _loanIndicies[msg.sender][debtor].push(index);\n\n    emit loanOffer(msg.sender, index, debtor);\n  }\n  \n  function signLoan(\n    address lendor,\n    uint256 index\n  ) isWithinReserveRatio(\n      lendor,\n      _loans[lendor][msg.sender][index - 1].principle\n  ) external {\n    // state\n    Loan storage loan = _loans[lendor][msg.sender][index - 1];\n    Account storage lendorAccount = _accounts[lendor];\n    Account storage debtorAccount = _accounts[msg.sender];\n    \n    // change balances\n    debtorAccount.liabilities.add(loan.principle + loan.interest);\n    lendorAccount.assets.add(loan.principle + loan.interest);\n    lendorAccount.liabilities += loan.principle;\n \n    loan.isApproved = true;\n    loan.signedAt = block.timestamp; \n    \n    _mint(msg.sender, loan.principle);\n    // change globals\n    //_outstandingInterest += loan.interest;\n\n    slidingWindowOracle.update(address(daiToken), address(this));\n    emit loanSign(lendor, index, msg.sender);\n  }\n  \n  function repayLoan(\n    address lendor,\n    uint256 index\n  ) \n  external {\n    Loan storage loan = _loans[lendor][msg.sender][index - 1];\n    //uncommented for testing purpose\n    //require(block.timestamp >= loan.expiry, 'loans must be expired before they are repaid');\n    Account storage debtorAccount = _accounts[msg.sender];\n    uint256  debtorBalance = balanceOf(msg.sender);\n    Account storage lendorAccount = _accounts[lendor];\n    require(\n      debtorBalance >= loan.principle + loan.interest, 'insufficent funds'\n    );\n\n    _transfer(msg.sender, lendor, loan.interest);\n    _burn(msg.sender, loan.principle);\n    \n    debtorAccount.liabilities.sub(loan.principle + loan.interest);\n    debtorAccount.credibilityPoints.add(loan.principle + loan.interest);\n    totalCredibilityPoints.add(loan.principle + loan.interest);\n    \n    lendorAccount.assets.sub(loan.principle + loan.interest);\n    lendorAccount.liabilities.sub(loan.principle);\n    lendorAccount.credibilityPoints.add(loan.principle + loan.interest);\n    totalCredibilityPoints.add(loan.principle + loan.interest);\n    \n    //_outstandingInterest -= loan.interest;\n    emit loanRepaid(lendor, index, msg.sender);\n  }\n\n  function assetsOf(address holder) external view returns (uint256) {\n    Account memory account = _accounts[holder];\n    return account.assets;  \n  }\n\n  function liabilitiesOf(address holder) external view returns (uint256) {\n    Account memory account = _accounts[holder];\n    return account.liabilities;  \n  }\n\n\n\n}\n",
  "sourcePath": "/home/taylor/ff2/contracts/ff2/FREN.sol",
  "compiler": {
    "name": "solc",
    "version": "0.7.1+commit.f4a555be.Emscripten.clang"
  },
  "schemaVersion": "3.3.0",
  "updatedAt": "2020-10-20T00:32:18.008Z",
  "networkType": "ethereum",
  "devdoc": {
    "kind": "dev",
    "methods": {
      "allowance(address,address)": {
        "details": "See {IERC20-allowance}."
      },
      "approve(address,uint256)": {
        "details": "See {IERC20-approve}. Requirements: - `spender` cannot be the zero address."
      },
      "balanceOf(address)": {
        "details": "See {IERC20-balanceOf}."
      },
      "decimals()": {
        "details": "Returns the number of decimals used to get its user representation. For example, if `decimals` equals `2`, a balance of `505` tokens should be displayed to a user as `5,05` (`505 / 10 ** 2`). Tokens usually opt for a value of 18, imitating the relationship between Ether and Wei. This is the value {ERC20} uses, unless {_setupDecimals} is called. NOTE: This information is only used for _display_ purposes: it in no way affects any of the arithmetic of the contract, including {IERC20-balanceOf} and {IERC20-transfer}."
      },
      "decreaseAllowance(address,uint256)": {
        "details": "Atomically decreases the allowance granted to `spender` by the caller. This is an alternative to {approve} that can be used as a mitigation for problems described in {IERC20-approve}. Emits an {Approval} event indicating the updated allowance. Requirements: - `spender` cannot be the zero address. - `spender` must have allowance for the caller of at least `subtractedValue`."
      },
      "increaseAllowance(address,uint256)": {
        "details": "Atomically increases the allowance granted to `spender` by the caller. This is an alternative to {approve} that can be used as a mitigation for problems described in {IERC20-approve}. Emits an {Approval} event indicating the updated allowance. Requirements: - `spender` cannot be the zero address."
      },
      "name()": {
        "details": "Returns the name of the token."
      },
      "symbol()": {
        "details": "Returns the symbol of the token, usually a shorter version of the name."
      },
      "totalSupply()": {
        "details": "See {IERC20-totalSupply}."
      },
      "transfer(address,uint256)": {
        "details": "See {IERC20-transfer}. Requirements: - `recipient` cannot be the zero address. - the caller must have a balance of at least `amount`."
      },
      "transferFrom(address,address,uint256)": {
        "details": "See {IERC20-transferFrom}. Emits an {Approval} event indicating the updated allowance. This is not required by the EIP. See the note at the beginning of {ERC20}; Requirements: - `sender` and `recipient` cannot be the zero address. - `sender` must have a balance of at least `amount`. - the caller must have allowance for ``sender``'s tokens of at least `amount`."
      }
    },
    "version": 1
  },
  "userdoc": {
    "kind": "user",
    "methods": {},
    "version": 1
  }
}