{
  "contractName": "FREN",
  "abi": [
    {
      "inputs": [
        {
          "internalType": "address",
          "name": "daiAddress",
          "type": "address"
        },
        {
          "internalType": "address",
          "name": "uniswapV2FactoryAddress",
          "type": "address"
        },
        {
          "internalType": "address",
          "name": "uniswapV2Router02Address",
          "type": "address"
        }
      ],
      "stateMutability": "nonpayable",
      "type": "constructor"
    },
    {
      "anonymous": false,
      "inputs": [
        {
          "indexed": true,
          "internalType": "address",
          "name": "owner",
          "type": "address"
        },
        {
          "indexed": true,
          "internalType": "address",
          "name": "spender",
          "type": "address"
        },
        {
          "indexed": false,
          "internalType": "uint256",
          "name": "value",
          "type": "uint256"
        }
      ],
      "name": "Approval",
      "type": "event"
    },
    {
      "anonymous": false,
      "inputs": [
        {
          "indexed": true,
          "internalType": "address",
          "name": "from",
          "type": "address"
        },
        {
          "indexed": true,
          "internalType": "address",
          "name": "to",
          "type": "address"
        },
        {
          "indexed": false,
          "internalType": "uint256",
          "name": "value",
          "type": "uint256"
        }
      ],
      "name": "Transfer",
      "type": "event"
    },
    {
      "anonymous": false,
      "inputs": [
        {
          "indexed": true,
          "internalType": "address",
          "name": "lendor",
          "type": "address"
        },
        {
          "indexed": true,
          "internalType": "uint256",
          "name": "index",
          "type": "uint256"
        },
        {
          "indexed": true,
          "internalType": "address",
          "name": "debtor",
          "type": "address"
        }
      ],
      "name": "loanOffer",
      "type": "event"
    },
    {
      "anonymous": false,
      "inputs": [
        {
          "indexed": true,
          "internalType": "address",
          "name": "lendor",
          "type": "address"
        },
        {
          "indexed": true,
          "internalType": "uint256",
          "name": "index",
          "type": "uint256"
        },
        {
          "indexed": true,
          "internalType": "address",
          "name": "debtor",
          "type": "address"
        }
      ],
      "name": "loanRepaid",
      "type": "event"
    },
    {
      "anonymous": false,
      "inputs": [
        {
          "indexed": true,
          "internalType": "address",
          "name": "lendor",
          "type": "address"
        },
        {
          "indexed": true,
          "internalType": "uint256",
          "name": "index",
          "type": "uint256"
        },
        {
          "indexed": true,
          "internalType": "address",
          "name": "debtor",
          "type": "address"
        }
      ],
      "name": "loanSign",
      "type": "event"
    },
    {
      "inputs": [
        {
          "internalType": "address",
          "name": "owner",
          "type": "address"
        },
        {
          "internalType": "address",
          "name": "spender",
          "type": "address"
        }
      ],
      "name": "allowance",
      "outputs": [
        {
          "internalType": "uint256",
          "name": "",
          "type": "uint256"
        }
      ],
      "stateMutability": "view",
      "type": "function",
      "constant": true
    },
    {
      "inputs": [
        {
          "internalType": "address",
          "name": "spender",
          "type": "address"
        },
        {
          "internalType": "uint256",
          "name": "amount",
          "type": "uint256"
        }
      ],
      "name": "approve",
      "outputs": [
        {
          "internalType": "bool",
          "name": "",
          "type": "bool"
        }
      ],
      "stateMutability": "nonpayable",
      "type": "function"
    },
    {
      "inputs": [
        {
          "internalType": "address",
          "name": "account",
          "type": "address"
        }
      ],
      "name": "balanceOf",
      "outputs": [
        {
          "internalType": "uint256",
          "name": "",
          "type": "uint256"
        }
      ],
      "stateMutability": "view",
      "type": "function",
      "constant": true
    },
    {
      "inputs": [],
      "name": "decimals",
      "outputs": [
        {
          "internalType": "uint8",
          "name": "",
          "type": "uint8"
        }
      ],
      "stateMutability": "view",
      "type": "function",
      "constant": true
    },
    {
      "inputs": [
        {
          "internalType": "address",
          "name": "spender",
          "type": "address"
        },
        {
          "internalType": "uint256",
          "name": "subtractedValue",
          "type": "uint256"
        }
      ],
      "name": "decreaseAllowance",
      "outputs": [
        {
          "internalType": "bool",
          "name": "",
          "type": "bool"
        }
      ],
      "stateMutability": "nonpayable",
      "type": "function"
    },
    {
      "inputs": [
        {
          "internalType": "address",
          "name": "spender",
          "type": "address"
        },
        {
          "internalType": "uint256",
          "name": "addedValue",
          "type": "uint256"
        }
      ],
      "name": "increaseAllowance",
      "outputs": [
        {
          "internalType": "bool",
          "name": "",
          "type": "bool"
        }
      ],
      "stateMutability": "nonpayable",
      "type": "function"
    },
    {
      "inputs": [],
      "name": "name",
      "outputs": [
        {
          "internalType": "string",
          "name": "",
          "type": "string"
        }
      ],
      "stateMutability": "view",
      "type": "function",
      "constant": true
    },
    {
      "inputs": [],
      "name": "symbol",
      "outputs": [
        {
          "internalType": "string",
          "name": "",
          "type": "string"
        }
      ],
      "stateMutability": "view",
      "type": "function",
      "constant": true
    },
    {
      "inputs": [],
      "name": "totalSupply",
      "outputs": [
        {
          "internalType": "uint256",
          "name": "",
          "type": "uint256"
        }
      ],
      "stateMutability": "view",
      "type": "function",
      "constant": true
    },
    {
      "inputs": [
        {
          "internalType": "address",
          "name": "recipient",
          "type": "address"
        },
        {
          "internalType": "uint256",
          "name": "amount",
          "type": "uint256"
        }
      ],
      "name": "transfer",
      "outputs": [
        {
          "internalType": "bool",
          "name": "",
          "type": "bool"
        }
      ],
      "stateMutability": "nonpayable",
      "type": "function"
    },
    {
      "inputs": [
        {
          "internalType": "address",
          "name": "sender",
          "type": "address"
        },
        {
          "internalType": "address",
          "name": "recipient",
          "type": "address"
        },
        {
          "internalType": "uint256",
          "name": "amount",
          "type": "uint256"
        }
      ],
      "name": "transferFrom",
      "outputs": [
        {
          "internalType": "bool",
          "name": "",
          "type": "bool"
        }
      ],
      "stateMutability": "nonpayable",
      "type": "function"
    },
    {
      "inputs": [],
      "name": "daiReserve",
      "outputs": [
        {
          "internalType": "uint256",
          "name": "",
          "type": "uint256"
        }
      ],
      "stateMutability": "view",
      "type": "function",
      "constant": true
    },
    {
      "inputs": [
        {
          "internalType": "address",
          "name": "account",
          "type": "address"
        },
        {
          "internalType": "uint256",
          "name": "expiryDate",
          "type": "uint256"
        }
      ],
      "name": "timeAdjustedRR",
      "outputs": [
        {
          "internalType": "uint256",
          "name": "",
          "type": "uint256"
        }
      ],
      "stateMutability": "view",
      "type": "function",
      "constant": true
    },
    {
      "inputs": [
        {
          "internalType": "address",
          "name": "debtor",
          "type": "address"
        },
        {
          "internalType": "uint256",
          "name": "amount",
          "type": "uint256"
        },
        {
          "internalType": "uint256",
          "name": "expiry",
          "type": "uint256"
        },
        {
          "internalType": "uint256",
          "name": "interest",
          "type": "uint256"
        }
      ],
      "name": "offerLoan",
      "outputs": [],
      "stateMutability": "nonpayable",
      "type": "function"
    },
    {
      "inputs": [
        {
          "internalType": "address",
          "name": "lendor",
          "type": "address"
        },
        {
          "internalType": "uint256",
          "name": "index",
          "type": "uint256"
        }
      ],
      "name": "signLoan",
      "outputs": [],
      "stateMutability": "nonpayable",
      "type": "function"
    },
    {
      "inputs": [
        {
          "internalType": "address",
          "name": "lendor",
          "type": "address"
        },
        {
          "internalType": "uint256",
          "name": "index",
          "type": "uint256"
        }
      ],
      "name": "repayLoan",
      "outputs": [],
      "stateMutability": "nonpayable",
      "type": "function"
    },
    {
      "inputs": [
        {
          "internalType": "address",
          "name": "holder",
          "type": "address"
        }
      ],
      "name": "assetsOf",
      "outputs": [
        {
          "internalType": "uint256",
          "name": "",
          "type": "uint256"
        }
      ],
      "stateMutability": "view",
      "type": "function",
      "constant": true
    },
    {
      "inputs": [
        {
          "internalType": "address",
          "name": "holder",
          "type": "address"
        }
      ],
      "name": "liabilitiesOf",
      "outputs": [
        {
          "internalType": "uint256",
          "name": "",
          "type": "uint256"
        }
      ],
      "stateMutability": "view",
      "type": "function",
      "constant": true
    }
  ],
  "bytecode": "0x60806040523480156200001157600080fd5b5060405162002a7938038062002a79833981810160405260608110156200003757600080fd5b810190808051906020019092919080519060200190929190805190602001909291905050506040518060400160405280602081526020017f4665646572616c20526573657276652045766572796f6e65204e6574776f726b8152506040518060400160405280600481526020017f4652454e000000000000000000000000000000000000000000000000000000008152508160039080519060200190620000e092919062000313565b508060049080519060200190620000f992919062000313565b506012600560006101000a81548160ff021916908360ff1602179055505050600160068190555082600760006101000a81548173ffffffffffffffffffffffffffffffffffffffff021916908373ffffffffffffffffffffffffffffffffffffffff16021790555081600860006101000a81548173ffffffffffffffffffffffffffffffffffffffff021916908373ffffffffffffffffffffffffffffffffffffffff16021790555080600960006101000a81548173ffffffffffffffffffffffffffffffffffffffff021916908373ffffffffffffffffffffffffffffffffffffffff160217905550600860009054906101000a900473ffffffffffffffffffffffffffffffffffffffff1673ffffffffffffffffffffffffffffffffffffffff1663c9c6539684306040518363ffffffff1660e01b8152600401808373ffffffffffffffffffffffffffffffffffffffff1681526020018273ffffffffffffffffffffffffffffffffffffffff16815260200192505050602060405180830381600087803b1580156200028d57600080fd5b505af1158015620002a2573d6000803e3d6000fd5b505050506040513d6020811015620002b957600080fd5b8101908080519060200190929190505050600a60006101000a81548173ffffffffffffffffffffffffffffffffffffffff021916908373ffffffffffffffffffffffffffffffffffffffff160217905550505050620003b9565b828054600181600116156101000203166002900490600052602060002090601f016020900481019282601f106200035657805160ff191683800117855562000387565b8280016001018555821562000387579182015b828111156200038657825182559160200191906001019062000369565b5b5090506200039691906200039a565b5090565b5b80821115620003b55760008160009055506001016200039b565b5090565b6126b080620003c96000396000f3fe608060405234801561001057600080fd5b50600436106101165760003560e01c806381d5660c116100a2578063a457c2d711610071578063a457c2d7146105c6578063a9059cbb1461062a578063bca48c081461068e578063dd62ed3e146106dc578063e2771ec81461075457610116565b806381d5660c1461043b5780638638110e1461049d57806393a595f5146104f557806395d89b411461054357610116565b80632c62fa10116100e95780632c62fa10146102a4578063313ce567146102fc578063395093511461031d57806353f6d07d1461038157806370a08231146103e357610116565b806306fdde031461011b578063095ea7b31461019e57806318160ddd1461020257806323b872dd14610220575b600080fd5b610123610772565b6040518080602001828103825283818151815260200191508051906020019080838360005b83811015610163578082015181840152602081019050610148565b50505050905090810190601f1680156101905780820380516001836020036101000a031916815260200191505b509250505060405180910390f35b6101ea600480360360408110156101b457600080fd5b81019080803573ffffffffffffffffffffffffffffffffffffffff16906020019092919080359060200190929190505050610814565b60405180821515815260200191505060405180910390f35b61020a610832565b6040518082815260200191505060405180910390f35b61028c6004803603606081101561023657600080fd5b81019080803573ffffffffffffffffffffffffffffffffffffffff169060200190929190803573ffffffffffffffffffffffffffffffffffffffff1690602001909291908035906020019092919050505061083c565b60405180821515815260200191505060405180910390f35b6102e6600480360360208110156102ba57600080fd5b81019080803573ffffffffffffffffffffffffffffffffffffffff169060200190929190505050610915565b6040518082815260200191505060405180910390f35b6103046109aa565b604051808260ff16815260200191505060405180910390f35b6103696004803603604081101561033357600080fd5b81019080803573ffffffffffffffffffffffffffffffffffffffff169060200190929190803590602001909291905050506109c1565b60405180821515815260200191505060405180910390f35b6103cd6004803603604081101561039757600080fd5b81019080803573ffffffffffffffffffffffffffffffffffffffff16906020019092919080359060200190929190505050610a74565b6040518082815260200191505060405180910390f35b610425600480360360208110156103f957600080fd5b81019080803573ffffffffffffffffffffffffffffffffffffffff169060200190929190505050610b58565b6040518082815260200191505060405180910390f35b61049b6004803603608081101561045157600080fd5b81019080803573ffffffffffffffffffffffffffffffffffffffff169060200190929190803590602001909291908035906020019092919080359060200190929190505050610ba0565b005b6104df600480360360208110156104b357600080fd5b81019080803573ffffffffffffffffffffffffffffffffffffffff16906020019092919050505061107b565b6040518082815260200191505060405180910390f35b6105416004803603604081101561050b57600080fd5b81019080803573ffffffffffffffffffffffffffffffffffffffff16906020019092919080359060200190929190505050611110565b005b61054b61139f565b6040518080602001828103825283818151815260200191508051906020019080838360005b8381101561058b578082015181840152602081019050610570565b50505050905090810190601f1680156105b85780820380516001836020036101000a031916815260200191505b509250505060405180910390f35b610612600480360360408110156105dc57600080fd5b81019080803573ffffffffffffffffffffffffffffffffffffffff16906020019092919080359060200190929190505050611441565b60405180821515815260200191505060405180910390f35b6106766004803603604081101561064057600080fd5b81019080803573ffffffffffffffffffffffffffffffffffffffff1690602001909291908035906020019092919050505061150e565b60405180821515815260200191505060405180910390f35b6106da600480360360408110156106a457600080fd5b81019080803573ffffffffffffffffffffffffffffffffffffffff1690602001909291908035906020019092919050505061152c565b005b61073e600480360360408110156106f257600080fd5b81019080803573ffffffffffffffffffffffffffffffffffffffff169060200190929190803573ffffffffffffffffffffffffffffffffffffffff169060200190929190505050611974565b6040518082815260200191505060405180910390f35b61075c6119fb565b6040518082815260200191505060405180910390f35b606060038054600181600116156101000203166002900480601f01602080910402602001604051908101604052809291908181526020018280546001816001161561010002031660029004801561080a5780601f106107df5761010080835404028352916020019161080a565b820191906000526020600020905b8154815290600101906020018083116107ed57829003601f168201915b5050505050905090565b6000610828610821611ac6565b8484611ace565b6001905092915050565b6000600254905090565b6000610849848484611cc5565b61090a84610855611ac6565b6109058560405180606001604052806028815260200161259d60289139600160008b73ffffffffffffffffffffffffffffffffffffffff1673ffffffffffffffffffffffffffffffffffffffff16815260200190815260200160002060006108bb611ac6565b73ffffffffffffffffffffffffffffffffffffffff1673ffffffffffffffffffffffffffffffffffffffff16815260200190815260200160002054611f869092919063ffffffff16565b611ace565b600190509392505050565b600061091f6124a8565b600b60008473ffffffffffffffffffffffffffffffffffffffff1673ffffffffffffffffffffffffffffffffffffffff1681526020019081526020016000206040518060a00160405290816000820154815260200160018201548152602001600282015481526020016003820154815260200160048201548152505090508060400151915050919050565b6000600560009054906101000a900460ff16905090565b6000610a6a6109ce611ac6565b84610a6585600160006109df611ac6565b73ffffffffffffffffffffffffffffffffffffffff1673ffffffffffffffffffffffffffffffffffffffff16815260200190815260200160002060008973ffffffffffffffffffffffffffffffffffffffff1673ffffffffffffffffffffffffffffffffffffffff1681526020019081526020016000205461204690919063ffffffff16565b611ace565b6001905092915050565b6000610a7e6124a8565b600b60008573ffffffffffffffffffffffffffffffffffffffff1673ffffffffffffffffffffffffffffffffffffffff1681526020019081526020016000206040518060a00160405290816000820154815260200160018201548152602001600282015481526020016003820154815260200160048201548152505090506000428403905060006201518090506000818381610b1657fe5b04905061016d811015610b4657600061016d856000015181610b3457fe5b04905080820295505050505050610b52565b83600001519450505050505b92915050565b60008060008373ffffffffffffffffffffffffffffffffffffffff1673ffffffffffffffffffffffffffffffffffffffff168152602001908152602001600020549050919050565b338383610bab6124a8565b600b60008573ffffffffffffffffffffffffffffffffffffffff1673ffffffffffffffffffffffffffffffffffffffff1681526020019081526020016000206040518060a00160405290816000820154815260200160018201548152602001600282015481526020016003820154815260200160048201548152505090506000610c3485610b58565b9050600073__Helpers_______________________________622c1a9e868560600151018460126040518463ffffffff1660e01b815260040180848152602001838152602001828152602001935050505060206040518083038186803b158015610c9d57600080fd5b505af4158015610cb1573d6000803e3d6000fd5b505050506040513d6020811015610cc757600080fd5b81019080805190602001909291905050509050610ce48685610a74565b811115610d3c576040517f08c379a00000000000000000000000000000000000000000000000000000000081526004018080602001828103825260278152602001806125c56027913960400191505060405180910390fd5b6201518042890311610db6576040517f08c379a000000000000000000000000000000000000000000000000000000000815260040180806020018281038252601c8152602001807f6c6f616e73206d757374206265206174206c656173742061203234680000000081525060200191505060405180910390fd5b610dbe6124d7565b6040518060c001604052808b81526020018a815260200160001515815260200142815260200160008152602001898152509050600c60003373ffffffffffffffffffffffffffffffffffffffff1673ffffffffffffffffffffffffffffffffffffffff16815260200190815260200160002060008c73ffffffffffffffffffffffffffffffffffffffff1673ffffffffffffffffffffffffffffffffffffffff168152602001908152602001600020819080600181540180825580915050600190039060005260206000209060060201600090919091909150600082015181600001556020820151816001015560408201518160020160006101000a81548160ff021916908315150217905550606082015181600301556080820151816004015560a0820151816005015550506000600c60003373ffffffffffffffffffffffffffffffffffffffff1673ffffffffffffffffffffffffffffffffffffffff16815260200190815260200160002060008d73ffffffffffffffffffffffffffffffffffffffff1673ffffffffffffffffffffffffffffffffffffffff168152602001908152602001600020805490509050600d60003373ffffffffffffffffffffffffffffffffffffffff1673ffffffffffffffffffffffffffffffffffffffff16815260200190815260200160002060008d73ffffffffffffffffffffffffffffffffffffffff1673ffffffffffffffffffffffffffffffffffffffff1681526020019081526020016000208190806001815401808255809150506001900390600052602060002001600090919091909150558b73ffffffffffffffffffffffffffffffffffffffff16813373ffffffffffffffffffffffffffffffffffffffff167f70c9e256e5590a7520512b88293528b2c0c7ecf3c36695181926988987156b6760405160405180910390a4505050505050505050505050565b60006110856124a8565b600b60008473ffffffffffffffffffffffffffffffffffffffff1673ffffffffffffffffffffffffffffffffffffffff1681526020019081526020016000206040518060a00160405290816000820154815260200160018201548152602001600282015481526020016003820154815260200160048201548152505090508060600151915050919050565b6000600c60008473ffffffffffffffffffffffffffffffffffffffff1673ffffffffffffffffffffffffffffffffffffffff16815260200190815260200160002060003373ffffffffffffffffffffffffffffffffffffffff1673ffffffffffffffffffffffffffffffffffffffff168152602001908152602001600020600183038154811061119c57fe5b906000526020600020906006020190506000600b60003373ffffffffffffffffffffffffffffffffffffffff1673ffffffffffffffffffffffffffffffffffffffff168152602001908152602001600020905060006111fa33610b58565b90506000600b60008773ffffffffffffffffffffffffffffffffffffffff1673ffffffffffffffffffffffffffffffffffffffff168152602001908152602001600020905083600501548460000154018210156112bf576040517f08c379a00000000000000000000000000000000000000000000000000000000081526004018080602001828103825260118152602001807f696e737566666963656e742066756e647300000000000000000000000000000081525060200191505060405180910390fd5b6112ce33878660050154611cc5565b6112dc3385600001546120ce565b6112fd8460050154856000015401846003015461229290919063ffffffff16565b5061131f8460050154856000015401826002015461229290919063ffffffff16565b5061133b8460000154826003015461229290919063ffffffff16565b503373ffffffffffffffffffffffffffffffffffffffff16858773ffffffffffffffffffffffffffffffffffffffff167ff57cc7f3bb20dfe97a6041fbb06abb7613a11ca4a5f4a3a5466d43356e6b631760405160405180910390a4505050505050565b606060048054600181600116156101000203166002900480601f0160208091040260200160405190810160405280929190818152602001828054600181600116156101000203166002900480156114375780601f1061140c57610100808354040283529160200191611437565b820191906000526020600020905b81548152906001019060200180831161141a57829003601f168201915b5050505050905090565b600061150461144e611ac6565b846114ff856040518060600160405280602581526020016126566025913960016000611478611ac6565b73ffffffffffffffffffffffffffffffffffffffff1673ffffffffffffffffffffffffffffffffffffffff16815260200190815260200160002060008a73ffffffffffffffffffffffffffffffffffffffff1673ffffffffffffffffffffffffffffffffffffffff16815260200190815260200160002054611f869092919063ffffffff16565b611ace565b6001905092915050565b600061152261151b611ac6565b8484611cc5565b6001905092915050565b81600c60008473ffffffffffffffffffffffffffffffffffffffff1673ffffffffffffffffffffffffffffffffffffffff16815260200190815260200160002060003373ffffffffffffffffffffffffffffffffffffffff1673ffffffffffffffffffffffffffffffffffffffff16815260200190815260200160002060018303815481106115b757fe5b9060005260206000209060060201600001546115d16124a8565b600b60008473ffffffffffffffffffffffffffffffffffffffff1673ffffffffffffffffffffffffffffffffffffffff1681526020019081526020016000206040518060a0016040529081600082015481526020016001820154815260200160028201548152602001600382015481526020016004820154815250509050600061165a84610b58565b9050600073__Helpers_______________________________622c1a9e858560600151018460126040518463ffffffff1660e01b815260040180848152602001838152602001828152602001935050505060206040518083038186803b1580156116c357600080fd5b505af41580156116d7573d6000803e3d6000fd5b505050506040513d60208110156116ed57600080fd5b81019080805190602001909291905050509050826000015181111561175d576040517f08c379a00000000000000000000000000000000000000000000000000000000081526004018080602001828103825260278152602001806125c56027913960400191505060405180910390fd5b6000600c60008973ffffffffffffffffffffffffffffffffffffffff1673ffffffffffffffffffffffffffffffffffffffff16815260200190815260200160002060003373ffffffffffffffffffffffffffffffffffffffff1673ffffffffffffffffffffffffffffffffffffffff16815260200190815260200160002060018803815481106117e957fe5b906000526020600020906006020190506000600b60008a73ffffffffffffffffffffffffffffffffffffffff1673ffffffffffffffffffffffffffffffffffffffff16815260200190815260200160002090506000600b60003373ffffffffffffffffffffffffffffffffffffffff1673ffffffffffffffffffffffffffffffffffffffff16815260200190815260200160002090506118a08360050154846000015401826003015461204690919063ffffffff16565b506118c28360050154846000015401836002015461204690919063ffffffff16565b508260000154826003016000828254019250508190555060018360020160006101000a81548160ff02191690831515021790555042836003018190555061190d3384600001546122dc565b3373ffffffffffffffffffffffffffffffffffffffff16898b73ffffffffffffffffffffffffffffffffffffffff167fe3b3cffda5a20d9b3256be3959f9e5a53f9fb69d3bb028f5239a0e034c7a5ae360405160405180910390a450505050505050505050565b6000600160008473ffffffffffffffffffffffffffffffffffffffff1673ffffffffffffffffffffffffffffffffffffffff16815260200190815260200160002060008373ffffffffffffffffffffffffffffffffffffffff1673ffffffffffffffffffffffffffffffffffffffff16815260200190815260200160002054905092915050565b6000600760009054906101000a900473ffffffffffffffffffffffffffffffffffffffff1673ffffffffffffffffffffffffffffffffffffffff166370a08231306040518263ffffffff1660e01b8152600401808273ffffffffffffffffffffffffffffffffffffffff16815260200191505060206040518083038186803b158015611a8657600080fd5b505afa158015611a9a573d6000803e3d6000fd5b505050506040513d6020811015611ab057600080fd5b8101908080519060200190929190505050905090565b600033905090565b600073ffffffffffffffffffffffffffffffffffffffff168373ffffffffffffffffffffffffffffffffffffffff161415611b54576040517f08c379a00000000000000000000000000000000000000000000000000000000081526004018080602001828103825260248152602001806126326024913960400191505060405180910390fd5b600073ffffffffffffffffffffffffffffffffffffffff168273ffffffffffffffffffffffffffffffffffffffff161415611bda576040517f08c379a00000000000000000000000000000000000000000000000000000000081526004018080602001828103825260228152602001806125556022913960400191505060405180910390fd5b80600160008573ffffffffffffffffffffffffffffffffffffffff1673ffffffffffffffffffffffffffffffffffffffff16815260200190815260200160002060008473ffffffffffffffffffffffffffffffffffffffff1673ffffffffffffffffffffffffffffffffffffffff168152602001908152602001600020819055508173ffffffffffffffffffffffffffffffffffffffff168373ffffffffffffffffffffffffffffffffffffffff167f8c5be1e5ebec7d5bd14f71427d1e84f3dd0314c0f7b2291e5b200ac8c7c3b925836040518082815260200191505060405180910390a3505050565b600073ffffffffffffffffffffffffffffffffffffffff168373ffffffffffffffffffffffffffffffffffffffff161415611d4b576040517f08c379a000000000000000000000000000000000000000000000000000000000815260040180806020018281038252602581526020018061260d6025913960400191505060405180910390fd5b600073ffffffffffffffffffffffffffffffffffffffff168273ffffffffffffffffffffffffffffffffffffffff161415611dd1576040517f08c379a00000000000000000000000000000000000000000000000000000000081526004018080602001828103825260238152602001806125106023913960400191505060405180910390fd5b611ddc8383836124a3565b611e4781604051806060016040528060268152602001612577602691396000808773ffffffffffffffffffffffffffffffffffffffff1673ffffffffffffffffffffffffffffffffffffffff16815260200190815260200160002054611f869092919063ffffffff16565b6000808573ffffffffffffffffffffffffffffffffffffffff1673ffffffffffffffffffffffffffffffffffffffff16815260200190815260200160002081905550611eda816000808573ffffffffffffffffffffffffffffffffffffffff1673ffffffffffffffffffffffffffffffffffffffff1681526020019081526020016000205461204690919063ffffffff16565b6000808473ffffffffffffffffffffffffffffffffffffffff1673ffffffffffffffffffffffffffffffffffffffff168152602001908152602001600020819055508173ffffffffffffffffffffffffffffffffffffffff168373ffffffffffffffffffffffffffffffffffffffff167fddf252ad1be2c89b69c2b068fc378daa952ba7f163c4a11628f55a4df523b3ef836040518082815260200191505060405180910390a3505050565b6000838311158290612033576040517f08c379a00000000000000000000000000000000000000000000000000000000081526004018080602001828103825283818151815260200191508051906020019080838360005b83811015611ff8578082015181840152602081019050611fdd565b50505050905090810190601f1680156120255780820380516001836020036101000a031916815260200191505b509250505060405180910390fd5b5060008385039050809150509392505050565b6000808284019050838110156120c4576040517f08c379a000000000000000000000000000000000000000000000000000000000815260040180806020018281038252601b8152602001807f536166654d6174683a206164646974696f6e206f766572666c6f77000000000081525060200191505060405180910390fd5b8091505092915050565b600073ffffffffffffffffffffffffffffffffffffffff168273ffffffffffffffffffffffffffffffffffffffff161415612154576040517f08c379a00000000000000000000000000000000000000000000000000000000081526004018080602001828103825260218152602001806125ec6021913960400191505060405180910390fd5b612160826000836124a3565b6121cb81604051806060016040528060228152602001612533602291396000808673ffffffffffffffffffffffffffffffffffffffff1673ffffffffffffffffffffffffffffffffffffffff16815260200190815260200160002054611f869092919063ffffffff16565b6000808473ffffffffffffffffffffffffffffffffffffffff1673ffffffffffffffffffffffffffffffffffffffff168152602001908152602001600020819055506122228160025461229290919063ffffffff16565b600281905550600073ffffffffffffffffffffffffffffffffffffffff168273ffffffffffffffffffffffffffffffffffffffff167fddf252ad1be2c89b69c2b068fc378daa952ba7f163c4a11628f55a4df523b3ef836040518082815260200191505060405180910390a35050565b60006122d483836040518060400160405280601e81526020017f536166654d6174683a207375627472616374696f6e206f766572666c6f770000815250611f86565b905092915050565b600073ffffffffffffffffffffffffffffffffffffffff168273ffffffffffffffffffffffffffffffffffffffff16141561237f576040517f08c379a000000000000000000000000000000000000000000000000000000000815260040180806020018281038252601f8152602001807f45524332303a206d696e7420746f20746865207a65726f20616464726573730081525060200191505060405180910390fd5b61238b600083836124a3565b6123a08160025461204690919063ffffffff16565b6002819055506123f7816000808573ffffffffffffffffffffffffffffffffffffffff1673ffffffffffffffffffffffffffffffffffffffff1681526020019081526020016000205461204690919063ffffffff16565b6000808473ffffffffffffffffffffffffffffffffffffffff1673ffffffffffffffffffffffffffffffffffffffff168152602001908152602001600020819055508173ffffffffffffffffffffffffffffffffffffffff16600073ffffffffffffffffffffffffffffffffffffffff167fddf252ad1be2c89b69c2b068fc378daa952ba7f163c4a11628f55a4df523b3ef836040518082815260200191505060405180910390a35050565b505050565b6040518060a0016040528060008152602001600081526020016000815260200160008152602001600081525090565b6040518060c001604052806000815260200160008152602001600015158152602001600081526020016000815260200160008152509056fe45524332303a207472616e7366657220746f20746865207a65726f206164647265737345524332303a206275726e20616d6f756e7420657863656564732062616c616e636545524332303a20617070726f766520746f20746865207a65726f206164647265737345524332303a207472616e7366657220616d6f756e7420657863656564732062616c616e636545524332303a207472616e7366657220616d6f756e74206578636565647320616c6c6f77616e636561706f6c6f676965732c207265736572766520726571756972656d656e7420657863656564656445524332303a206275726e2066726f6d20746865207a65726f206164647265737345524332303a207472616e736665722066726f6d20746865207a65726f206164647265737345524332303a20617070726f76652066726f6d20746865207a65726f206164647265737345524332303a2064656372656173656420616c6c6f77616e63652062656c6f77207a65726fa26469706673582212203a4ff62785ff1cf1dd2f25d33c0991440a95c7d2196c3333097a5e0ee0995b7264736f6c63430007010033",
  "immutableReferences": {},
  "source": "pragma solidity ^0.7.1;\n\nimport '@openzeppelin/contracts/token/ERC20/ERC20.sol';\nimport '@openzeppelin/contracts/math/SafeMath.sol';\nimport '@openzeppelin/contracts/utils/ReentrancyGuard.sol';\nimport './Helpers.sol';\n\ninterface DaiToken {\n    function transfer(address dst, uint wad) external returns (bool);\n    function balanceOf(address guy) external view returns (uint);\n    function approve(address spender, uint256 amount) external returns (bool);\n    function transferFrom(address sender, address recipient, uint256 amount) external returns (bool);\n}\n\ninterface StubUniswapV2Factory {\n    function createPair(address tokenA, address tokenB) external returns (address pair);\n    function getPair(address tokenA, address tokenB) external view returns (address pair);\n}\n\ninterface StubUniswapV2Router02 {\n  function addLiquidity(\n  address tokenA,\n  address tokenB,\n  uint amountADesired,\n  uint amountBDesired,\n  uint amountAMin,\n  uint amountBMin,\n  address to,\n  uint deadline\n) external returns (uint amountA, uint amountB, uint liquidity);\n}\n\ncontract DaiMock is ERC20 {\n  constructor(uint256 initialSupply) ERC20('Silver', 'SLV') {\n    _mint(msg.sender, initialSupply);\n  }\n}\n\ncontract FREN is ERC20, ReentrancyGuard {\n  using SafeMath for uint256;\n  DaiToken daiToken;\n  StubUniswapV2Factory uniswapV2Factory;\n  StubUniswapV2Router02 uniswapV2Router02;\n  address uniswapPairAddress;\n  /* State\n  *\n  *\n  */\n  struct Account {\n    uint256 reserveRequirement;\n    uint256 newAccountOutflowRestrictor;\n    uint256 assets;\n    uint256 liabilities;\n    uint256 outstandingInterest;\n  }\n  mapping (address => Account) _accounts;\n  struct Loan {\n    uint256 principle;\n    uint256 expiry;\n    bool isApproved;\n    uint256 signedAt;\n    uint256 createdAt;\n    uint256 interest;\n  }\n  // _loans[lendor][debtor]\n  mapping (address => mapping (address => Loan[])) _loans;\n  mapping (address => mapping (address => uint256[])) _loanIndicies;\n\n  /* Events\n  *\n  *\n  */\n\n  event loanOffer(\n    address indexed lendor,\n    uint256 indexed index,\n    address indexed debtor\n  );\n\n  event loanSign(\n    address indexed lendor,\n    uint256 indexed index,\n    address indexed debtor\n  );\n\n  event loanRepaid(\n    address indexed lendor,\n    uint256 indexed index,\n    address indexed debtor\n  );\n\n  /* Constructor\n  *\n  */\n  constructor(\n    address daiAddress,\n    address uniswapV2FactoryAddress,\n    address uniswapV2Router02Address\n  )\n  ERC20(\n    'Federal Reserve Everyone Network',\n    'FREN'\n  )\n  {\n    daiToken = DaiToken(daiAddress);\n    uniswapV2Factory = StubUniswapV2Factory(uniswapV2FactoryAddress);\n    uniswapV2Router02 = StubUniswapV2Router02(uniswapV2Router02Address);\n    uniswapPairAddress = uniswapV2Factory.createPair(daiAddress, address(this));\n\n  }\n  \n  function mintWithDai(\n    uint256 amount\n  ) private\n    {\n    daiToken.transfer(address(this), amount);\n    _mint(msg.sender, amount);\n  }\n\n  function daiReserve() public view returns (uint256){\n    return daiToken.balanceOf(address(this));\n  }\n\n  /* Reserve req Mod\n  *\n  */\n \n  function timeAdjustedRR(\n    address account,\n    uint256 expiryDate\n  ) public view returns(uint256) {\n    Account memory relevantAccount = _accounts[account];\n    // higher numbers further in time\n    uint256 lengthOfTimeInS = expiryDate - block.timestamp;\n    uint256 dayInS = 3600*24;\n    // i believe this floors, is this satisfactory on the edge?\n    uint256 daysTillExpiry = lengthOfTimeInS / dayInS;\n    \n    if (daysTillExpiry < 365) {\n      uint256 increment = relevantAccount.reserveRequirement / 365;\n      return daysTillExpiry*increment;\n    }\n    return relevantAccount.reserveRequirement;\n  }\n\n  modifier isWithinReserveRatio(\n    address lendor,\n    uint256 amount\n  ) {\n    Account memory account = _accounts[lendor];\n    uint256 balance = balanceOf(lendor);\n    uint256 currentRatio = Helpers.percent(account.liabilities + amount, balance, 18);\n    require(currentRatio <= account.reserveRequirement, \"apologies, reserve requirement exceeded\");\n    _;\n  }\n\n  modifier isLoanOfferWithinReserveRatio(\n    address lendor,\n    uint256 amount,\n    uint256 expiry\n  ) {\n    Account memory account = _accounts[lendor];\n    uint256 balance = balanceOf(lendor);\n    uint256 currentRatio = Helpers.percent(account.liabilities + amount, balance, 18);\n    require(currentRatio <= timeAdjustedRR(lendor, expiry), \"apologies, reserve requirement exceeded\");\n    _;\n  }\n\n  /* Overrides\n  *\n  */\n\n\n  /* Loans\n  *\n  */\n \n  function offerLoan(\n    address debtor,\n    uint256 amount,\n    uint256 expiry,\n    uint256 interest\n  ) isLoanOfferWithinReserveRatio(\n      msg.sender,\n      amount,\n      expiry\n    )\n  external {\n    // minimum day\n    require((expiry - block.timestamp) > 3600*24, 'loans must be at least a 24h');\n    Loan memory newLoan = Loan(amount, expiry, false, block.timestamp, 0, interest);\n    // _loans[lendor][debtor]\n    _loans[msg.sender][debtor].push(newLoan);\n    uint256 index = _loans[msg.sender][debtor].length;\n    _loanIndicies[msg.sender][debtor].push(index);\n\n    emit loanOffer(msg.sender, index, debtor);\n  }\n  \n  function signLoan(\n    address lendor,\n    uint256 index\n  ) isWithinReserveRatio(\n      lendor,\n      _loans[lendor][msg.sender][index - 1].principle\n  ) external {\n    // state\n    Loan storage loan = _loans[lendor][msg.sender][index - 1];\n    Account storage lendorAccount = _accounts[lendor];\n    Account storage debtorAccount = _accounts[msg.sender];\n    \n    // change balances\n    debtorAccount.liabilities.add(loan.principle + loan.interest);\n    lendorAccount.assets.add(loan.principle + loan.interest);\n    lendorAccount.liabilities += loan.principle;\n \n    loan.isApproved = true;\n    loan.signedAt = block.timestamp; \n    \n    _mint(msg.sender, loan.principle);\n    // change globals\n    //_outstandingInterest += loan.interest;\n    emit loanSign(lendor, index, msg.sender);\n  }\n  \n  function repayLoan(\n    address lendor,\n    uint256 index\n  ) \n  external {\n    Loan storage loan = _loans[lendor][msg.sender][index - 1];\n    //uncommented for testing purpose\n    //require(block.timestamp >= loan.expiry, 'loans must be expired before they are repaid');\n    Account storage debtorAccount = _accounts[msg.sender];\n    uint256  debtorBalance = balanceOf(msg.sender);\n    Account storage lendorAccount = _accounts[lendor];\n    require(\n      debtorBalance >= loan.principle + loan.interest, 'insufficent funds'\n    );\n\n    _transfer(msg.sender, lendor, loan.interest);\n    _burn(msg.sender, loan.principle);\n    debtorAccount.liabilities.sub(loan.principle + loan.interest);\n    lendorAccount.assets.sub(loan.principle + loan.interest);\n    lendorAccount.liabilities.sub(loan.principle);\n    \n    //_outstandingInterest -= loan.interest;\n    emit loanRepaid(lendor, index, msg.sender);\n  }\n\n  function assetsOf(address holder) external view returns (uint256) {\n    Account memory account = _accounts[holder];\n    return account.assets;  \n  }\n\n  function liabilitiesOf(address holder) external view returns (uint256) {\n    Account memory account = _accounts[holder];\n    return account.liabilities;  \n  }\n\n\n\n}\n",
  "sourcePath": "/home/taylor/ff2/contracts/ff2/FREN.sol",
  "compiler": {
    "name": "solc",
    "version": "0.7.1+commit.f4a555be.Emscripten.clang"
  },
  "schemaVersion": "3.3.0",
  "updatedAt": "2020-10-14T19:26:54.560Z",
  "networkType": "ethereum",
  "devdoc": {
    "kind": "dev",
    "methods": {
      "allowance(address,address)": {
        "details": "See {IERC20-allowance}."
      },
      "approve(address,uint256)": {
        "details": "See {IERC20-approve}. Requirements: - `spender` cannot be the zero address."
      },
      "balanceOf(address)": {
        "details": "See {IERC20-balanceOf}."
      },
      "decimals()": {
        "details": "Returns the number of decimals used to get its user representation. For example, if `decimals` equals `2`, a balance of `505` tokens should be displayed to a user as `5,05` (`505 / 10 ** 2`). Tokens usually opt for a value of 18, imitating the relationship between Ether and Wei. This is the value {ERC20} uses, unless {_setupDecimals} is called. NOTE: This information is only used for _display_ purposes: it in no way affects any of the arithmetic of the contract, including {IERC20-balanceOf} and {IERC20-transfer}."
      },
      "decreaseAllowance(address,uint256)": {
        "details": "Atomically decreases the allowance granted to `spender` by the caller. This is an alternative to {approve} that can be used as a mitigation for problems described in {IERC20-approve}. Emits an {Approval} event indicating the updated allowance. Requirements: - `spender` cannot be the zero address. - `spender` must have allowance for the caller of at least `subtractedValue`."
      },
      "increaseAllowance(address,uint256)": {
        "details": "Atomically increases the allowance granted to `spender` by the caller. This is an alternative to {approve} that can be used as a mitigation for problems described in {IERC20-approve}. Emits an {Approval} event indicating the updated allowance. Requirements: - `spender` cannot be the zero address."
      },
      "name()": {
        "details": "Returns the name of the token."
      },
      "symbol()": {
        "details": "Returns the symbol of the token, usually a shorter version of the name."
      },
      "totalSupply()": {
        "details": "See {IERC20-totalSupply}."
      },
      "transfer(address,uint256)": {
        "details": "See {IERC20-transfer}. Requirements: - `recipient` cannot be the zero address. - the caller must have a balance of at least `amount`."
      },
      "transferFrom(address,address,uint256)": {
        "details": "See {IERC20-transferFrom}. Emits an {Approval} event indicating the updated allowance. This is not required by the EIP. See the note at the beginning of {ERC20}; Requirements: - `sender` and `recipient` cannot be the zero address. - `sender` must have a balance of at least `amount`. - the caller must have allowance for ``sender``'s tokens of at least `amount`."
      }
    },
    "version": 1
  },
  "userdoc": {
    "kind": "user",
    "methods": {},
    "version": 1
  }
}