{
  "contractName": "Helpers",
  "abi": [
    {
      "inputs": [
        {
          "internalType": "uint256",
          "name": "numerator",
          "type": "uint256"
        },
        {
          "internalType": "uint256",
          "name": "denominator",
          "type": "uint256"
        },
        {
          "internalType": "uint256",
          "name": "precision",
          "type": "uint256"
        }
      ],
      "name": "percent",
      "outputs": [
        {
          "internalType": "uint256",
          "name": "quotient",
          "type": "uint256"
        }
      ],
      "stateMutability": "pure",
      "type": "function",
      "constant": true
    }
  ],
  "bytecode": "0x60f3610025600b82828239805160001a60731461001857fe5b30600052607381538281f3fe730000000000000000000000000000000000000000301460806040526004361060325760003560e01c80622c1a9e146037575b600080fd5b607460048036036060811015604b57600080fd5b81019080803590602001909291908035906020019092919080359060200190929190505050608a565b6040518082815260200191505060405180910390f35b60008060018301600a0a850290506000600a600586848160a657fe5b04018160ae57fe5b0490508092505050939250505056fea26469706673582212209729e03a6ce6e873ea487627de9fca9bca4c3e02ad2cf42392473c0bc878663864736f6c63430007010033",
  "immutableReferences": {},
  "source": "pragma solidity ^0.7.1;\n\nlibrary Helpers {\n\n\tfunction percent(\n\t\t\tuint numerator,\n\t\t \tuint denominator,\n\t\t \tuint precision\n\t\t) public pure returns(uint quotient) {\n\t\t\t\n\t\t// caution, check safe-to-multiply here\n\t\tuint _numerator  = numerator * 10 ** (precision+1);\n\t\t// with rounding of last digit\n\t\tuint _quotient =  ((_numerator / denominator) + 5) / 10;\n\t\treturn ( _quotient);\n\t}\n\n\t// the reserve requirement, phi - 1 or (1 / phi),\n\t// will be amalgamated into the annum interest\n\t// Loan prepayment will be functionally tapered to the annum\n\t// so that only 1\n\n  function uintToString(uint _i) internal pure returns (string memory _uintAsString) {\n      if (_i == 0) {\n          return \"0\";\n      }\n      uint j = _i;\n      uint len;\n      while (j != 0) {\n          len++;\n          j /= 10;\n      }\n      bytes memory bstr = new bytes(len);\n      uint k = len - 1;\n      while (_i != 0) {\n          bstr[k--] = byte(uint8(48 + _i % 10));\n          _i /= 10;\n      }\n      return string(bstr);\n  }\n\n  function append(string memory a, string memory b) internal pure returns (string memory) {\n\n      return string(abi.encodePacked(a, b));\n\n  }\n\n  function parseInt(string memory _a, uint _b) internal pure returns (uint _parsedInt) {\n      bytes memory bresult = bytes(_a);\n      uint mint = 0;\n      bool decimals = false;\n      for (uint i = 0; i < bresult.length; i++) {\n          if ((uint(uint8(bresult[i])) >= 48) && (uint(uint8(bresult[i])) <= 57)) {\n              if (decimals) {\n                 if (_b == 0) {\n                     break;\n                 } else {\n                     _b--;\n                 }\n              }\n              mint *= 10;\n              mint += uint(uint8(bresult[i])) - 48;\n          } else if (uint(uint8(bresult[i])) == 46) {\n              decimals = true;\n          }\n      }\n      if (_b > 0) {\n          mint *= 10 ** _b;\n      }\n      return mint;\n  }\n\n  function pairFor(address factory, address tokenA, address tokenB) internal pure returns (address pair) {\n        (address token0, address token1) = sortTokens(tokenA, tokenB);\n        pair = address(uint(keccak256(abi.encodePacked(\n                hex'ff',\n                factory,\n                keccak256(abi.encodePacked(token0, token1)),\n                hex'96e8ac4277198ff8b6f785478aa9a39f403cb768dd02cbee326c3e7da348845f' // init code hash\n            ))));\n    }\n    function sortTokens(address tokenA, address tokenB) internal pure returns (address token0, address token1) {\n      require(tokenA != tokenB, 'UniswapV2Library: IDENTICAL_ADDRESSES');\n      (token0, token1) = tokenA < tokenB ? (tokenA, tokenB) : (tokenB, tokenA);\n      require(token0 != address(0), 'UniswapV2Library: ZERO_ADDRESS');\n  }\n}\n\n",
  "sourcePath": "/home/taylor/ff2/contracts/ff2/Helpers.sol",
  "compiler": {
    "name": "solc",
    "version": "0.7.1+commit.f4a555be.Emscripten.clang"
  },
  "schemaVersion": "3.3.0",
  "updatedAt": "2020-10-17T22:58:05.316Z",
  "networkType": "ethereum",
  "devdoc": {
    "kind": "dev",
    "methods": {},
    "version": 1
  },
  "userdoc": {
    "kind": "user",
    "methods": {},
    "version": 1
  }
}